{
  "transactions": [
    {
      "hash": "0x89aefb50ecbd0946be9df149ec3b88b2bbc0c801cd485bfff4e53397502b8632",
      "transactionType": "CALL",
      "contractName": null,
      "contractAddress": "0xf1df43a3053cd18e477233b59a25fc483c2cbe0f",
      "function": "setRateLimits((uint32,uint256,uint256)[])",
      "arguments": ["[(30325, 50000000000, 86400), (30101, 0, 86400)]"],
      "transaction": {
        "from": "0xb2105464215716e1445367bea5668f581ef7d063",
        "to": "0xf1df43a3053cd18e477233b59a25fc483c2cbe0f",
        "gas": "0x13bff",
        "value": "0x0",
        "input": "0x46f943e90000000000000000000000000000000000000000000000000000000000000020000000000000000000000000000000000000000000000000000000000000000200000000000000000000000000000000000000000000000000000000000076750000000000000000000000000000000000000000000000000000000ba43b74000000000000000000000000000000000000000000000000000000000000015180000000000000000000000000000000000000000000000000000000000000759500000000000000000000000000000000000000000000000000000000000000000000000000000000000000000000000000000000000000000000000000015180",
        "nonce": "0x72",
        "chainId": "0x1"
      },
      "additionalContracts": [],
      "isFixedGasLimit": false
    }
  ],
  "receipts": [
    {
      "status": "0x1",
      "cumulativeGasUsed": "0x102cd97",
      "logs": [
        {
          "address": "0xf1df43a3053cd18e477233b59a25fc483c2cbe0f",
          "topics": [
            "0xe888347665897e637801f36c5129f510657276178c89022bc5fa0246dbc19de1"
          ],
          "data": "0x0000000000000000000000000000000000000000000000000000000000000020000000000000000000000000000000000000000000000000000000000000000200000000000000000000000000000000000000000000000000000000000076750000000000000000000000000000000000000000000000000000000ba43b74000000000000000000000000000000000000000000000000000000000000015180000000000000000000000000000000000000000000000000000000000000759500000000000000000000000000000000000000000000000000000000000000000000000000000000000000000000000000000000000000000000000000015180",
          "blockHash": "0xa6de21e16985efd7684594a1d60f327ce4583daa3667230b7c46949629b6d057",
          "blockNumber": "0x14f8969",
          "transactionHash": "0x89aefb50ecbd0946be9df149ec3b88b2bbc0c801cd485bfff4e53397502b8632",
          "transactionIndex": "0xc2",
          "logIndex": "0x1c9",
          "removed": false
        }
      ],
      "logsBloom": "0x00000000000000000000000000000000000000000000000000000000000000000000002000000000000000000000000000000000000000004000000000000000000000000000000000000000000000000000000000000000000000000000000000000000000000000000000000000000000000000000000000000000000000000000100000000000000000000000000000000000000020000000010000000004000000000000000000000000000000000000000000000000000000000000000000000000000000000000000000000000000000000000000000000000000000000000000000000000000000000000000000000000000000000000000000000000",
      "type": "0x2",
      "transactionHash": "0x89aefb50ecbd0946be9df149ec3b88b2bbc0c801cd485bfff4e53397502b8632",
      "transactionIndex": "0xc2",
      "blockHash": "0xa6de21e16985efd7684594a1d60f327ce4583daa3667230b7c46949629b6d057",
      "blockNumber": "0x14f8969",
      "gasUsed": "0xe4c7",
      "effectiveGasPrice": "0x37aaa69b",
      "from": "0xb2105464215716e1445367bea5668f581ef7d063",
      "to": "0xf1df43a3053cd18e477233b59a25fc483c2cbe0f",
      "contractAddress": null
    }
  ],
  "libraries": [],
  "pending": [],
  "returns": {},
  "timestamp": 1741286929,
  "chain": 1,
  "commit": "32717383"
}
