{
  "transactions": [
    {
      "hash": "0x591ed4441b946b60a3d8fd01241184b9f79d05e3e189d033276b054a572fd12d",
      "transactionType": "CALL",
      "contractName": null,
      "contractAddress": "0xc209a627a7b0a19f16a963d9f7281667a2d9eff2",
      "function": "setDelegate(address)",
      "arguments": ["0xd7E22951DE7aF453aAc5400d6E072E3b63BeB7E2"],
      "transaction": {
        "from": "0xb2105464215716e1445367bea5668f581ef7d063",
        "to": "0xc209a627a7b0a19f16a963d9f7281667a2d9eff2",
        "gas": "0xb83e",
        "value": "0x0",
        "input": "0xca5eb5e1000000000000000000000000d7e22951de7af453aac5400d6e072e3b63beb7e2",
        "nonce": "0x7f",
        "chainId": "0x1"
      },
      "additionalContracts": [],
      "isFixedGasLimit": false
    },
    {
      "hash": "0x9aa017feb5bb32342401a082c154f996f7cd19bf7d0a1d82837f03b9ac36267c",
      "transactionType": "CALL",
      "contractName": null,
      "contractAddress": "0xc209a627a7b0a19f16a963d9f7281667a2d9eff2",
      "function": "transferOwnership(address)",
      "arguments": ["0xd7E22951DE7aF453aAc5400d6E072E3b63BeB7E2"],
      "transaction": {
        "from": "0xb2105464215716e1445367bea5668f581ef7d063",
        "to": "0xc209a627a7b0a19f16a963d9f7281667a2d9eff2",
        "gas": "0x9cb9",
        "value": "0x0",
        "input": "0xf2fde38b000000000000000000000000d7e22951de7af453aac5400d6e072e3b63beb7e2",
        "nonce": "0x80",
        "chainId": "0x1"
      },
      "additionalContracts": [],
      "isFixedGasLimit": false
    },
    {
      "hash": "0x06cd3710d95725f2646646c7e21bb95a62a34037bdfa1815f60071ec41285feb",
      "transactionType": "CALL",
      "contractName": null,
      "contractAddress": "0x5e87d7e75b272fb7150b4d1a05afb6bd71474950",
      "function": "setDelegate(address)",
      "arguments": ["0xd7E22951DE7aF453aAc5400d6E072E3b63BeB7E2"],
      "transaction": {
        "from": "0xb2105464215716e1445367bea5668f581ef7d063",
        "to": "0x5e87d7e75b272fb7150b4d1a05afb6bd71474950",
        "gas": "0xb83e",
        "value": "0x0",
        "input": "0xca5eb5e1000000000000000000000000d7e22951de7af453aac5400d6e072e3b63beb7e2",
        "nonce": "0x81",
        "chainId": "0x1"
      },
      "additionalContracts": [],
      "isFixedGasLimit": false
    },
    {
      "hash": "0xe30998edd47c536770a3dc6ef2be0b6fccb27450bbbabb2fc3995ec7e8b68191",
      "transactionType": "CALL",
      "contractName": null,
      "contractAddress": "0x5e87d7e75b272fb7150b4d1a05afb6bd71474950",
      "function": "transferOwnership(address)",
      "arguments": ["0xd7E22951DE7aF453aAc5400d6E072E3b63BeB7E2"],
      "transaction": {
        "from": "0xb2105464215716e1445367bea5668f581ef7d063",
        "to": "0x5e87d7e75b272fb7150b4d1a05afb6bd71474950",
        "gas": "0x9cb9",
        "value": "0x0",
        "input": "0xf2fde38b000000000000000000000000d7e22951de7af453aac5400d6e072e3b63beb7e2",
        "nonce": "0x82",
        "chainId": "0x1"
      },
      "additionalContracts": [],
      "isFixedGasLimit": false
    },
    {
      "hash": "0xf69edb640c5010ee2d1ab2829ff595a568717e6145e3caedf33a1c875bc9a264",
      "transactionType": "CALL",
      "contractName": null,
      "contractAddress": "0x06e01cb086fea9c644a2c105a9f20cfc21a526e8",
      "function": "setDelegate(address)",
      "arguments": ["0xd7E22951DE7aF453aAc5400d6E072E3b63BeB7E2"],
      "transaction": {
        "from": "0xb2105464215716e1445367bea5668f581ef7d063",
        "to": "0x06e01cb086fea9c644a2c105a9f20cfc21a526e8",
        "gas": "0xb83e",
        "value": "0x0",
        "input": "0xca5eb5e1000000000000000000000000d7e22951de7af453aac5400d6e072e3b63beb7e2",
        "nonce": "0x83",
        "chainId": "0x1"
      },
      "additionalContracts": [],
      "isFixedGasLimit": false
    },
    {
      "hash": "0xc4b2897718992fafa6d8103e8bba0c5d7465caebaa146a5c62809c3d0961d4a5",
      "transactionType": "CALL",
      "contractName": null,
      "contractAddress": "0x06e01cb086fea9c644a2c105a9f20cfc21a526e8",
      "function": "transferOwnership(address)",
      "arguments": ["0xd7E22951DE7aF453aAc5400d6E072E3b63BeB7E2"],
      "transaction": {
        "from": "0xb2105464215716e1445367bea5668f581ef7d063",
        "to": "0x06e01cb086fea9c644a2c105a9f20cfc21a526e8",
        "gas": "0x9cb9",
        "value": "0x0",
        "input": "0xf2fde38b000000000000000000000000d7e22951de7af453aac5400d6e072e3b63beb7e2",
        "nonce": "0x84",
        "chainId": "0x1"
      },
      "additionalContracts": [],
      "isFixedGasLimit": false
    },
    {
      "hash": "0x087c1984a56276db6468227b6f8d99375322c1f01d261d5f9f70f6f39b7f7bc0",
      "transactionType": "CALL",
      "contractName": null,
      "contractAddress": "0xa55688c280e725704cfe8ea30ed33fe5b91ce6a4",
      "function": "setDelegate(address)",
      "arguments": ["0xd7E22951DE7aF453aAc5400d6E072E3b63BeB7E2"],
      "transaction": {
        "from": "0xb2105464215716e1445367bea5668f581ef7d063",
        "to": "0xa55688c280e725704cfe8ea30ed33fe5b91ce6a4",
        "gas": "0xb83e",
        "value": "0x0",
        "input": "0xca5eb5e1000000000000000000000000d7e22951de7af453aac5400d6e072e3b63beb7e2",
        "nonce": "0x85",
        "chainId": "0x1"
      },
      "additionalContracts": [],
      "isFixedGasLimit": false
    },
    {
      "hash": "0x862995258ff785789f92821fbb9157f0c3ed44c4b45f370638c588d35eb3dd31",
      "transactionType": "CALL",
      "contractName": null,
      "contractAddress": "0xa55688c280e725704cfe8ea30ed33fe5b91ce6a4",
      "function": "transferOwnership(address)",
      "arguments": ["0xd7E22951DE7aF453aAc5400d6E072E3b63BeB7E2"],
      "transaction": {
        "from": "0xb2105464215716e1445367bea5668f581ef7d063",
        "to": "0xa55688c280e725704cfe8ea30ed33fe5b91ce6a4",
        "gas": "0x9cb9",
        "value": "0x0",
        "input": "0xf2fde38b000000000000000000000000d7e22951de7af453aac5400d6e072e3b63beb7e2",
        "nonce": "0x86",
        "chainId": "0x1"
      },
      "additionalContracts": [],
      "isFixedGasLimit": false
    }
  ],
  "receipts": [
    {
      "status": "0x1",
      "cumulativeGasUsed": "0xa72dc1",
      "logs": [
        {
          "address": "0x1a44076050125825900e736c501f859c50fe728c",
          "topics": [
            "0x6ee10e9ed4d6ce9742703a498707862f4b00f1396a87195eb93267b3d7983981"
          ],
          "data": "0x000000000000000000000000c209a627a7b0a19f16a963d9f7281667a2d9eff2000000000000000000000000d7e22951de7af453aac5400d6e072e3b63beb7e2",
          "blockHash": "0x5341ccdc05d86b789f980082fa77ba2f914a4d0ecc6a11aaef14bbf113b32144",
          "blockNumber": "0x14feb28",
          "transactionHash": "0x591ed4441b946b60a3d8fd01241184b9f79d05e3e189d033276b054a572fd12d",
          "transactionIndex": "0x6e",
          "logIndex": "0x252",
          "removed": false
        }
      ],
      "logsBloom": "0x00000000000000000000000000000000000000000000000000800000001000000000000000000000000000000000000000000002000000000000000000000000000000000000000000000000000000000000000000000000000000000000000000000000000000000000000000000000000000000010000000000000000000000000000000000000000000000000000000000000000000000000000000000000000000000000000000000000000000000000000000000000000000000000000400000000000000000000000000000000000000000000000000000000000000000000000000000000000000000000000000000000010000000000000000000000",
      "type": "0x2",
      "transactionHash": "0x591ed4441b946b60a3d8fd01241184b9f79d05e3e189d033276b054a572fd12d",
      "transactionIndex": "0x6e",
      "blockHash": "0x5341ccdc05d86b789f980082fa77ba2f914a4d0ecc6a11aaef14bbf113b32144",
      "blockNumber": "0x14feb28",
      "gasUsed": "0x8564",
      "effectiveGasPrice": "0x20e2b0cb",
      "from": "0xb2105464215716e1445367bea5668f581ef7d063",
      "to": "0xc209a627a7b0a19f16a963d9f7281667a2d9eff2",
      "contractAddress": null
    },
    {
      "status": "0x1",
      "cumulativeGasUsed": "0xa79f39",
      "logs": [
        {
          "address": "0xc209a627a7b0a19f16a963d9f7281667a2d9eff2",
          "topics": [
            "0x8be0079c531659141344cd1fd0a4f28419497f9722a3daafe3b4186f6b6457e0",
            "0x000000000000000000000000b2105464215716e1445367bea5668f581ef7d063",
            "0x000000000000000000000000d7e22951de7af453aac5400d6e072e3b63beb7e2"
          ],
          "data": "0x",
          "blockHash": "0x5341ccdc05d86b789f980082fa77ba2f914a4d0ecc6a11aaef14bbf113b32144",
          "blockNumber": "0x14feb28",
          "transactionHash": "0x9aa017feb5bb32342401a082c154f996f7cd19bf7d0a1d82837f03b9ac36267c",
          "transactionIndex": "0x6f",
          "logIndex": "0x253",
          "removed": false
        }
      ],
      "logsBloom": "0x00000000000000000004000000000000000000000000000000800000000000000000000000000000000000000000000000000000000000000000000000000000000000000000000000000000000000000001001004000000000000000000000000000000000000000000000000000000000000000000000000000000000000400000008000000000000000000000200000000000000000000000000000000000000000000000000000000000000000000000000000000010000000000010000000000000000000000000000000000000000080000000000000400000000000000000000000000000000000000000000000000000000000000000000000000000",
      "type": "0x2",
      "transactionHash": "0x9aa017feb5bb32342401a082c154f996f7cd19bf7d0a1d82837f03b9ac36267c",
      "transactionIndex": "0x6f",
      "blockHash": "0x5341ccdc05d86b789f980082fa77ba2f914a4d0ecc6a11aaef14bbf113b32144",
      "blockNumber": "0x14feb28",
      "gasUsed": "0x7178",
      "effectiveGasPrice": "0x20e2b0cb",
      "from": "0xb2105464215716e1445367bea5668f581ef7d063",
      "to": "0xc209a627a7b0a19f16a963d9f7281667a2d9eff2",
      "contractAddress": null
    },
    {
      "status": "0x1",
      "cumulativeGasUsed": "0xa8249d",
      "logs": [
        {
          "address": "0x1a44076050125825900e736c501f859c50fe728c",
          "topics": [
            "0x6ee10e9ed4d6ce9742703a498707862f4b00f1396a87195eb93267b3d7983981"
          ],
          "data": "0x0000000000000000000000005e87d7e75b272fb7150b4d1a05afb6bd71474950000000000000000000000000d7e22951de7af453aac5400d6e072e3b63beb7e2",
          "blockHash": "0x5341ccdc05d86b789f980082fa77ba2f914a4d0ecc6a11aaef14bbf113b32144",
          "blockNumber": "0x14feb28",
          "transactionHash": "0x06cd3710d95725f2646646c7e21bb95a62a34037bdfa1815f60071ec41285feb",
          "transactionIndex": "0x70",
          "logIndex": "0x254",
          "removed": false
        }
      ],
      "logsBloom": "0x00000000000000000000000000000000000000000000000000800000001000000000000000000000000000000000000000000002000000000000000000000000000000000000000000000000000000000000000000000000000000000000000000000000000000000000000000000000000000000010000000000000000000000000000000000000000000000000000000000000000000000000000000000000000000000000000000000000000000000000000000000000000000000000000400000000000000000000000000000000000000000000000000000000000000000000000000000000000000000000000000000000010000000000000000000000",
      "type": "0x2",
      "transactionHash": "0x06cd3710d95725f2646646c7e21bb95a62a34037bdfa1815f60071ec41285feb",
      "transactionIndex": "0x70",
      "blockHash": "0x5341ccdc05d86b789f980082fa77ba2f914a4d0ecc6a11aaef14bbf113b32144",
      "blockNumber": "0x14feb28",
      "gasUsed": "0x8564",
      "effectiveGasPrice": "0x20e2b0cb",
      "from": "0xb2105464215716e1445367bea5668f581ef7d063",
      "to": "0x5e87d7e75b272fb7150b4d1a05afb6bd71474950",
      "contractAddress": null
    },
    {
      "status": "0x1",
      "cumulativeGasUsed": "0xa89615",
      "logs": [
        {
          "address": "0x5e87d7e75b272fb7150b4d1a05afb6bd71474950",
          "topics": [
            "0x8be0079c531659141344cd1fd0a4f28419497f9722a3daafe3b4186f6b6457e0",
            "0x000000000000000000000000b2105464215716e1445367bea5668f581ef7d063",
            "0x000000000000000000000000d7e22951de7af453aac5400d6e072e3b63beb7e2"
          ],
          "data": "0x",
          "blockHash": "0x5341ccdc05d86b789f980082fa77ba2f914a4d0ecc6a11aaef14bbf113b32144",
          "blockNumber": "0x14feb28",
          "transactionHash": "0xe30998edd47c536770a3dc6ef2be0b6fccb27450bbbabb2fc3995ec7e8b68191",
          "transactionIndex": "0x71",
          "logIndex": "0x255",
          "removed": false
        }
      ],
      "logsBloom": "0x00000000000000000000000000000000000000000000000000800000000000000000000000000000000000000000000000000000000000000000000000000000000000000000000000000000000000000001001004000000000000000020000000000000000000000000000000000000000000000000000000000000000000400000108000000000000000000000200000000000000000000000000000000000000000000000000000000000000000000000000000000010000000000000000000000000000000000000000000000000000080000000000000000000000000000000000000000000000000000000000000000800000000000000000000000000",
      "type": "0x2",
      "transactionHash": "0xe30998edd47c536770a3dc6ef2be0b6fccb27450bbbabb2fc3995ec7e8b68191",
      "transactionIndex": "0x71",
      "blockHash": "0x5341ccdc05d86b789f980082fa77ba2f914a4d0ecc6a11aaef14bbf113b32144",
      "blockNumber": "0x14feb28",
      "gasUsed": "0x7178",
      "effectiveGasPrice": "0x20e2b0cb",
      "from": "0xb2105464215716e1445367bea5668f581ef7d063",
      "to": "0x5e87d7e75b272fb7150b4d1a05afb6bd71474950",
      "contractAddress": null
    },
    {
      "status": "0x1",
      "cumulativeGasUsed": "0xa91b79",
      "logs": [
        {
          "address": "0x1a44076050125825900e736c501f859c50fe728c",
          "topics": [
            "0x6ee10e9ed4d6ce9742703a498707862f4b00f1396a87195eb93267b3d7983981"
          ],
          "data": "0x00000000000000000000000006e01cb086fea9c644a2c105a9f20cfc21a526e8000000000000000000000000d7e22951de7af453aac5400d6e072e3b63beb7e2",
          "blockHash": "0x5341ccdc05d86b789f980082fa77ba2f914a4d0ecc6a11aaef14bbf113b32144",
          "blockNumber": "0x14feb28",
          "transactionHash": "0xf69edb640c5010ee2d1ab2829ff595a568717e6145e3caedf33a1c875bc9a264",
          "transactionIndex": "0x72",
          "logIndex": "0x256",
          "removed": false
        }
      ],
      "logsBloom": "0x00000000000000000000000000000000000000000000000000800000001000000000000000000000000000000000000000000002000000000000000000000000000000000000000000000000000000000000000000000000000000000000000000000000000000000000000000000000000000000010000000000000000000000000000000000000000000000000000000000000000000000000000000000000000000000000000000000000000000000000000000000000000000000000000400000000000000000000000000000000000000000000000000000000000000000000000000000000000000000000000000000000010000000000000000000000",
      "type": "0x2",
      "transactionHash": "0xf69edb640c5010ee2d1ab2829ff595a568717e6145e3caedf33a1c875bc9a264",
      "transactionIndex": "0x72",
      "blockHash": "0x5341ccdc05d86b789f980082fa77ba2f914a4d0ecc6a11aaef14bbf113b32144",
      "blockNumber": "0x14feb28",
      "gasUsed": "0x8564",
      "effectiveGasPrice": "0x20e2b0cb",
      "from": "0xb2105464215716e1445367bea5668f581ef7d063",
      "to": "0x06e01cb086fea9c644a2c105a9f20cfc21a526e8",
      "contractAddress": null
    },
    {
      "status": "0x1",
      "cumulativeGasUsed": "0xa98cf1",
      "logs": [
        {
          "address": "0x06e01cb086fea9c644a2c105a9f20cfc21a526e8",
          "topics": [
            "0x8be0079c531659141344cd1fd0a4f28419497f9722a3daafe3b4186f6b6457e0",
            "0x000000000000000000000000b2105464215716e1445367bea5668f581ef7d063",
            "0x000000000000000000000000d7e22951de7af453aac5400d6e072e3b63beb7e2"
          ],
          "data": "0x",
          "blockHash": "0x5341ccdc05d86b789f980082fa77ba2f914a4d0ecc6a11aaef14bbf113b32144",
          "blockNumber": "0x14feb28",
          "transactionHash": "0xc4b2897718992fafa6d8103e8bba0c5d7465caebaa146a5c62809c3d0961d4a5",
          "transactionIndex": "0x73",
          "logIndex": "0x257",
          "removed": false
        }
      ],
      "logsBloom": "0x00000000000000000000000000000000000000000004000000800000000000000000000000000000000000000000000000000000000000000000000000000000000000000000000000000000000000000001001004000000000000000000000000000000000000000000000000000000000000000000000000000000000000400000008000800000000000000800200000000000000000000000000000000000000000000000000000000000000000000000000000000010000000000000000000000000000000000000000000000000000080000000000000000000000000000000000000000000000000000000000000000000000000000000000000000000",
      "type": "0x2",
      "transactionHash": "0xc4b2897718992fafa6d8103e8bba0c5d7465caebaa146a5c62809c3d0961d4a5",
      "transactionIndex": "0x73",
      "blockHash": "0x5341ccdc05d86b789f980082fa77ba2f914a4d0ecc6a11aaef14bbf113b32144",
      "blockNumber": "0x14feb28",
      "gasUsed": "0x7178",
      "effectiveGasPrice": "0x20e2b0cb",
      "from": "0xb2105464215716e1445367bea5668f581ef7d063",
      "to": "0x06e01cb086fea9c644a2c105a9f20cfc21a526e8",
      "contractAddress": null
    },
    {
      "status": "0x1",
      "cumulativeGasUsed": "0xaa1255",
      "logs": [
        {
          "address": "0x1a44076050125825900e736c501f859c50fe728c",
          "topics": [
            "0x6ee10e9ed4d6ce9742703a498707862f4b00f1396a87195eb93267b3d7983981"
          ],
          "data": "0x000000000000000000000000a55688c280e725704cfe8ea30ed33fe5b91ce6a4000000000000000000000000d7e22951de7af453aac5400d6e072e3b63beb7e2",
          "blockHash": "0x5341ccdc05d86b789f980082fa77ba2f914a4d0ecc6a11aaef14bbf113b32144",
          "blockNumber": "0x14feb28",
          "transactionHash": "0x087c1984a56276db6468227b6f8d99375322c1f01d261d5f9f70f6f39b7f7bc0",
          "transactionIndex": "0x74",
          "logIndex": "0x258",
          "removed": false
        }
      ],
      "logsBloom": "0x00000000000000000000000000000000000000000000000000800000001000000000000000000000000000000000000000000002000000000000000000000000000000000000000000000000000000000000000000000000000000000000000000000000000000000000000000000000000000000010000000000000000000000000000000000000000000000000000000000000000000000000000000000000000000000000000000000000000000000000000000000000000000000000000400000000000000000000000000000000000000000000000000000000000000000000000000000000000000000000000000000000010000000000000000000000",
      "type": "0x2",
      "transactionHash": "0x087c1984a56276db6468227b6f8d99375322c1f01d261d5f9f70f6f39b7f7bc0",
      "transactionIndex": "0x74",
      "blockHash": "0x5341ccdc05d86b789f980082fa77ba2f914a4d0ecc6a11aaef14bbf113b32144",
      "blockNumber": "0x14feb28",
      "gasUsed": "0x8564",
      "effectiveGasPrice": "0x20e2b0cb",
      "from": "0xb2105464215716e1445367bea5668f581ef7d063",
      "to": "0xa55688c280e725704cfe8ea30ed33fe5b91ce6a4",
      "contractAddress": null
    },
    {
      "status": "0x1",
      "cumulativeGasUsed": "0xaa83cd",
      "logs": [
        {
          "address": "0xa55688c280e725704cfe8ea30ed33fe5b91ce6a4",
          "topics": [
            "0x8be0079c531659141344cd1fd0a4f28419497f9722a3daafe3b4186f6b6457e0",
            "0x000000000000000000000000b2105464215716e1445367bea5668f581ef7d063",
            "0x000000000000000000000000d7e22951de7af453aac5400d6e072e3b63beb7e2"
          ],
          "data": "0x",
          "blockHash": "0x5341ccdc05d86b789f980082fa77ba2f914a4d0ecc6a11aaef14bbf113b32144",
          "blockNumber": "0x14feb28",
          "transactionHash": "0x862995258ff785789f92821fbb9157f0c3ed44c4b45f370638c588d35eb3dd31",
          "transactionIndex": "0x75",
          "logIndex": "0x259",
          "removed": false
        }
      ],
      "logsBloom": "0x00000000000000000000000000000000000000000000000000800000000000000000000000000000000000000000000000000000000000000000000000000000000000000000000000000000000000000001001004000000000000000000000000000000000000000000000000000000000000000000000000000000000000400000008000000000000000000000200000000000000000000000000000000000000000000000000000000000000000000000000000000010000004000000000000000000000000000000000000000000000080000000000000000000004000004000000000000000000000000000000000000000000000000000000000000000",
      "type": "0x2",
      "transactionHash": "0x862995258ff785789f92821fbb9157f0c3ed44c4b45f370638c588d35eb3dd31",
      "transactionIndex": "0x75",
      "blockHash": "0x5341ccdc05d86b789f980082fa77ba2f914a4d0ecc6a11aaef14bbf113b32144",
      "blockNumber": "0x14feb28",
      "gasUsed": "0x7178",
      "effectiveGasPrice": "0x20e2b0cb",
      "from": "0xb2105464215716e1445367bea5668f581ef7d063",
      "to": "0xa55688c280e725704cfe8ea30ed33fe5b91ce6a4",
      "contractAddress": null
    }
  ],
  "libraries": [],
  "pending": [],
  "returns": {},
  "timestamp": 1741589073,
  "chain": 1,
  "commit": "32717383"
}
