{
  "transactions": [
    {
      "hash": "0xee8b1daaf3fa21402ec4b02be58337a06cb6567f1242602d9aa04bdafd10190d",
      "transactionType": "CALL",
      "contractName": null,
      "contractAddress": "0xf1df43a3053cd18e477233b59a25fc483c2cbe0f",
      "function": "setRateLimits((uint32,uint256,uint256)[])",
      "arguments": ["[(30325, 10000000000, 86400), (30101, 0, 86400)]"],
      "transaction": {
        "from": "0xb2105464215716e1445367bea5668f581ef7d063",
        "to": "0xf1df43a3053cd18e477233b59a25fc483c2cbe0f",
        "gas": "0x32ea9",
        "value": "0x0",
        "input": "0x46f943e900000000000000000000000000000000000000000000000000000000000000200000000000000000000000000000000000000000000000000000000000000002000000000000000000000000000000000000000000000000000000000000767500000000000000000000000000000000000000000000000000000002540be4000000000000000000000000000000000000000000000000000000000000015180000000000000000000000000000000000000000000000000000000000000759500000000000000000000000000000000000000000000000000000000000000000000000000000000000000000000000000000000000000000000000000015180",
        "nonce": "0x21",
        "chainId": "0x1"
      },
      "additionalContracts": [],
      "isFixedGasLimit": false
    },
    {
      "hash": "0xb1c57c32c87b8e06128b9bc8955a6b6212cd529d2eb349a66bc4c3a22712bb45",
      "transactionType": "CALL",
      "contractName": null,
      "contractAddress": "0xf1df43a3053cd18e477233b59a25fc483c2cbe0f",
      "function": "setPeer(uint32,bytes32)",
      "arguments": [
        "30325",
        "0x4fe77e45fb74af1ce4f6e90f5d1c9b68ec68e8693eb8401dc09943f23764a3cd"
      ],
      "transaction": {
        "from": "0xb2105464215716e1445367bea5668f581ef7d063",
        "to": "0xf1df43a3053cd18e477233b59a25fc483c2cbe0f",
        "gas": "0x1056d",
        "value": "0x0",
        "input": "0x3400288b00000000000000000000000000000000000000000000000000000000000076754fe77e45fb74af1ce4f6e90f5d1c9b68ec68e8693eb8401dc09943f23764a3cd",
        "nonce": "0x22",
        "chainId": "0x1"
      },
      "additionalContracts": [],
      "isFixedGasLimit": false
    },
    {
      "hash": null,
      "transactionType": "CALL",
      "contractName": null,
      "contractAddress": "0xf1df43a3053cd18e477233b59a25fc483c2cbe0f",
      "function": "setEnforcedOptions((uint32,uint16,bytes)[])",
      "arguments": [
        "[(30325, 1, 0x00030100110100000000000000000000000000030d40), (30325, 2, 0x00030100110100000000000000000000000000030d40)]"
      ],
      "transaction": {
        "from": "0xb2105464215716e1445367bea5668f581ef7d063",
        "to": "0xf1df43a3053cd18e477233b59a25fc483c2cbe0f",
        "gas": "0x1bd63",
        "value": "0x0",
        "input": "0xb98bd07000000000000000000000000000000000000000000000000000000000000000200000000000000000000000000000000000000000000000000000000000000002000000000000000000000000000000000000000000000000000000000000004000000000000000000000000000000000000000000000000000000000000000e0000000000000000000000000000000000000000000000000000000000000767500000000000000000000000000000000000000000000000000000000000000010000000000000000000000000000000000000000000000000000000000000060000000000000000000000000000000000000000000000000000000000000001600030100110100000000000000000000000000030d4000000000000000000000000000000000000000000000000000000000000000000000000000000000767500000000000000000000000000000000000000000000000000000000000000020000000000000000000000000000000000000000000000000000000000000060000000000000000000000000000000000000000000000000000000000000001600030100110100000000000000000000000000030d4000000000000000000000",
        "nonce": "0x23",
        "chainId": "0x1"
      },
      "additionalContracts": [],
      "isFixedGasLimit": false
    }
  ],
  "receipts": [],
  "libraries": [],
  "pending": [
    "0xee8b1daaf3fa21402ec4b02be58337a06cb6567f1242602d9aa04bdafd10190d",
    "0xb1c57c32c87b8e06128b9bc8955a6b6212cd529d2eb349a66bc4c3a22712bb45"
  ],
  "returns": {},
  "timestamp": 1741066552,
  "chain": 1,
  "commit": "aba26369"
}
