{
  "transactions": [
    {
      "hash": "0xc95d9405ba79b8b1cacd7078126e065c8086a944193942a361c206041c83ee91",
      "transactionType": "CALL",
      "contractName": null,
      "contractAddress": "0xf1df43a3053cd18e477233b59a25fc483c2cbe0f",
      "function": "setEnforcedOptions((uint32,uint16,bytes)[])",
      "arguments": [
        "[(30325, 1, 0x00030100110100000000000000000000000000030d40), (30325, 2, 0x00030100110100000000000000000000000000030d40)]"
      ],
      "transaction": {
        "from": "0xb2105464215716e1445367bea5668f581ef7d063",
        "to": "0xf1df43a3053cd18e477233b59a25fc483c2cbe0f",
        "gas": "0x1bd63",
        "value": "0x0",
        "input": "0xb98bd07000000000000000000000000000000000000000000000000000000000000000200000000000000000000000000000000000000000000000000000000000000002000000000000000000000000000000000000000000000000000000000000004000000000000000000000000000000000000000000000000000000000000000e0000000000000000000000000000000000000000000000000000000000000767500000000000000000000000000000000000000000000000000000000000000010000000000000000000000000000000000000000000000000000000000000060000000000000000000000000000000000000000000000000000000000000001600030100110100000000000000000000000000030d4000000000000000000000000000000000000000000000000000000000000000000000000000000000767500000000000000000000000000000000000000000000000000000000000000020000000000000000000000000000000000000000000000000000000000000060000000000000000000000000000000000000000000000000000000000000001600030100110100000000000000000000000000030d4000000000000000000000",
        "nonce": "0x23",
        "chainId": "0x1"
      },
      "additionalContracts": [],
      "isFixedGasLimit": false
    }
  ],
  "receipts": [
    {
      "status": "0x1",
      "cumulativeGasUsed": "0xa0d83e",
      "logs": [
        {
          "address": "0xf1df43a3053cd18e477233b59a25fc483c2cbe0f",
          "topics": [
            "0xbe4864a8e820971c0247f5992e2da559595f7bf076a21cb5928d443d2a13b674"
          ],
          "data": "0x00000000000000000000000000000000000000000000000000000000000000200000000000000000000000000000000000000000000000000000000000000002000000000000000000000000000000000000000000000000000000000000004000000000000000000000000000000000000000000000000000000000000000e0000000000000000000000000000000000000000000000000000000000000767500000000000000000000000000000000000000000000000000000000000000010000000000000000000000000000000000000000000000000000000000000060000000000000000000000000000000000000000000000000000000000000001600030100110100000000000000000000000000030d4000000000000000000000000000000000000000000000000000000000000000000000000000000000767500000000000000000000000000000000000000000000000000000000000000020000000000000000000000000000000000000000000000000000000000000060000000000000000000000000000000000000000000000000000000000000001600030100110100000000000000000000000000030d4000000000000000000000",
          "blockHash": "0x473949934ba24633cbc10e0fe0e48c4e068b1bad2a70f45e15f67cf6474bd67d",
          "blockNumber": "0x14f4219",
          "transactionHash": "0xc95d9405ba79b8b1cacd7078126e065c8086a944193942a361c206041c83ee91",
          "transactionIndex": "0x7c",
          "logIndex": "0xfc",
          "removed": false
        }
      ],
      "logsBloom": "0x00000000000000000000000000000000000000000000000000000000000000000000002000000000000000000000000000000000000000004000400000000000000000000000000000000000000000000000000000000000000000000000000000000000000000000000000000000000000000000000000000000000000000000000100000000000000000000000000000000000000000000000000000080000000000000000000000000000000000000000000000000000000000000000000000000000000000000000000002000000000000000000000000000000000000000000000000000000000000000000000000000000000000000000000000000000",
      "type": "0x2",
      "transactionHash": "0xc95d9405ba79b8b1cacd7078126e065c8086a944193942a361c206041c83ee91",
      "transactionIndex": "0x7c",
      "blockHash": "0x473949934ba24633cbc10e0fe0e48c4e068b1bad2a70f45e15f67cf6474bd67d",
      "blockNumber": "0x14f4219",
      "gasUsed": "0x14274",
      "effectiveGasPrice": "0x294a0de6",
      "from": "0xb2105464215716e1445367bea5668f581ef7d063",
      "to": "0xf1df43a3053cd18e477233b59a25fc483c2cbe0f",
      "contractAddress": null
    }
  ],
  "libraries": [],
  "pending": [],
  "returns": {},
  "timestamp": 1741066646,
  "chain": 1,
  "commit": "aba26369"
}
