{
  "transactions": [
    {
      "hash": "0xc0e90eb47e807da04a5747c4df442837f45781a5379480cc85e940dcbdcdf2e5",
      "transactionType": "CALL",
      "contractName": null,
      "contractAddress": "0x1a44076050125825900e736c501f859c50fe728c",
      "function": "setConfig(address,address,(uint32,uint32,bytes)[])",
      "arguments": [
        "0x5e87D7e75B272fb7150B4d1a05afb6Bd71474950",
        "0xbB2Ea70C9E858123480642Cf96acbcCE1372dCe1",
        "[(30325, 1, 0x0000000000000000000000000000000000000000000000000000000000000000000000000000000000000000173272739bd7aa6e4e214714048a9fe699453059), (30325, 2, 0x0000000000000000000000000000000000000000000000000000000000000020000000000000000000000000000000000000000000000000000000000000000000000000000000000000000000000000000000000000000000000000000000030000000000000000000000000000000000000000000000000000000000000000000000000000000000000000000000000000000000000000000000000000000000000000000000000000000000000000000000000000000000000000000000c00000000000000000000000000000000000000000000000000000000000000140000000000000000000000000000000000000000000000000000000000000000300000000000000000000000006559ee34d85a88317bf0bfe307444116c631b67000000000000000000000000380275805876ff19055ea900cdb2b46a94ecf20d000000000000000000000000589dedbd617e0cbcb916a9223f4d1300c294236b0000000000000000000000000000000000000000000000000000000000000000)]"
      ],
      "transaction": {
        "from": "0xb2105464215716e1445367bea5668f581ef7d063",
        "to": "0x1a44076050125825900e736c501f859c50fe728c",
        "gas": "0x43eb0",
        "value": "0x0",
        "input": "0x6dbd9f900000000000000000000000005e87d7e75b272fb7150b4d1a05afb6bd71474950000000000000000000000000bb2ea70c9e858123480642cf96acbcce1372dce1000000000000000000000000000000000000000000000000000000000000006000000000000000000000000000000000000000000000000000000000000000020000000000000000000000000000000000000000000000000000000000000040000000000000000000000000000000000000000000000000000000000000010000000000000000000000000000000000000000000000000000000000000076750000000000000000000000000000000000000000000000000000000000000001000000000000000000000000000000000000000000000000000000000000006000000000000000000000000000000000000000000000000000000000000000400000000000000000000000000000000000000000000000000000000000000000000000000000000000000000173272739bd7aa6e4e214714048a9fe69945305900000000000000000000000000000000000000000000000000000000000076750000000000000000000000000000000000000000000000000000000000000002000000000000000000000000000000000000000000000000000000000000006000000000000000000000000000000000000000000000000000000000000001800000000000000000000000000000000000000000000000000000000000000020000000000000000000000000000000000000000000000000000000000000000000000000000000000000000000000000000000000000000000000000000000030000000000000000000000000000000000000000000000000000000000000000000000000000000000000000000000000000000000000000000000000000000000000000000000000000000000000000000000000000000000000000000000c00000000000000000000000000000000000000000000000000000000000000140000000000000000000000000000000000000000000000000000000000000000300000000000000000000000006559ee34d85a88317bf0bfe307444116c631b67000000000000000000000000380275805876ff19055ea900cdb2b46a94ecf20d000000000000000000000000589dedbd617e0cbcb916a9223f4d1300c294236b0000000000000000000000000000000000000000000000000000000000000000",
        "nonce": "0x4e",
        "chainId": "0x1"
      },
      "additionalContracts": [],
      "isFixedGasLimit": false
    },
    {
      "hash": "0x8a4594aa8f09e21ea94b984a0a51be089ffb1ccc8c8fbdd41e7b55d7e56dcaa6",
      "transactionType": "CALL",
      "contractName": null,
      "contractAddress": "0x1a44076050125825900e736c501f859c50fe728c",
      "function": "setSendLibrary(address,uint32,address)",
      "arguments": [
        "0x5e87D7e75B272fb7150B4d1a05afb6Bd71474950",
        "30325",
        "0xbB2Ea70C9E858123480642Cf96acbcCE1372dCe1"
      ],
      "transaction": {
        "from": "0xb2105464215716e1445367bea5668f581ef7d063",
        "to": "0x1a44076050125825900e736c501f859c50fe728c",
        "gas": "0x1378b",
        "value": "0x0",
        "input": "0x9535ff300000000000000000000000005e87d7e75b272fb7150b4d1a05afb6bd714749500000000000000000000000000000000000000000000000000000000000007675000000000000000000000000bb2ea70c9e858123480642cf96acbcce1372dce1",
        "nonce": "0x4f",
        "chainId": "0x1"
      },
      "additionalContracts": [],
      "isFixedGasLimit": false
    },
    {
      "hash": "0x16d9ed01f41676d2a2354751e8321c625274f6b3fdbd76a5f2b457fad4f7da91",
      "transactionType": "CALL",
      "contractName": null,
      "contractAddress": "0x1a44076050125825900e736c501f859c50fe728c",
      "function": "setReceiveLibrary(address,uint32,address,uint256)",
      "arguments": [
        "0x5e87D7e75B272fb7150B4d1a05afb6Bd71474950",
        "30325",
        "0xc02Ab410f0734EFa3F14628780e6e695156024C2",
        "0"
      ],
      "transaction": {
        "from": "0xb2105464215716e1445367bea5668f581ef7d063",
        "to": "0x1a44076050125825900e736c501f859c50fe728c",
        "gas": "0x17001",
        "value": "0x0",
        "input": "0x6a14d7150000000000000000000000005e87d7e75b272fb7150b4d1a05afb6bd714749500000000000000000000000000000000000000000000000000000000000007675000000000000000000000000c02ab410f0734efa3f14628780e6e695156024c20000000000000000000000000000000000000000000000000000000000000000",
        "nonce": "0x50",
        "chainId": "0x1"
      },
      "additionalContracts": [],
      "isFixedGasLimit": false
    },
    {
      "hash": "0x5715b3822fd197b83e12324920c8ae10b7fbb992cd16de913f06ffae29f45758",
      "transactionType": "CALL",
      "contractName": null,
      "contractAddress": "0x1a44076050125825900e736c501f859c50fe728c",
      "function": "setConfig(address,address,(uint32,uint32,bytes)[])",
      "arguments": [
        "0x06E01cB086fea9C644a2C105A9F20cfC21A526e8",
        "0xbB2Ea70C9E858123480642Cf96acbcCE1372dCe1",
        "[(30325, 1, 0x0000000000000000000000000000000000000000000000000000000000000000000000000000000000000000173272739bd7aa6e4e214714048a9fe699453059), (30325, 2, 0x0000000000000000000000000000000000000000000000000000000000000020000000000000000000000000000000000000000000000000000000000000000000000000000000000000000000000000000000000000000000000000000000030000000000000000000000000000000000000000000000000000000000000000000000000000000000000000000000000000000000000000000000000000000000000000000000000000000000000000000000000000000000000000000000c00000000000000000000000000000000000000000000000000000000000000140000000000000000000000000000000000000000000000000000000000000000300000000000000000000000006559ee34d85a88317bf0bfe307444116c631b67000000000000000000000000380275805876ff19055ea900cdb2b46a94ecf20d000000000000000000000000589dedbd617e0cbcb916a9223f4d1300c294236b0000000000000000000000000000000000000000000000000000000000000000)]"
      ],
      "transaction": {
        "from": "0xb2105464215716e1445367bea5668f581ef7d063",
        "to": "0x1a44076050125825900e736c501f859c50fe728c",
        "gas": "0x43eb0",
        "value": "0x0",
        "input": "0x6dbd9f9000000000000000000000000006e01cb086fea9c644a2c105a9f20cfc21a526e8000000000000000000000000bb2ea70c9e858123480642cf96acbcce1372dce1000000000000000000000000000000000000000000000000000000000000006000000000000000000000000000000000000000000000000000000000000000020000000000000000000000000000000000000000000000000000000000000040000000000000000000000000000000000000000000000000000000000000010000000000000000000000000000000000000000000000000000000000000076750000000000000000000000000000000000000000000000000000000000000001000000000000000000000000000000000000000000000000000000000000006000000000000000000000000000000000000000000000000000000000000000400000000000000000000000000000000000000000000000000000000000000000000000000000000000000000173272739bd7aa6e4e214714048a9fe69945305900000000000000000000000000000000000000000000000000000000000076750000000000000000000000000000000000000000000000000000000000000002000000000000000000000000000000000000000000000000000000000000006000000000000000000000000000000000000000000000000000000000000001800000000000000000000000000000000000000000000000000000000000000020000000000000000000000000000000000000000000000000000000000000000000000000000000000000000000000000000000000000000000000000000000030000000000000000000000000000000000000000000000000000000000000000000000000000000000000000000000000000000000000000000000000000000000000000000000000000000000000000000000000000000000000000000000c00000000000000000000000000000000000000000000000000000000000000140000000000000000000000000000000000000000000000000000000000000000300000000000000000000000006559ee34d85a88317bf0bfe307444116c631b67000000000000000000000000380275805876ff19055ea900cdb2b46a94ecf20d000000000000000000000000589dedbd617e0cbcb916a9223f4d1300c294236b0000000000000000000000000000000000000000000000000000000000000000",
        "nonce": "0x51",
        "chainId": "0x1"
      },
      "additionalContracts": [],
      "isFixedGasLimit": false
    },
    {
      "hash": "0x2f00056c4f0419a1ad9cbd1e04cb5b86a41e992aac5fa739743db6644fd7a45d",
      "transactionType": "CALL",
      "contractName": null,
      "contractAddress": "0x1a44076050125825900e736c501f859c50fe728c",
      "function": "setSendLibrary(address,uint32,address)",
      "arguments": [
        "0x06E01cB086fea9C644a2C105A9F20cfC21A526e8",
        "30325",
        "0xbB2Ea70C9E858123480642Cf96acbcCE1372dCe1"
      ],
      "transaction": {
        "from": "0xb2105464215716e1445367bea5668f581ef7d063",
        "to": "0x1a44076050125825900e736c501f859c50fe728c",
        "gas": "0x1378b",
        "value": "0x0",
        "input": "0x9535ff3000000000000000000000000006e01cb086fea9c644a2c105a9f20cfc21a526e80000000000000000000000000000000000000000000000000000000000007675000000000000000000000000bb2ea70c9e858123480642cf96acbcce1372dce1",
        "nonce": "0x52",
        "chainId": "0x1"
      },
      "additionalContracts": [],
      "isFixedGasLimit": false
    },
    {
      "hash": "0x3d0ed8de66de53cd438c8ffa0670eb90c1c825e66a072598e2fc36f5ca744c37",
      "transactionType": "CALL",
      "contractName": null,
      "contractAddress": "0x1a44076050125825900e736c501f859c50fe728c",
      "function": "setReceiveLibrary(address,uint32,address,uint256)",
      "arguments": [
        "0x06E01cB086fea9C644a2C105A9F20cfC21A526e8",
        "30325",
        "0xc02Ab410f0734EFa3F14628780e6e695156024C2",
        "0"
      ],
      "transaction": {
        "from": "0xb2105464215716e1445367bea5668f581ef7d063",
        "to": "0x1a44076050125825900e736c501f859c50fe728c",
        "gas": "0x17001",
        "value": "0x0",
        "input": "0x6a14d71500000000000000000000000006e01cb086fea9c644a2c105a9f20cfc21a526e80000000000000000000000000000000000000000000000000000000000007675000000000000000000000000c02ab410f0734efa3f14628780e6e695156024c20000000000000000000000000000000000000000000000000000000000000000",
        "nonce": "0x53",
        "chainId": "0x1"
      },
      "additionalContracts": [],
      "isFixedGasLimit": false
    },
    {
      "hash": "0xa500621ce19e383700c578a1fe2b24de528dba7e02a50d400ad75adbc54d3f06",
      "transactionType": "CALL",
      "contractName": null,
      "contractAddress": "0x1a44076050125825900e736c501f859c50fe728c",
      "function": "setConfig(address,address,(uint32,uint32,bytes)[])",
      "arguments": [
        "0xa55688C280E725704CFe8Ea30eD33fE5B91cE6a4",
        "0xbB2Ea70C9E858123480642Cf96acbcCE1372dCe1",
        "[(30325, 1, 0x0000000000000000000000000000000000000000000000000000000000000000000000000000000000000000173272739bd7aa6e4e214714048a9fe699453059), (30325, 2, 0x0000000000000000000000000000000000000000000000000000000000000020000000000000000000000000000000000000000000000000000000000000000000000000000000000000000000000000000000000000000000000000000000030000000000000000000000000000000000000000000000000000000000000000000000000000000000000000000000000000000000000000000000000000000000000000000000000000000000000000000000000000000000000000000000c00000000000000000000000000000000000000000000000000000000000000140000000000000000000000000000000000000000000000000000000000000000300000000000000000000000006559ee34d85a88317bf0bfe307444116c631b67000000000000000000000000380275805876ff19055ea900cdb2b46a94ecf20d000000000000000000000000589dedbd617e0cbcb916a9223f4d1300c294236b0000000000000000000000000000000000000000000000000000000000000000)]"
      ],
      "transaction": {
        "from": "0xb2105464215716e1445367bea5668f581ef7d063",
        "to": "0x1a44076050125825900e736c501f859c50fe728c",
        "gas": "0x43eb0",
        "value": "0x0",
        "input": "0x6dbd9f90000000000000000000000000a55688c280e725704cfe8ea30ed33fe5b91ce6a4000000000000000000000000bb2ea70c9e858123480642cf96acbcce1372dce1000000000000000000000000000000000000000000000000000000000000006000000000000000000000000000000000000000000000000000000000000000020000000000000000000000000000000000000000000000000000000000000040000000000000000000000000000000000000000000000000000000000000010000000000000000000000000000000000000000000000000000000000000076750000000000000000000000000000000000000000000000000000000000000001000000000000000000000000000000000000000000000000000000000000006000000000000000000000000000000000000000000000000000000000000000400000000000000000000000000000000000000000000000000000000000000000000000000000000000000000173272739bd7aa6e4e214714048a9fe69945305900000000000000000000000000000000000000000000000000000000000076750000000000000000000000000000000000000000000000000000000000000002000000000000000000000000000000000000000000000000000000000000006000000000000000000000000000000000000000000000000000000000000001800000000000000000000000000000000000000000000000000000000000000020000000000000000000000000000000000000000000000000000000000000000000000000000000000000000000000000000000000000000000000000000000030000000000000000000000000000000000000000000000000000000000000000000000000000000000000000000000000000000000000000000000000000000000000000000000000000000000000000000000000000000000000000000000c00000000000000000000000000000000000000000000000000000000000000140000000000000000000000000000000000000000000000000000000000000000300000000000000000000000006559ee34d85a88317bf0bfe307444116c631b67000000000000000000000000380275805876ff19055ea900cdb2b46a94ecf20d000000000000000000000000589dedbd617e0cbcb916a9223f4d1300c294236b0000000000000000000000000000000000000000000000000000000000000000",
        "nonce": "0x54",
        "chainId": "0x1"
      },
      "additionalContracts": [],
      "isFixedGasLimit": false
    },
    {
      "hash": "0x4f5b7e16e0fe35fe070e1cfadf0cc3d932000cc1920bdfb2a0f2066bdeeb20ae",
      "transactionType": "CALL",
      "contractName": null,
      "contractAddress": "0x1a44076050125825900e736c501f859c50fe728c",
      "function": "setSendLibrary(address,uint32,address)",
      "arguments": [
        "0xa55688C280E725704CFe8Ea30eD33fE5B91cE6a4",
        "30325",
        "0xbB2Ea70C9E858123480642Cf96acbcCE1372dCe1"
      ],
      "transaction": {
        "from": "0xb2105464215716e1445367bea5668f581ef7d063",
        "to": "0x1a44076050125825900e736c501f859c50fe728c",
        "gas": "0x1378b",
        "value": "0x0",
        "input": "0x9535ff30000000000000000000000000a55688c280e725704cfe8ea30ed33fe5b91ce6a40000000000000000000000000000000000000000000000000000000000007675000000000000000000000000bb2ea70c9e858123480642cf96acbcce1372dce1",
        "nonce": "0x55",
        "chainId": "0x1"
      },
      "additionalContracts": [],
      "isFixedGasLimit": false
    },
    {
      "hash": "0xb842c6646d7c233058e8e892b54cc8e9b974689cf3a7abbc88d7acba53125327",
      "transactionType": "CALL",
      "contractName": null,
      "contractAddress": "0x1a44076050125825900e736c501f859c50fe728c",
      "function": "setReceiveLibrary(address,uint32,address,uint256)",
      "arguments": [
        "0xa55688C280E725704CFe8Ea30eD33fE5B91cE6a4",
        "30325",
        "0xc02Ab410f0734EFa3F14628780e6e695156024C2",
        "0"
      ],
      "transaction": {
        "from": "0xb2105464215716e1445367bea5668f581ef7d063",
        "to": "0x1a44076050125825900e736c501f859c50fe728c",
        "gas": "0x17001",
        "value": "0x0",
        "input": "0x6a14d715000000000000000000000000a55688c280e725704cfe8ea30ed33fe5b91ce6a40000000000000000000000000000000000000000000000000000000000007675000000000000000000000000c02ab410f0734efa3f14628780e6e695156024c20000000000000000000000000000000000000000000000000000000000000000",
        "nonce": "0x56",
        "chainId": "0x1"
      },
      "additionalContracts": [],
      "isFixedGasLimit": false
    }
  ],
  "receipts": [
    {
      "status": "0x1",
      "cumulativeGasUsed": "0x6b2933",
      "logs": [
        {
          "address": "0xbb2ea70c9e858123480642cf96acbcce1372dce1",
          "topics": [
            "0x779cb2dd9d2bb1be1737d05435d744facbfb84a2a4912e21379d39beddcdc805"
          ],
          "data": "0x0000000000000000000000005e87d7e75b272fb7150b4d1a05afb6bd7147495000000000000000000000000000000000000000000000000000000000000076750000000000000000000000000000000000000000000000000000000000000000000000000000000000000000173272739bd7aa6e4e214714048a9fe699453059",
          "blockHash": "0xde659cf71131416c196db0e9a75ec2c87de523acc64890af5fc8b48eab4d9a18",
          "blockNumber": "0x14f6b09",
          "transactionHash": "0xc0e90eb47e807da04a5747c4df442837f45781a5379480cc85e940dcbdcdf2e5",
          "transactionIndex": "0x47",
          "logIndex": "0xaa",
          "removed": false
        },
        {
          "address": "0xbb2ea70c9e858123480642cf96acbcce1372dce1",
          "topics": [
            "0x82118522aa536ac0e96cc5c689407ae42b89d592aa133890a01f1509842f5081"
          ],
          "data": "0x0000000000000000000000005e87d7e75b272fb7150b4d1a05afb6bd7147495000000000000000000000000000000000000000000000000000000000000076750000000000000000000000000000000000000000000000000000000000000060000000000000000000000000000000000000000000000000000000000000000000000000000000000000000000000000000000000000000000000000000000030000000000000000000000000000000000000000000000000000000000000000000000000000000000000000000000000000000000000000000000000000000000000000000000000000000000000000000000000000000000000000000000c00000000000000000000000000000000000000000000000000000000000000140000000000000000000000000000000000000000000000000000000000000000300000000000000000000000006559ee34d85a88317bf0bfe307444116c631b67000000000000000000000000380275805876ff19055ea900cdb2b46a94ecf20d000000000000000000000000589dedbd617e0cbcb916a9223f4d1300c294236b0000000000000000000000000000000000000000000000000000000000000000",
          "blockHash": "0xde659cf71131416c196db0e9a75ec2c87de523acc64890af5fc8b48eab4d9a18",
          "blockNumber": "0x14f6b09",
          "transactionHash": "0xc0e90eb47e807da04a5747c4df442837f45781a5379480cc85e940dcbdcdf2e5",
          "transactionIndex": "0x47",
          "logIndex": "0xab",
          "removed": false
        }
      ],
      "logsBloom": "0x00000000000000000000000000000000000000000000000000000000000000000400000000000000000000000000000000000000000000000000000000000000000000000000000000000040000000000000200000000000002000000000000000000000000000000000000000000000000000000000000000000000000000000000000000000000001000000000000000000000000000000000000000000000000000000000000000000002000000000000000000000000000000000000000200000000000000000000000000000000000000000000000000000000000000000008000000000000000000000000000000000000000000000000000000000010",
      "type": "0x2",
      "transactionHash": "0xc0e90eb47e807da04a5747c4df442837f45781a5379480cc85e940dcbdcdf2e5",
      "transactionIndex": "0x47",
      "blockHash": "0xde659cf71131416c196db0e9a75ec2c87de523acc64890af5fc8b48eab4d9a18",
      "blockNumber": "0x14f6b09",
      "gasUsed": "0x2e709",
      "effectiveGasPrice": "0x2dd839c0",
      "from": "0xb2105464215716e1445367bea5668f581ef7d063",
      "to": "0x1a44076050125825900e736c501f859c50fe728c",
      "contractAddress": null
    },
    {
      "status": "0x1",
      "cumulativeGasUsed": "0x11005f4",
      "logs": [
        {
          "address": "0x1a44076050125825900e736c501f859c50fe728c",
          "topics": [
            "0x4cff966ebee29a156dcb34cf72c1d06231fb1777f6bdf6e8089819232f002b1c"
          ],
          "data": "0x0000000000000000000000005e87d7e75b272fb7150b4d1a05afb6bd714749500000000000000000000000000000000000000000000000000000000000007675000000000000000000000000bb2ea70c9e858123480642cf96acbcce1372dce1",
          "blockHash": "0xd4f1e1f995e54f51b7d5364815ccc13ebb4d2d2e95976f43cdfa9d783b703b25",
          "blockNumber": "0x14f6b0a",
          "transactionHash": "0x8a4594aa8f09e21ea94b984a0a51be089ffb1ccc8c8fbdd41e7b55d7e56dcaa6",
          "transactionIndex": "0xb3",
          "logIndex": "0x210",
          "removed": false
        }
      ],
      "logsBloom": "0x00000000000000000000000000000000000200000000000000000000001000000000000000000000000000000000000000000000000000000000000001000000000000000000000000000000000000000000000000000000000000000000000000000000000000000000000000000000000000000010000000000000000000000000000000000000000000000000000000000000000000000000000000000000000000000000000000000000000000000000000000000000000000000000000000000000000000000000000000000000000000000000000000000000000000000040000000000000000000000000000000000000010000000000000000000000",
      "type": "0x2",
      "transactionHash": "0x8a4594aa8f09e21ea94b984a0a51be089ffb1ccc8c8fbdd41e7b55d7e56dcaa6",
      "transactionIndex": "0xb3",
      "blockHash": "0xd4f1e1f995e54f51b7d5364815ccc13ebb4d2d2e95976f43cdfa9d783b703b25",
      "blockNumber": "0x14f6b0a",
      "gasUsed": "0xe18e",
      "effectiveGasPrice": "0x2be39072",
      "from": "0xb2105464215716e1445367bea5668f581ef7d063",
      "to": "0x1a44076050125825900e736c501f859c50fe728c",
      "contractAddress": null
    },
    {
      "status": "0x1",
      "cumulativeGasUsed": "0x113e89e",
      "logs": [
        {
          "address": "0xbb2ea70c9e858123480642cf96acbcce1372dce1",
          "topics": [
            "0x779cb2dd9d2bb1be1737d05435d744facbfb84a2a4912e21379d39beddcdc805"
          ],
          "data": "0x00000000000000000000000006e01cb086fea9c644a2c105a9f20cfc21a526e800000000000000000000000000000000000000000000000000000000000076750000000000000000000000000000000000000000000000000000000000000000000000000000000000000000173272739bd7aa6e4e214714048a9fe699453059",
          "blockHash": "0xd4f1e1f995e54f51b7d5364815ccc13ebb4d2d2e95976f43cdfa9d783b703b25",
          "blockNumber": "0x14f6b0a",
          "transactionHash": "0x5715b3822fd197b83e12324920c8ae10b7fbb992cd16de913f06ffae29f45758",
          "transactionIndex": "0xb5",
          "logIndex": "0x213",
          "removed": false
        },
        {
          "address": "0xbb2ea70c9e858123480642cf96acbcce1372dce1",
          "topics": [
            "0x82118522aa536ac0e96cc5c689407ae42b89d592aa133890a01f1509842f5081"
          ],
          "data": "0x00000000000000000000000006e01cb086fea9c644a2c105a9f20cfc21a526e800000000000000000000000000000000000000000000000000000000000076750000000000000000000000000000000000000000000000000000000000000060000000000000000000000000000000000000000000000000000000000000000000000000000000000000000000000000000000000000000000000000000000030000000000000000000000000000000000000000000000000000000000000000000000000000000000000000000000000000000000000000000000000000000000000000000000000000000000000000000000000000000000000000000000c00000000000000000000000000000000000000000000000000000000000000140000000000000000000000000000000000000000000000000000000000000000300000000000000000000000006559ee34d85a88317bf0bfe307444116c631b67000000000000000000000000380275805876ff19055ea900cdb2b46a94ecf20d000000000000000000000000589dedbd617e0cbcb916a9223f4d1300c294236b0000000000000000000000000000000000000000000000000000000000000000",
          "blockHash": "0xd4f1e1f995e54f51b7d5364815ccc13ebb4d2d2e95976f43cdfa9d783b703b25",
          "blockNumber": "0x14f6b0a",
          "transactionHash": "0x5715b3822fd197b83e12324920c8ae10b7fbb992cd16de913f06ffae29f45758",
          "transactionIndex": "0xb5",
          "logIndex": "0x214",
          "removed": false
        }
      ],
      "logsBloom": "0x00000000000000000000000000000000000000000000000000000000000000000400000000000000000000000000000000000000000000000000000000000000000000000000000000000040000000000000200000000000002000000000000000000000000000000000000000000000000000000000000000000000000000000000000000000000001000000000000000000000000000000000000000000000000000000000000000000002000000000000000000000000000000000000000200000000000000000000000000000000000000000000000000000000000000000008000000000000000000000000000000000000000000000000000000000010",
      "type": "0x2",
      "transactionHash": "0x5715b3822fd197b83e12324920c8ae10b7fbb992cd16de913f06ffae29f45758",
      "transactionIndex": "0xb5",
      "blockHash": "0xd4f1e1f995e54f51b7d5364815ccc13ebb4d2d2e95976f43cdfa9d783b703b25",
      "blockNumber": "0x14f6b0a",
      "gasUsed": "0x2e709",
      "effectiveGasPrice": "0x2be39072",
      "from": "0xb2105464215716e1445367bea5668f581ef7d063",
      "to": "0x1a44076050125825900e736c501f859c50fe728c",
      "contractAddress": null
    },
    {
      "status": "0x1",
      "cumulativeGasUsed": "0x1198e64",
      "logs": [
        {
          "address": "0x1a44076050125825900e736c501f859c50fe728c",
          "topics": [
            "0x4cff966ebee29a156dcb34cf72c1d06231fb1777f6bdf6e8089819232f002b1c"
          ],
          "data": "0x000000000000000000000000a55688c280e725704cfe8ea30ed33fe5b91ce6a40000000000000000000000000000000000000000000000000000000000007675000000000000000000000000bb2ea70c9e858123480642cf96acbcce1372dce1",
          "blockHash": "0xd4f1e1f995e54f51b7d5364815ccc13ebb4d2d2e95976f43cdfa9d783b703b25",
          "blockNumber": "0x14f6b0a",
          "transactionHash": "0x4f5b7e16e0fe35fe070e1cfadf0cc3d932000cc1920bdfb2a0f2066bdeeb20ae",
          "transactionIndex": "0xb9",
          "logIndex": "0x21a",
          "removed": false
        }
      ],
      "logsBloom": "0x00000000000000000000000000000000000200000000000000000000001000000000000000000000000000000000000000000000000000000000000001000000000000000000000000000000000000000000000000000000000000000000000000000000000000000000000000000000000000000010000000000000000000000000000000000000000000000000000000000000000000000000000000000000000000000000000000000000000000000000000000000000000000000000000000000000000000000000000000000000000000000000000000000000000000000040000000000000000000000000000000000000010000000000000000000000",
      "type": "0x2",
      "transactionHash": "0x4f5b7e16e0fe35fe070e1cfadf0cc3d932000cc1920bdfb2a0f2066bdeeb20ae",
      "transactionIndex": "0xb9",
      "blockHash": "0xd4f1e1f995e54f51b7d5364815ccc13ebb4d2d2e95976f43cdfa9d783b703b25",
      "blockNumber": "0x14f6b0a",
      "gasUsed": "0xe18e",
      "effectiveGasPrice": "0x2be39072",
      "from": "0xb2105464215716e1445367bea5668f581ef7d063",
      "to": "0x1a44076050125825900e736c501f859c50fe728c",
      "contractAddress": null
    },
    {
      "status": "0x1",
      "cumulativeGasUsed": "0x11a8a05",
      "logs": [
        {
          "address": "0x1a44076050125825900e736c501f859c50fe728c",
          "topics": [
            "0xcd6f92f5ac6185a5acfa02c92090746cec64d777269cbcd0ed031e396657a1c2"
          ],
          "data": "0x000000000000000000000000a55688c280e725704cfe8ea30ed33fe5b91ce6a40000000000000000000000000000000000000000000000000000000000007675000000000000000000000000c02ab410f0734efa3f14628780e6e695156024c2",
          "blockHash": "0xd4f1e1f995e54f51b7d5364815ccc13ebb4d2d2e95976f43cdfa9d783b703b25",
          "blockNumber": "0x14f6b0a",
          "transactionHash": "0xb842c6646d7c233058e8e892b54cc8e9b974689cf3a7abbc88d7acba53125327",
          "transactionIndex": "0xba",
          "logIndex": "0x21b",
          "removed": false
        },
        {
          "address": "0x1a44076050125825900e736c501f859c50fe728c",
          "topics": [
            "0x4e0a5bbfa0c11a64effb1ada324b5437a17272e1aed9320398715ef71bb20928"
          ],
          "data": "0x000000000000000000000000a55688c280e725704cfe8ea30ed33fe5b91ce6a4000000000000000000000000000000000000000000000000000000000000767500000000000000000000000000000000000000000000000000000000000000000000000000000000000000000000000000000000000000000000000000000000",
          "blockHash": "0xd4f1e1f995e54f51b7d5364815ccc13ebb4d2d2e95976f43cdfa9d783b703b25",
          "blockNumber": "0x14f6b0a",
          "transactionHash": "0xb842c6646d7c233058e8e892b54cc8e9b974689cf3a7abbc88d7acba53125327",
          "transactionIndex": "0xba",
          "logIndex": "0x21c",
          "removed": false
        }
      ],
      "logsBloom": "0x00000000000000000000020800000000000000000000000000000000001000020400000000000000000000000000000000000000000000000000000000000000000000000000000000000000000000000000000000800000000000000000000000000000000000000000000000000000000000000010000000000000000000100000000000000000000000000000000000000000000000000000000000000000000000000000000000000000000000000000000000000000000000000000000000000000000000000000000000000000000000000000000000000000000000000000000000000000000000000000000000000000010000000000000000000000",
      "type": "0x2",
      "transactionHash": "0xb842c6646d7c233058e8e892b54cc8e9b974689cf3a7abbc88d7acba53125327",
      "transactionIndex": "0xba",
      "blockHash": "0xd4f1e1f995e54f51b7d5364815ccc13ebb4d2d2e95976f43cdfa9d783b703b25",
      "blockNumber": "0x14f6b0a",
      "gasUsed": "0xfba1",
      "effectiveGasPrice": "0x2be39072",
      "from": "0xb2105464215716e1445367bea5668f581ef7d063",
      "to": "0x1a44076050125825900e736c501f859c50fe728c",
      "contractAddress": null
    }
  ],
  "libraries": [],
  "pending": [],
  "returns": {},
  "timestamp": 1741193166,
  "chain": 1,
  "commit": "e2958f7a"
}
