{
  "transactions": [
    {
      "hash": "0x1df959eb52adef28c4f2a0108005f7fdf3e1c13e7e7b59442d2e8cf1028861af",
      "transactionType": "CALL",
      "contractName": null,
      "contractAddress": "0x1a44076050125825900e736c501f859c50fe728c",
      "function": "setConfig(address,address,(uint32,uint32,bytes)[])",
      "arguments": [
        "0xf1dF43A3053cd18E477233B59a25fC483C2cBe0f",
        "0xbB2Ea70C9E858123480642Cf96acbcCE1372dCe1",
        "[(30325, 1, 0x0000000000000000000000000000000000000000000000000000000000000000000000000000000000000000173272739bd7aa6e4e214714048a9fe699453059), (30325, 2, 0x0000000000000000000000000000000000000000000000000000000000000020000000000000000000000000000000000000000000000000000000000000000100000000000000000000000000000000000000000000000000000000000000030000000000000000000000000000000000000000000000000000000000000000000000000000000000000000000000000000000000000000000000000000000000000000000000000000000000000000000000000000000000000000000000c00000000000000000000000000000000000000000000000000000000000000140000000000000000000000000000000000000000000000000000000000000000300000000000000000000000006559ee34d85a88317bf0bfe307444116c631b67000000000000000000000000380275805876ff19055ea900cdb2b46a94ecf20d000000000000000000000000589dedbd617e0cbcb916a9223f4d1300c294236b0000000000000000000000000000000000000000000000000000000000000000)]"
      ],
      "transaction": {
        "from": "0xb2105464215716e1445367bea5668f581ef7d063",
        "to": "0x1a44076050125825900e736c501f859c50fe728c",
        "gas": "0x1a42a",
        "value": "0x0",
        "input": "0x6dbd9f90000000000000000000000000f1df43a3053cd18e477233b59a25fc483c2cbe0f000000000000000000000000bb2ea70c9e858123480642cf96acbcce1372dce1000000000000000000000000000000000000000000000000000000000000006000000000000000000000000000000000000000000000000000000000000000020000000000000000000000000000000000000000000000000000000000000040000000000000000000000000000000000000000000000000000000000000010000000000000000000000000000000000000000000000000000000000000076750000000000000000000000000000000000000000000000000000000000000001000000000000000000000000000000000000000000000000000000000000006000000000000000000000000000000000000000000000000000000000000000400000000000000000000000000000000000000000000000000000000000000000000000000000000000000000173272739bd7aa6e4e214714048a9fe69945305900000000000000000000000000000000000000000000000000000000000076750000000000000000000000000000000000000000000000000000000000000002000000000000000000000000000000000000000000000000000000000000006000000000000000000000000000000000000000000000000000000000000001800000000000000000000000000000000000000000000000000000000000000020000000000000000000000000000000000000000000000000000000000000000100000000000000000000000000000000000000000000000000000000000000030000000000000000000000000000000000000000000000000000000000000000000000000000000000000000000000000000000000000000000000000000000000000000000000000000000000000000000000000000000000000000000000c00000000000000000000000000000000000000000000000000000000000000140000000000000000000000000000000000000000000000000000000000000000300000000000000000000000006559ee34d85a88317bf0bfe307444116c631b67000000000000000000000000380275805876ff19055ea900cdb2b46a94ecf20d000000000000000000000000589dedbd617e0cbcb916a9223f4d1300c294236b0000000000000000000000000000000000000000000000000000000000000000",
        "nonce": "0x40",
        "chainId": "0x1"
      },
      "additionalContracts": [],
      "isFixedGasLimit": false
    }
  ],
  "receipts": [
    {
      "status": "0x1",
      "cumulativeGasUsed": "0x112c579",
      "logs": [
        {
          "address": "0xbb2ea70c9e858123480642cf96acbcce1372dce1",
          "topics": [
            "0x779cb2dd9d2bb1be1737d05435d744facbfb84a2a4912e21379d39beddcdc805"
          ],
          "data": "0x000000000000000000000000f1df43a3053cd18e477233b59a25fc483c2cbe0f00000000000000000000000000000000000000000000000000000000000076750000000000000000000000000000000000000000000000000000000000000000000000000000000000000000173272739bd7aa6e4e214714048a9fe699453059",
          "blockHash": "0x3d6f96d9b3f06d9836787d657df60569ccce5999ff56c0b9c38f0e65f4956f0d",
          "blockNumber": "0x14f5e81",
          "blockTimestamp": "0x67c7e83b",
          "transactionHash": "0x1df959eb52adef28c4f2a0108005f7fdf3e1c13e7e7b59442d2e8cf1028861af",
          "transactionIndex": "0x9c",
          "logIndex": "0x1d5",
          "removed": false
        },
        {
          "address": "0xbb2ea70c9e858123480642cf96acbcce1372dce1",
          "topics": [
            "0x82118522aa536ac0e96cc5c689407ae42b89d592aa133890a01f1509842f5081"
          ],
          "data": "0x000000000000000000000000f1df43a3053cd18e477233b59a25fc483c2cbe0f00000000000000000000000000000000000000000000000000000000000076750000000000000000000000000000000000000000000000000000000000000060000000000000000000000000000000000000000000000000000000000000000100000000000000000000000000000000000000000000000000000000000000030000000000000000000000000000000000000000000000000000000000000000000000000000000000000000000000000000000000000000000000000000000000000000000000000000000000000000000000000000000000000000000000c00000000000000000000000000000000000000000000000000000000000000140000000000000000000000000000000000000000000000000000000000000000300000000000000000000000006559ee34d85a88317bf0bfe307444116c631b67000000000000000000000000380275805876ff19055ea900cdb2b46a94ecf20d000000000000000000000000589dedbd617e0cbcb916a9223f4d1300c294236b0000000000000000000000000000000000000000000000000000000000000000",
          "blockHash": "0x3d6f96d9b3f06d9836787d657df60569ccce5999ff56c0b9c38f0e65f4956f0d",
          "blockNumber": "0x14f5e81",
          "blockTimestamp": "0x67c7e83b",
          "transactionHash": "0x1df959eb52adef28c4f2a0108005f7fdf3e1c13e7e7b59442d2e8cf1028861af",
          "transactionIndex": "0x9c",
          "logIndex": "0x1d6",
          "removed": false
        }
      ],
      "logsBloom": "0x00000000000000000000000000000000000000000000000000000000000000000400000000000000000000000000000000000000000000000000000000000000000000000000000000000040000000000000200000000000002000000000000000000000000000000000000000000000000000000000000000000000000000000000000000000000001000000000000000000000000000000000000000000000000000000000000000000002000000000000000000000000000000000000000200000000000000000000000000000000000000000000000000000000000000000008000000000000000000000000000000000000000000000000000000000010",
      "type": "0x2",
      "transactionHash": "0x1df959eb52adef28c4f2a0108005f7fdf3e1c13e7e7b59442d2e8cf1028861af",
      "transactionIndex": "0x9c",
      "blockHash": "0x3d6f96d9b3f06d9836787d657df60569ccce5999ff56c0b9c38f0e65f4956f0d",
      "blockNumber": "0x14f5e81",
      "gasUsed": "0x11f4b",
      "effectiveGasPrice": "0x2925db75",
      "from": "0xb2105464215716e1445367bea5668f581ef7d063",
      "to": "0x1a44076050125825900e736c501f859c50fe728c",
      "contractAddress": null
    }
  ],
  "libraries": [],
  "pending": [],
  "returns": {},
  "timestamp": 1741154367,
  "chain": 1,
  "commit": "e2958f7a"
}
