{
  "transactions": [
    {
      "hash": "0x49ffeae4906b5839e9dad600abdead004f19316478716ccf0719ed062cf567cf",
      "transactionType": "CALL",
      "contractName": null,
      "contractAddress": "0x1a44076050125825900e736c501f859c50fe728c",
      "function": "setConfig(address,address,(uint32,uint32,bytes)[])",
      "arguments": [
        "0xf1dF43A3053cd18E477233B59a25fC483C2cBe0f",
        "0xc02Ab410f0734EFa3F14628780e6e695156024C2",
        "[(30325, 2, 0x0000000000000000000000000000000000000000000000000000000000000020000000000000000000000000000000000000000000000000000000000000000000000000000000000000000000000000000000000000000000000000000000030000000000000000000000000000000000000000000000000000000000000000000000000000000000000000000000000000000000000000000000000000000000000000000000000000000000000000000000000000000000000000000000c00000000000000000000000000000000000000000000000000000000000000140000000000000000000000000000000000000000000000000000000000000000300000000000000000000000006559ee34d85a88317bf0bfe307444116c631b67000000000000000000000000380275805876ff19055ea900cdb2b46a94ecf20d000000000000000000000000589dedbd617e0cbcb916a9223f4d1300c294236b0000000000000000000000000000000000000000000000000000000000000000)]"
      ],
      "transaction": {
        "from": "0xb2105464215716e1445367bea5668f581ef7d063",
        "to": "0x1a44076050125825900e736c501f859c50fe728c",
        "gas": "0x36bbf",
        "value": "0x0",
        "input": "0x6dbd9f90000000000000000000000000f1df43a3053cd18e477233b59a25fc483c2cbe0f000000000000000000000000c02ab410f0734efa3f14628780e6e695156024c200000000000000000000000000000000000000000000000000000000000000600000000000000000000000000000000000000000000000000000000000000001000000000000000000000000000000000000000000000000000000000000002000000000000000000000000000000000000000000000000000000000000076750000000000000000000000000000000000000000000000000000000000000002000000000000000000000000000000000000000000000000000000000000006000000000000000000000000000000000000000000000000000000000000001800000000000000000000000000000000000000000000000000000000000000020000000000000000000000000000000000000000000000000000000000000000000000000000000000000000000000000000000000000000000000000000000030000000000000000000000000000000000000000000000000000000000000000000000000000000000000000000000000000000000000000000000000000000000000000000000000000000000000000000000000000000000000000000000c00000000000000000000000000000000000000000000000000000000000000140000000000000000000000000000000000000000000000000000000000000000300000000000000000000000006559ee34d85a88317bf0bfe307444116c631b67000000000000000000000000380275805876ff19055ea900cdb2b46a94ecf20d000000000000000000000000589dedbd617e0cbcb916a9223f4d1300c294236b0000000000000000000000000000000000000000000000000000000000000000",
        "nonce": "0x64",
        "chainId": "0x1"
      },
      "additionalContracts": [],
      "isFixedGasLimit": false
    },
    {
      "hash": "0x595dd93d939a065ba5a76efc2c5e03a5384d6269c32f43688e2747ef2a29b53f",
      "transactionType": "CALL",
      "contractName": null,
      "contractAddress": "0x1a44076050125825900e736c501f859c50fe728c",
      "function": "setConfig(address,address,(uint32,uint32,bytes)[])",
      "arguments": [
        "0xc209a627a7B0a19F16A963D9f7281667A2d9eFf2",
        "0xc02Ab410f0734EFa3F14628780e6e695156024C2",
        "[(30325, 2, 0x0000000000000000000000000000000000000000000000000000000000000020000000000000000000000000000000000000000000000000000000000000000000000000000000000000000000000000000000000000000000000000000000030000000000000000000000000000000000000000000000000000000000000000000000000000000000000000000000000000000000000000000000000000000000000000000000000000000000000000000000000000000000000000000000c00000000000000000000000000000000000000000000000000000000000000140000000000000000000000000000000000000000000000000000000000000000300000000000000000000000006559ee34d85a88317bf0bfe307444116c631b67000000000000000000000000380275805876ff19055ea900cdb2b46a94ecf20d000000000000000000000000589dedbd617e0cbcb916a9223f4d1300c294236b0000000000000000000000000000000000000000000000000000000000000000)]"
      ],
      "transaction": {
        "from": "0xb2105464215716e1445367bea5668f581ef7d063",
        "to": "0x1a44076050125825900e736c501f859c50fe728c",
        "gas": "0x36bbf",
        "value": "0x0",
        "input": "0x6dbd9f90000000000000000000000000c209a627a7b0a19f16a963d9f7281667a2d9eff2000000000000000000000000c02ab410f0734efa3f14628780e6e695156024c200000000000000000000000000000000000000000000000000000000000000600000000000000000000000000000000000000000000000000000000000000001000000000000000000000000000000000000000000000000000000000000002000000000000000000000000000000000000000000000000000000000000076750000000000000000000000000000000000000000000000000000000000000002000000000000000000000000000000000000000000000000000000000000006000000000000000000000000000000000000000000000000000000000000001800000000000000000000000000000000000000000000000000000000000000020000000000000000000000000000000000000000000000000000000000000000000000000000000000000000000000000000000000000000000000000000000030000000000000000000000000000000000000000000000000000000000000000000000000000000000000000000000000000000000000000000000000000000000000000000000000000000000000000000000000000000000000000000000c00000000000000000000000000000000000000000000000000000000000000140000000000000000000000000000000000000000000000000000000000000000300000000000000000000000006559ee34d85a88317bf0bfe307444116c631b67000000000000000000000000380275805876ff19055ea900cdb2b46a94ecf20d000000000000000000000000589dedbd617e0cbcb916a9223f4d1300c294236b0000000000000000000000000000000000000000000000000000000000000000",
        "nonce": "0x65",
        "chainId": "0x1"
      },
      "additionalContracts": [],
      "isFixedGasLimit": false
    },
    {
      "hash": "0x4401367e6cf6af7b412e29034187b43e8552e5cad44c4ec19e61edcbd5ddc806",
      "transactionType": "CALL",
      "contractName": null,
      "contractAddress": "0x1a44076050125825900e736c501f859c50fe728c",
      "function": "setConfig(address,address,(uint32,uint32,bytes)[])",
      "arguments": [
        "0x5e87D7e75B272fb7150B4d1a05afb6Bd71474950",
        "0xc02Ab410f0734EFa3F14628780e6e695156024C2",
        "[(30325, 2, 0x0000000000000000000000000000000000000000000000000000000000000020000000000000000000000000000000000000000000000000000000000000000000000000000000000000000000000000000000000000000000000000000000030000000000000000000000000000000000000000000000000000000000000000000000000000000000000000000000000000000000000000000000000000000000000000000000000000000000000000000000000000000000000000000000c00000000000000000000000000000000000000000000000000000000000000140000000000000000000000000000000000000000000000000000000000000000300000000000000000000000006559ee34d85a88317bf0bfe307444116c631b67000000000000000000000000380275805876ff19055ea900cdb2b46a94ecf20d000000000000000000000000589dedbd617e0cbcb916a9223f4d1300c294236b0000000000000000000000000000000000000000000000000000000000000000)]"
      ],
      "transaction": {
        "from": "0xb2105464215716e1445367bea5668f581ef7d063",
        "to": "0x1a44076050125825900e736c501f859c50fe728c",
        "gas": "0x36bbf",
        "value": "0x0",
        "input": "0x6dbd9f900000000000000000000000005e87d7e75b272fb7150b4d1a05afb6bd71474950000000000000000000000000c02ab410f0734efa3f14628780e6e695156024c200000000000000000000000000000000000000000000000000000000000000600000000000000000000000000000000000000000000000000000000000000001000000000000000000000000000000000000000000000000000000000000002000000000000000000000000000000000000000000000000000000000000076750000000000000000000000000000000000000000000000000000000000000002000000000000000000000000000000000000000000000000000000000000006000000000000000000000000000000000000000000000000000000000000001800000000000000000000000000000000000000000000000000000000000000020000000000000000000000000000000000000000000000000000000000000000000000000000000000000000000000000000000000000000000000000000000030000000000000000000000000000000000000000000000000000000000000000000000000000000000000000000000000000000000000000000000000000000000000000000000000000000000000000000000000000000000000000000000c00000000000000000000000000000000000000000000000000000000000000140000000000000000000000000000000000000000000000000000000000000000300000000000000000000000006559ee34d85a88317bf0bfe307444116c631b67000000000000000000000000380275805876ff19055ea900cdb2b46a94ecf20d000000000000000000000000589dedbd617e0cbcb916a9223f4d1300c294236b0000000000000000000000000000000000000000000000000000000000000000",
        "nonce": "0x66",
        "chainId": "0x1"
      },
      "additionalContracts": [],
      "isFixedGasLimit": false
    },
    {
      "hash": "0xd7c577df688ec0611fb92b40b11ea8120abdaa5a0a928175e83ec5bef96c60e8",
      "transactionType": "CALL",
      "contractName": null,
      "contractAddress": "0x1a44076050125825900e736c501f859c50fe728c",
      "function": "setConfig(address,address,(uint32,uint32,bytes)[])",
      "arguments": [
        "0x06E01cB086fea9C644a2C105A9F20cfC21A526e8",
        "0xc02Ab410f0734EFa3F14628780e6e695156024C2",
        "[(30325, 2, 0x0000000000000000000000000000000000000000000000000000000000000020000000000000000000000000000000000000000000000000000000000000000000000000000000000000000000000000000000000000000000000000000000030000000000000000000000000000000000000000000000000000000000000000000000000000000000000000000000000000000000000000000000000000000000000000000000000000000000000000000000000000000000000000000000c00000000000000000000000000000000000000000000000000000000000000140000000000000000000000000000000000000000000000000000000000000000300000000000000000000000006559ee34d85a88317bf0bfe307444116c631b67000000000000000000000000380275805876ff19055ea900cdb2b46a94ecf20d000000000000000000000000589dedbd617e0cbcb916a9223f4d1300c294236b0000000000000000000000000000000000000000000000000000000000000000)]"
      ],
      "transaction": {
        "from": "0xb2105464215716e1445367bea5668f581ef7d063",
        "to": "0x1a44076050125825900e736c501f859c50fe728c",
        "gas": "0x36bbf",
        "value": "0x0",
        "input": "0x6dbd9f9000000000000000000000000006e01cb086fea9c644a2c105a9f20cfc21a526e8000000000000000000000000c02ab410f0734efa3f14628780e6e695156024c200000000000000000000000000000000000000000000000000000000000000600000000000000000000000000000000000000000000000000000000000000001000000000000000000000000000000000000000000000000000000000000002000000000000000000000000000000000000000000000000000000000000076750000000000000000000000000000000000000000000000000000000000000002000000000000000000000000000000000000000000000000000000000000006000000000000000000000000000000000000000000000000000000000000001800000000000000000000000000000000000000000000000000000000000000020000000000000000000000000000000000000000000000000000000000000000000000000000000000000000000000000000000000000000000000000000000030000000000000000000000000000000000000000000000000000000000000000000000000000000000000000000000000000000000000000000000000000000000000000000000000000000000000000000000000000000000000000000000c00000000000000000000000000000000000000000000000000000000000000140000000000000000000000000000000000000000000000000000000000000000300000000000000000000000006559ee34d85a88317bf0bfe307444116c631b67000000000000000000000000380275805876ff19055ea900cdb2b46a94ecf20d000000000000000000000000589dedbd617e0cbcb916a9223f4d1300c294236b0000000000000000000000000000000000000000000000000000000000000000",
        "nonce": "0x67",
        "chainId": "0x1"
      },
      "additionalContracts": [],
      "isFixedGasLimit": false
    },
    {
      "hash": "0x05955e14b4fb26ec9db393179265edd7d82f2d530e3f2e48d19a511ab1d7b63e",
      "transactionType": "CALL",
      "contractName": null,
      "contractAddress": "0x1a44076050125825900e736c501f859c50fe728c",
      "function": "setConfig(address,address,(uint32,uint32,bytes)[])",
      "arguments": [
        "0xa55688C280E725704CFe8Ea30eD33fE5B91cE6a4",
        "0xc02Ab410f0734EFa3F14628780e6e695156024C2",
        "[(30325, 2, 0x0000000000000000000000000000000000000000000000000000000000000020000000000000000000000000000000000000000000000000000000000000000000000000000000000000000000000000000000000000000000000000000000030000000000000000000000000000000000000000000000000000000000000000000000000000000000000000000000000000000000000000000000000000000000000000000000000000000000000000000000000000000000000000000000c00000000000000000000000000000000000000000000000000000000000000140000000000000000000000000000000000000000000000000000000000000000300000000000000000000000006559ee34d85a88317bf0bfe307444116c631b67000000000000000000000000380275805876ff19055ea900cdb2b46a94ecf20d000000000000000000000000589dedbd617e0cbcb916a9223f4d1300c294236b0000000000000000000000000000000000000000000000000000000000000000)]"
      ],
      "transaction": {
        "from": "0xb2105464215716e1445367bea5668f581ef7d063",
        "to": "0x1a44076050125825900e736c501f859c50fe728c",
        "gas": "0x36bbf",
        "value": "0x0",
        "input": "0x6dbd9f90000000000000000000000000a55688c280e725704cfe8ea30ed33fe5b91ce6a4000000000000000000000000c02ab410f0734efa3f14628780e6e695156024c200000000000000000000000000000000000000000000000000000000000000600000000000000000000000000000000000000000000000000000000000000001000000000000000000000000000000000000000000000000000000000000002000000000000000000000000000000000000000000000000000000000000076750000000000000000000000000000000000000000000000000000000000000002000000000000000000000000000000000000000000000000000000000000006000000000000000000000000000000000000000000000000000000000000001800000000000000000000000000000000000000000000000000000000000000020000000000000000000000000000000000000000000000000000000000000000000000000000000000000000000000000000000000000000000000000000000030000000000000000000000000000000000000000000000000000000000000000000000000000000000000000000000000000000000000000000000000000000000000000000000000000000000000000000000000000000000000000000000c00000000000000000000000000000000000000000000000000000000000000140000000000000000000000000000000000000000000000000000000000000000300000000000000000000000006559ee34d85a88317bf0bfe307444116c631b67000000000000000000000000380275805876ff19055ea900cdb2b46a94ecf20d000000000000000000000000589dedbd617e0cbcb916a9223f4d1300c294236b0000000000000000000000000000000000000000000000000000000000000000",
        "nonce": "0x68",
        "chainId": "0x1"
      },
      "additionalContracts": [],
      "isFixedGasLimit": false
    }
  ],
  "receipts": [
    {
      "status": "0x1",
      "cumulativeGasUsed": "0xb8e990",
      "logs": [
        {
          "address": "0xc02ab410f0734efa3f14628780e6e695156024c2",
          "topics": [
            "0x82118522aa536ac0e96cc5c689407ae42b89d592aa133890a01f1509842f5081"
          ],
          "data": "0x000000000000000000000000f1df43a3053cd18e477233b59a25fc483c2cbe0f00000000000000000000000000000000000000000000000000000000000076750000000000000000000000000000000000000000000000000000000000000060000000000000000000000000000000000000000000000000000000000000000000000000000000000000000000000000000000000000000000000000000000030000000000000000000000000000000000000000000000000000000000000000000000000000000000000000000000000000000000000000000000000000000000000000000000000000000000000000000000000000000000000000000000c00000000000000000000000000000000000000000000000000000000000000140000000000000000000000000000000000000000000000000000000000000000300000000000000000000000006559ee34d85a88317bf0bfe307444116c631b67000000000000000000000000380275805876ff19055ea900cdb2b46a94ecf20d000000000000000000000000589dedbd617e0cbcb916a9223f4d1300c294236b0000000000000000000000000000000000000000000000000000000000000000",
          "blockHash": "0x8334545e3012df279c61c66f8b993ff1a3ed5451e9948b3040e92888bc16a793",
          "blockNumber": "0x14f7fe7",
          "transactionHash": "0x49ffeae4906b5839e9dad600abdead004f19316478716ccf0719ed062cf567cf",
          "transactionIndex": "0x65",
          "logIndex": "0xfb",
          "removed": false
        }
      ],
      "logsBloom": "0x00000000000000000000000000000000000000000000000000000000000000000000000000000004000000000000000000000000000000000000000000000000000000000000000000000000000000000000000000000000002000000000000000000000000000000000000000000000000000000000000000000000000000000000000100000000000010000000000000000000000000000000000000000000000000000000000000000002000000000000000000000000000000000000000000000000000000000000000000000000000000000000000000000000000000000000000000000000000000000000000000000000000000000000000000000010",
      "type": "0x2",
      "transactionHash": "0x49ffeae4906b5839e9dad600abdead004f19316478716ccf0719ed062cf567cf",
      "transactionIndex": "0x65",
      "blockHash": "0x8334545e3012df279c61c66f8b993ff1a3ed5451e9948b3040e92888bc16a793",
      "blockNumber": "0x14f7fe7",
      "gasUsed": "0x27a07",
      "effectiveGasPrice": "0x2dfca553",
      "from": "0xb2105464215716e1445367bea5668f581ef7d063",
      "to": "0x1a44076050125825900e736c501f859c50fe728c",
      "contractAddress": null
    },
    {
      "status": "0x1",
      "cumulativeGasUsed": "0xbb6397",
      "logs": [
        {
          "address": "0xc02ab410f0734efa3f14628780e6e695156024c2",
          "topics": [
            "0x82118522aa536ac0e96cc5c689407ae42b89d592aa133890a01f1509842f5081"
          ],
          "data": "0x000000000000000000000000c209a627a7b0a19f16a963d9f7281667a2d9eff200000000000000000000000000000000000000000000000000000000000076750000000000000000000000000000000000000000000000000000000000000060000000000000000000000000000000000000000000000000000000000000000000000000000000000000000000000000000000000000000000000000000000030000000000000000000000000000000000000000000000000000000000000000000000000000000000000000000000000000000000000000000000000000000000000000000000000000000000000000000000000000000000000000000000c00000000000000000000000000000000000000000000000000000000000000140000000000000000000000000000000000000000000000000000000000000000300000000000000000000000006559ee34d85a88317bf0bfe307444116c631b67000000000000000000000000380275805876ff19055ea900cdb2b46a94ecf20d000000000000000000000000589dedbd617e0cbcb916a9223f4d1300c294236b0000000000000000000000000000000000000000000000000000000000000000",
          "blockHash": "0x8334545e3012df279c61c66f8b993ff1a3ed5451e9948b3040e92888bc16a793",
          "blockNumber": "0x14f7fe7",
          "transactionHash": "0x595dd93d939a065ba5a76efc2c5e03a5384d6269c32f43688e2747ef2a29b53f",
          "transactionIndex": "0x66",
          "logIndex": "0xfc",
          "removed": false
        }
      ],
      "logsBloom": "0x00000000000000000000000000000000000000000000000000000000000000000000000000000004000000000000000000000000000000000000000000000000000000000000000000000000000000000000000000000000002000000000000000000000000000000000000000000000000000000000000000000000000000000000000100000000000010000000000000000000000000000000000000000000000000000000000000000002000000000000000000000000000000000000000000000000000000000000000000000000000000000000000000000000000000000000000000000000000000000000000000000000000000000000000000000010",
      "type": "0x2",
      "transactionHash": "0x595dd93d939a065ba5a76efc2c5e03a5384d6269c32f43688e2747ef2a29b53f",
      "transactionIndex": "0x66",
      "blockHash": "0x8334545e3012df279c61c66f8b993ff1a3ed5451e9948b3040e92888bc16a793",
      "blockNumber": "0x14f7fe7",
      "gasUsed": "0x27a07",
      "effectiveGasPrice": "0x2dfca553",
      "from": "0xb2105464215716e1445367bea5668f581ef7d063",
      "to": "0x1a44076050125825900e736c501f859c50fe728c",
      "contractAddress": null
    },
    {
      "status": "0x1",
      "cumulativeGasUsed": "0xbddd9e",
      "logs": [
        {
          "address": "0xc02ab410f0734efa3f14628780e6e695156024c2",
          "topics": [
            "0x82118522aa536ac0e96cc5c689407ae42b89d592aa133890a01f1509842f5081"
          ],
          "data": "0x0000000000000000000000005e87d7e75b272fb7150b4d1a05afb6bd7147495000000000000000000000000000000000000000000000000000000000000076750000000000000000000000000000000000000000000000000000000000000060000000000000000000000000000000000000000000000000000000000000000000000000000000000000000000000000000000000000000000000000000000030000000000000000000000000000000000000000000000000000000000000000000000000000000000000000000000000000000000000000000000000000000000000000000000000000000000000000000000000000000000000000000000c00000000000000000000000000000000000000000000000000000000000000140000000000000000000000000000000000000000000000000000000000000000300000000000000000000000006559ee34d85a88317bf0bfe307444116c631b67000000000000000000000000380275805876ff19055ea900cdb2b46a94ecf20d000000000000000000000000589dedbd617e0cbcb916a9223f4d1300c294236b0000000000000000000000000000000000000000000000000000000000000000",
          "blockHash": "0x8334545e3012df279c61c66f8b993ff1a3ed5451e9948b3040e92888bc16a793",
          "blockNumber": "0x14f7fe7",
          "transactionHash": "0x4401367e6cf6af7b412e29034187b43e8552e5cad44c4ec19e61edcbd5ddc806",
          "transactionIndex": "0x67",
          "logIndex": "0xfd",
          "removed": false
        }
      ],
      "logsBloom": "0x00000000000000000000000000000000000000000000000000000000000000000000000000000004000000000000000000000000000000000000000000000000000000000000000000000000000000000000000000000000002000000000000000000000000000000000000000000000000000000000000000000000000000000000000100000000000010000000000000000000000000000000000000000000000000000000000000000002000000000000000000000000000000000000000000000000000000000000000000000000000000000000000000000000000000000000000000000000000000000000000000000000000000000000000000000010",
      "type": "0x2",
      "transactionHash": "0x4401367e6cf6af7b412e29034187b43e8552e5cad44c4ec19e61edcbd5ddc806",
      "transactionIndex": "0x67",
      "blockHash": "0x8334545e3012df279c61c66f8b993ff1a3ed5451e9948b3040e92888bc16a793",
      "blockNumber": "0x14f7fe7",
      "gasUsed": "0x27a07",
      "effectiveGasPrice": "0x2dfca553",
      "from": "0xb2105464215716e1445367bea5668f581ef7d063",
      "to": "0x1a44076050125825900e736c501f859c50fe728c",
      "contractAddress": null
    },
    {
      "status": "0x1",
      "cumulativeGasUsed": "0xc057a5",
      "logs": [
        {
          "address": "0xc02ab410f0734efa3f14628780e6e695156024c2",
          "topics": [
            "0x82118522aa536ac0e96cc5c689407ae42b89d592aa133890a01f1509842f5081"
          ],
          "data": "0x00000000000000000000000006e01cb086fea9c644a2c105a9f20cfc21a526e800000000000000000000000000000000000000000000000000000000000076750000000000000000000000000000000000000000000000000000000000000060000000000000000000000000000000000000000000000000000000000000000000000000000000000000000000000000000000000000000000000000000000030000000000000000000000000000000000000000000000000000000000000000000000000000000000000000000000000000000000000000000000000000000000000000000000000000000000000000000000000000000000000000000000c00000000000000000000000000000000000000000000000000000000000000140000000000000000000000000000000000000000000000000000000000000000300000000000000000000000006559ee34d85a88317bf0bfe307444116c631b67000000000000000000000000380275805876ff19055ea900cdb2b46a94ecf20d000000000000000000000000589dedbd617e0cbcb916a9223f4d1300c294236b0000000000000000000000000000000000000000000000000000000000000000",
          "blockHash": "0x8334545e3012df279c61c66f8b993ff1a3ed5451e9948b3040e92888bc16a793",
          "blockNumber": "0x14f7fe7",
          "transactionHash": "0xd7c577df688ec0611fb92b40b11ea8120abdaa5a0a928175e83ec5bef96c60e8",
          "transactionIndex": "0x68",
          "logIndex": "0xfe",
          "removed": false
        }
      ],
      "logsBloom": "0x00000000000000000000000000000000000000000000000000000000000000000000000000000004000000000000000000000000000000000000000000000000000000000000000000000000000000000000000000000000002000000000000000000000000000000000000000000000000000000000000000000000000000000000000100000000000010000000000000000000000000000000000000000000000000000000000000000002000000000000000000000000000000000000000000000000000000000000000000000000000000000000000000000000000000000000000000000000000000000000000000000000000000000000000000000010",
      "type": "0x2",
      "transactionHash": "0xd7c577df688ec0611fb92b40b11ea8120abdaa5a0a928175e83ec5bef96c60e8",
      "transactionIndex": "0x68",
      "blockHash": "0x8334545e3012df279c61c66f8b993ff1a3ed5451e9948b3040e92888bc16a793",
      "blockNumber": "0x14f7fe7",
      "gasUsed": "0x27a07",
      "effectiveGasPrice": "0x2dfca553",
      "from": "0xb2105464215716e1445367bea5668f581ef7d063",
      "to": "0x1a44076050125825900e736c501f859c50fe728c",
      "contractAddress": null
    },
    {
      "status": "0x1",
      "cumulativeGasUsed": "0xc2d1ac",
      "logs": [
        {
          "address": "0xc02ab410f0734efa3f14628780e6e695156024c2",
          "topics": [
            "0x82118522aa536ac0e96cc5c689407ae42b89d592aa133890a01f1509842f5081"
          ],
          "data": "0x000000000000000000000000a55688c280e725704cfe8ea30ed33fe5b91ce6a400000000000000000000000000000000000000000000000000000000000076750000000000000000000000000000000000000000000000000000000000000060000000000000000000000000000000000000000000000000000000000000000000000000000000000000000000000000000000000000000000000000000000030000000000000000000000000000000000000000000000000000000000000000000000000000000000000000000000000000000000000000000000000000000000000000000000000000000000000000000000000000000000000000000000c00000000000000000000000000000000000000000000000000000000000000140000000000000000000000000000000000000000000000000000000000000000300000000000000000000000006559ee34d85a88317bf0bfe307444116c631b67000000000000000000000000380275805876ff19055ea900cdb2b46a94ecf20d000000000000000000000000589dedbd617e0cbcb916a9223f4d1300c294236b0000000000000000000000000000000000000000000000000000000000000000",
          "blockHash": "0x8334545e3012df279c61c66f8b993ff1a3ed5451e9948b3040e92888bc16a793",
          "blockNumber": "0x14f7fe7",
          "transactionHash": "0x05955e14b4fb26ec9db393179265edd7d82f2d530e3f2e48d19a511ab1d7b63e",
          "transactionIndex": "0x69",
          "logIndex": "0xff",
          "removed": false
        }
      ],
      "logsBloom": "0x00000000000000000000000000000000000000000000000000000000000000000000000000000004000000000000000000000000000000000000000000000000000000000000000000000000000000000000000000000000002000000000000000000000000000000000000000000000000000000000000000000000000000000000000100000000000010000000000000000000000000000000000000000000000000000000000000000002000000000000000000000000000000000000000000000000000000000000000000000000000000000000000000000000000000000000000000000000000000000000000000000000000000000000000000000010",
      "type": "0x2",
      "transactionHash": "0x05955e14b4fb26ec9db393179265edd7d82f2d530e3f2e48d19a511ab1d7b63e",
      "transactionIndex": "0x69",
      "blockHash": "0x8334545e3012df279c61c66f8b993ff1a3ed5451e9948b3040e92888bc16a793",
      "blockNumber": "0x14f7fe7",
      "gasUsed": "0x27a07",
      "effectiveGasPrice": "0x2dfca553",
      "from": "0xb2105464215716e1445367bea5668f581ef7d063",
      "to": "0x1a44076050125825900e736c501f859c50fe728c",
      "contractAddress": null
    }
  ],
  "libraries": [],
  "pending": [],
  "returns": {},
  "timestamp": 1741257507,
  "chain": 1,
  "commit": "dabd5ffe"
}
