{
  "transactions": [
    {
      "hash": "0x76166c92883ef87043374be0c2243a806279d70a411b272b80946ab5ea27760c",
      "transactionType": "CALL",
      "contractName": null,
      "contractAddress": "0x1a44076050125825900e736c501f859c50fe728c",
      "function": "setConfig(address,address,(uint32,uint32,bytes)[])",
      "arguments": [
        "0xf1dF43A3053cd18E477233B59a25fC483C2cBe0f",
        "0xbB2Ea70C9E858123480642Cf96acbcCE1372dCe1",
        "[(30325, 1, 0x0000000000000000000000000000000000000000000000000000000000000000000000000000000000000000173272739bd7aa6e4e214714048a9fe699453059), (30325, 2, 0x0000000000000000000000000000000000000000000000000000000000000020000000000000000000000000000000000000000000000000000000000000000000000000000000000000000000000000000000000000000000000000000000030000000000000000000000000000000000000000000000000000000000000000000000000000000000000000000000000000000000000000000000000000000000000000000000000000000000000000000000000000000000000000000000c00000000000000000000000000000000000000000000000000000000000000140000000000000000000000000000000000000000000000000000000000000000300000000000000000000000006559ee34d85a88317bf0bfe307444116c631b67000000000000000000000000380275805876ff19055ea900cdb2b46a94ecf20d000000000000000000000000589dedbd617e0cbcb916a9223f4d1300c294236b0000000000000000000000000000000000000000000000000000000000000000)]"
      ],
      "transaction": {
        "from": "0xb2105464215716e1445367bea5668f581ef7d063",
        "to": "0x1a44076050125825900e736c501f859c50fe728c",
        "gas": "0x19491",
        "value": "0x0",
        "input": "0x6dbd9f90000000000000000000000000f1df43a3053cd18e477233b59a25fc483c2cbe0f000000000000000000000000bb2ea70c9e858123480642cf96acbcce1372dce1000000000000000000000000000000000000000000000000000000000000006000000000000000000000000000000000000000000000000000000000000000020000000000000000000000000000000000000000000000000000000000000040000000000000000000000000000000000000000000000000000000000000010000000000000000000000000000000000000000000000000000000000000076750000000000000000000000000000000000000000000000000000000000000001000000000000000000000000000000000000000000000000000000000000006000000000000000000000000000000000000000000000000000000000000000400000000000000000000000000000000000000000000000000000000000000000000000000000000000000000173272739bd7aa6e4e214714048a9fe69945305900000000000000000000000000000000000000000000000000000000000076750000000000000000000000000000000000000000000000000000000000000002000000000000000000000000000000000000000000000000000000000000006000000000000000000000000000000000000000000000000000000000000001800000000000000000000000000000000000000000000000000000000000000020000000000000000000000000000000000000000000000000000000000000000000000000000000000000000000000000000000000000000000000000000000030000000000000000000000000000000000000000000000000000000000000000000000000000000000000000000000000000000000000000000000000000000000000000000000000000000000000000000000000000000000000000000000c00000000000000000000000000000000000000000000000000000000000000140000000000000000000000000000000000000000000000000000000000000000300000000000000000000000006559ee34d85a88317bf0bfe307444116c631b67000000000000000000000000380275805876ff19055ea900cdb2b46a94ecf20d000000000000000000000000589dedbd617e0cbcb916a9223f4d1300c294236b0000000000000000000000000000000000000000000000000000000000000000",
        "nonce": "0x73",
        "chainId": "0x1"
      },
      "additionalContracts": [],
      "isFixedGasLimit": false
    },
    {
      "hash": "0xb1518e33e652a66adc58aac9d0c261ba882f7edbc3581c11979b07fcbe9e81ee",
      "transactionType": "CALL",
      "contractName": null,
      "contractAddress": "0x1a44076050125825900e736c501f859c50fe728c",
      "function": "setConfig(address,address,(uint32,uint32,bytes)[])",
      "arguments": [
        "0xf1dF43A3053cd18E477233B59a25fC483C2cBe0f",
        "0xc02Ab410f0734EFa3F14628780e6e695156024C2",
        "[(30325, 2, 0x0000000000000000000000000000000000000000000000000000000000000020000000000000000000000000000000000000000000000000000000000000000000000000000000000000000000000000000000000000000000000000000000030000000000000000000000000000000000000000000000000000000000000000000000000000000000000000000000000000000000000000000000000000000000000000000000000000000000000000000000000000000000000000000000c00000000000000000000000000000000000000000000000000000000000000140000000000000000000000000000000000000000000000000000000000000000300000000000000000000000006559ee34d85a88317bf0bfe307444116c631b67000000000000000000000000380275805876ff19055ea900cdb2b46a94ecf20d000000000000000000000000589dedbd617e0cbcb916a9223f4d1300c294236b0000000000000000000000000000000000000000000000000000000000000000)]"
      ],
      "transaction": {
        "from": "0xb2105464215716e1445367bea5668f581ef7d063",
        "to": "0x1a44076050125825900e736c501f859c50fe728c",
        "gas": "0x166d4",
        "value": "0x0",
        "input": "0x6dbd9f90000000000000000000000000f1df43a3053cd18e477233b59a25fc483c2cbe0f000000000000000000000000c02ab410f0734efa3f14628780e6e695156024c200000000000000000000000000000000000000000000000000000000000000600000000000000000000000000000000000000000000000000000000000000001000000000000000000000000000000000000000000000000000000000000002000000000000000000000000000000000000000000000000000000000000076750000000000000000000000000000000000000000000000000000000000000002000000000000000000000000000000000000000000000000000000000000006000000000000000000000000000000000000000000000000000000000000001800000000000000000000000000000000000000000000000000000000000000020000000000000000000000000000000000000000000000000000000000000000000000000000000000000000000000000000000000000000000000000000000030000000000000000000000000000000000000000000000000000000000000000000000000000000000000000000000000000000000000000000000000000000000000000000000000000000000000000000000000000000000000000000000c00000000000000000000000000000000000000000000000000000000000000140000000000000000000000000000000000000000000000000000000000000000300000000000000000000000006559ee34d85a88317bf0bfe307444116c631b67000000000000000000000000380275805876ff19055ea900cdb2b46a94ecf20d000000000000000000000000589dedbd617e0cbcb916a9223f4d1300c294236b0000000000000000000000000000000000000000000000000000000000000000",
        "nonce": "0x74",
        "chainId": "0x1"
      },
      "additionalContracts": [],
      "isFixedGasLimit": false
    },
    {
      "hash": "0x3f4fd7c3772909548d1fabdeaf9f7e5e2ec0bee3fc98fee14f6b0fe92b863730",
      "transactionType": "CALL",
      "contractName": null,
      "contractAddress": "0x1a44076050125825900e736c501f859c50fe728c",
      "function": "setConfig(address,address,(uint32,uint32,bytes)[])",
      "arguments": [
        "0xc209a627a7B0a19F16A963D9f7281667A2d9eFf2",
        "0xbB2Ea70C9E858123480642Cf96acbcCE1372dCe1",
        "[(30325, 1, 0x0000000000000000000000000000000000000000000000000000000000000000000000000000000000000000173272739bd7aa6e4e214714048a9fe699453059), (30325, 2, 0x0000000000000000000000000000000000000000000000000000000000000020000000000000000000000000000000000000000000000000000000000000000000000000000000000000000000000000000000000000000000000000000000030000000000000000000000000000000000000000000000000000000000000000000000000000000000000000000000000000000000000000000000000000000000000000000000000000000000000000000000000000000000000000000000c00000000000000000000000000000000000000000000000000000000000000140000000000000000000000000000000000000000000000000000000000000000300000000000000000000000006559ee34d85a88317bf0bfe307444116c631b67000000000000000000000000380275805876ff19055ea900cdb2b46a94ecf20d000000000000000000000000589dedbd617e0cbcb916a9223f4d1300c294236b0000000000000000000000000000000000000000000000000000000000000000)]"
      ],
      "transaction": {
        "from": "0xb2105464215716e1445367bea5668f581ef7d063",
        "to": "0x1a44076050125825900e736c501f859c50fe728c",
        "gas": "0x1a490",
        "value": "0x0",
        "input": "0x6dbd9f90000000000000000000000000c209a627a7b0a19f16a963d9f7281667a2d9eff2000000000000000000000000bb2ea70c9e858123480642cf96acbcce1372dce1000000000000000000000000000000000000000000000000000000000000006000000000000000000000000000000000000000000000000000000000000000020000000000000000000000000000000000000000000000000000000000000040000000000000000000000000000000000000000000000000000000000000010000000000000000000000000000000000000000000000000000000000000076750000000000000000000000000000000000000000000000000000000000000001000000000000000000000000000000000000000000000000000000000000006000000000000000000000000000000000000000000000000000000000000000400000000000000000000000000000000000000000000000000000000000000000000000000000000000000000173272739bd7aa6e4e214714048a9fe69945305900000000000000000000000000000000000000000000000000000000000076750000000000000000000000000000000000000000000000000000000000000002000000000000000000000000000000000000000000000000000000000000006000000000000000000000000000000000000000000000000000000000000001800000000000000000000000000000000000000000000000000000000000000020000000000000000000000000000000000000000000000000000000000000000000000000000000000000000000000000000000000000000000000000000000030000000000000000000000000000000000000000000000000000000000000000000000000000000000000000000000000000000000000000000000000000000000000000000000000000000000000000000000000000000000000000000000c00000000000000000000000000000000000000000000000000000000000000140000000000000000000000000000000000000000000000000000000000000000300000000000000000000000006559ee34d85a88317bf0bfe307444116c631b67000000000000000000000000380275805876ff19055ea900cdb2b46a94ecf20d000000000000000000000000589dedbd617e0cbcb916a9223f4d1300c294236b0000000000000000000000000000000000000000000000000000000000000000",
        "nonce": "0x75",
        "chainId": "0x1"
      },
      "additionalContracts": [],
      "isFixedGasLimit": false
    },
    {
      "hash": "0xb5ffe71152552a3bab8f986c638df88be508f76044c0117d51076d0794a61885",
      "transactionType": "CALL",
      "contractName": null,
      "contractAddress": "0x1a44076050125825900e736c501f859c50fe728c",
      "function": "setConfig(address,address,(uint32,uint32,bytes)[])",
      "arguments": [
        "0xc209a627a7B0a19F16A963D9f7281667A2d9eFf2",
        "0xc02Ab410f0734EFa3F14628780e6e695156024C2",
        "[(30325, 2, 0x0000000000000000000000000000000000000000000000000000000000000020000000000000000000000000000000000000000000000000000000000000000000000000000000000000000000000000000000000000000000000000000000030000000000000000000000000000000000000000000000000000000000000000000000000000000000000000000000000000000000000000000000000000000000000000000000000000000000000000000000000000000000000000000000c00000000000000000000000000000000000000000000000000000000000000140000000000000000000000000000000000000000000000000000000000000000300000000000000000000000006559ee34d85a88317bf0bfe307444116c631b67000000000000000000000000380275805876ff19055ea900cdb2b46a94ecf20d000000000000000000000000589dedbd617e0cbcb916a9223f4d1300c294236b0000000000000000000000000000000000000000000000000000000000000000)]"
      ],
      "transaction": {
        "from": "0xb2105464215716e1445367bea5668f581ef7d063",
        "to": "0x1a44076050125825900e736c501f859c50fe728c",
        "gas": "0x176d3",
        "value": "0x0",
        "input": "0x6dbd9f90000000000000000000000000c209a627a7b0a19f16a963d9f7281667a2d9eff2000000000000000000000000c02ab410f0734efa3f14628780e6e695156024c200000000000000000000000000000000000000000000000000000000000000600000000000000000000000000000000000000000000000000000000000000001000000000000000000000000000000000000000000000000000000000000002000000000000000000000000000000000000000000000000000000000000076750000000000000000000000000000000000000000000000000000000000000002000000000000000000000000000000000000000000000000000000000000006000000000000000000000000000000000000000000000000000000000000001800000000000000000000000000000000000000000000000000000000000000020000000000000000000000000000000000000000000000000000000000000000000000000000000000000000000000000000000000000000000000000000000030000000000000000000000000000000000000000000000000000000000000000000000000000000000000000000000000000000000000000000000000000000000000000000000000000000000000000000000000000000000000000000000c00000000000000000000000000000000000000000000000000000000000000140000000000000000000000000000000000000000000000000000000000000000300000000000000000000000006559ee34d85a88317bf0bfe307444116c631b67000000000000000000000000380275805876ff19055ea900cdb2b46a94ecf20d000000000000000000000000589dedbd617e0cbcb916a9223f4d1300c294236b0000000000000000000000000000000000000000000000000000000000000000",
        "nonce": "0x76",
        "chainId": "0x1"
      },
      "additionalContracts": [],
      "isFixedGasLimit": false
    },
    {
      "hash": "0xf4ca5383e4e2434b4b0fff090fe0fcd22e3b86321605292bd868e6cf4161e56c",
      "transactionType": "CALL",
      "contractName": null,
      "contractAddress": "0x1a44076050125825900e736c501f859c50fe728c",
      "function": "setConfig(address,address,(uint32,uint32,bytes)[])",
      "arguments": [
        "0x5e87D7e75B272fb7150B4d1a05afb6Bd71474950",
        "0xbB2Ea70C9E858123480642Cf96acbcCE1372dCe1",
        "[(30325, 1, 0x0000000000000000000000000000000000000000000000000000000000000000000000000000000000000000173272739bd7aa6e4e214714048a9fe699453059), (30325, 2, 0x0000000000000000000000000000000000000000000000000000000000000020000000000000000000000000000000000000000000000000000000000000000000000000000000000000000000000000000000000000000000000000000000030000000000000000000000000000000000000000000000000000000000000000000000000000000000000000000000000000000000000000000000000000000000000000000000000000000000000000000000000000000000000000000000c00000000000000000000000000000000000000000000000000000000000000140000000000000000000000000000000000000000000000000000000000000000300000000000000000000000006559ee34d85a88317bf0bfe307444116c631b67000000000000000000000000380275805876ff19055ea900cdb2b46a94ecf20d000000000000000000000000589dedbd617e0cbcb916a9223f4d1300c294236b0000000000000000000000000000000000000000000000000000000000000000)]"
      ],
      "transaction": {
        "from": "0xb2105464215716e1445367bea5668f581ef7d063",
        "to": "0x1a44076050125825900e736c501f859c50fe728c",
        "gas": "0x1a490",
        "value": "0x0",
        "input": "0x6dbd9f900000000000000000000000005e87d7e75b272fb7150b4d1a05afb6bd71474950000000000000000000000000bb2ea70c9e858123480642cf96acbcce1372dce1000000000000000000000000000000000000000000000000000000000000006000000000000000000000000000000000000000000000000000000000000000020000000000000000000000000000000000000000000000000000000000000040000000000000000000000000000000000000000000000000000000000000010000000000000000000000000000000000000000000000000000000000000076750000000000000000000000000000000000000000000000000000000000000001000000000000000000000000000000000000000000000000000000000000006000000000000000000000000000000000000000000000000000000000000000400000000000000000000000000000000000000000000000000000000000000000000000000000000000000000173272739bd7aa6e4e214714048a9fe69945305900000000000000000000000000000000000000000000000000000000000076750000000000000000000000000000000000000000000000000000000000000002000000000000000000000000000000000000000000000000000000000000006000000000000000000000000000000000000000000000000000000000000001800000000000000000000000000000000000000000000000000000000000000020000000000000000000000000000000000000000000000000000000000000000000000000000000000000000000000000000000000000000000000000000000030000000000000000000000000000000000000000000000000000000000000000000000000000000000000000000000000000000000000000000000000000000000000000000000000000000000000000000000000000000000000000000000c00000000000000000000000000000000000000000000000000000000000000140000000000000000000000000000000000000000000000000000000000000000300000000000000000000000006559ee34d85a88317bf0bfe307444116c631b67000000000000000000000000380275805876ff19055ea900cdb2b46a94ecf20d000000000000000000000000589dedbd617e0cbcb916a9223f4d1300c294236b0000000000000000000000000000000000000000000000000000000000000000",
        "nonce": "0x77",
        "chainId": "0x1"
      },
      "additionalContracts": [],
      "isFixedGasLimit": false
    },
    {
      "hash": "0x50d21901f5e555551505fca65d8a36b8ed6516b339e598e5bb435761e77b1e23",
      "transactionType": "CALL",
      "contractName": null,
      "contractAddress": "0x1a44076050125825900e736c501f859c50fe728c",
      "function": "setConfig(address,address,(uint32,uint32,bytes)[])",
      "arguments": [
        "0x5e87D7e75B272fb7150B4d1a05afb6Bd71474950",
        "0xc02Ab410f0734EFa3F14628780e6e695156024C2",
        "[(30325, 2, 0x0000000000000000000000000000000000000000000000000000000000000020000000000000000000000000000000000000000000000000000000000000000000000000000000000000000000000000000000000000000000000000000000030000000000000000000000000000000000000000000000000000000000000000000000000000000000000000000000000000000000000000000000000000000000000000000000000000000000000000000000000000000000000000000000c00000000000000000000000000000000000000000000000000000000000000140000000000000000000000000000000000000000000000000000000000000000300000000000000000000000006559ee34d85a88317bf0bfe307444116c631b67000000000000000000000000380275805876ff19055ea900cdb2b46a94ecf20d000000000000000000000000589dedbd617e0cbcb916a9223f4d1300c294236b0000000000000000000000000000000000000000000000000000000000000000)]"
      ],
      "transaction": {
        "from": "0xb2105464215716e1445367bea5668f581ef7d063",
        "to": "0x1a44076050125825900e736c501f859c50fe728c",
        "gas": "0x176d3",
        "value": "0x0",
        "input": "0x6dbd9f900000000000000000000000005e87d7e75b272fb7150b4d1a05afb6bd71474950000000000000000000000000c02ab410f0734efa3f14628780e6e695156024c200000000000000000000000000000000000000000000000000000000000000600000000000000000000000000000000000000000000000000000000000000001000000000000000000000000000000000000000000000000000000000000002000000000000000000000000000000000000000000000000000000000000076750000000000000000000000000000000000000000000000000000000000000002000000000000000000000000000000000000000000000000000000000000006000000000000000000000000000000000000000000000000000000000000001800000000000000000000000000000000000000000000000000000000000000020000000000000000000000000000000000000000000000000000000000000000000000000000000000000000000000000000000000000000000000000000000030000000000000000000000000000000000000000000000000000000000000000000000000000000000000000000000000000000000000000000000000000000000000000000000000000000000000000000000000000000000000000000000c00000000000000000000000000000000000000000000000000000000000000140000000000000000000000000000000000000000000000000000000000000000300000000000000000000000006559ee34d85a88317bf0bfe307444116c631b67000000000000000000000000380275805876ff19055ea900cdb2b46a94ecf20d000000000000000000000000589dedbd617e0cbcb916a9223f4d1300c294236b0000000000000000000000000000000000000000000000000000000000000000",
        "nonce": "0x78",
        "chainId": "0x1"
      },
      "additionalContracts": [],
      "isFixedGasLimit": false
    },
    {
      "hash": "0x963f84aceee2b8037dd7ad9e29c82ec662960530254dd70910cfc11f82451155",
      "transactionType": "CALL",
      "contractName": null,
      "contractAddress": "0x1a44076050125825900e736c501f859c50fe728c",
      "function": "setConfig(address,address,(uint32,uint32,bytes)[])",
      "arguments": [
        "0x06E01cB086fea9C644a2C105A9F20cfC21A526e8",
        "0xbB2Ea70C9E858123480642Cf96acbcCE1372dCe1",
        "[(30325, 1, 0x0000000000000000000000000000000000000000000000000000000000000000000000000000000000000000173272739bd7aa6e4e214714048a9fe699453059), (30325, 2, 0x0000000000000000000000000000000000000000000000000000000000000020000000000000000000000000000000000000000000000000000000000000000000000000000000000000000000000000000000000000000000000000000000030000000000000000000000000000000000000000000000000000000000000000000000000000000000000000000000000000000000000000000000000000000000000000000000000000000000000000000000000000000000000000000000c00000000000000000000000000000000000000000000000000000000000000140000000000000000000000000000000000000000000000000000000000000000300000000000000000000000006559ee34d85a88317bf0bfe307444116c631b67000000000000000000000000380275805876ff19055ea900cdb2b46a94ecf20d000000000000000000000000589dedbd617e0cbcb916a9223f4d1300c294236b0000000000000000000000000000000000000000000000000000000000000000)]"
      ],
      "transaction": {
        "from": "0xb2105464215716e1445367bea5668f581ef7d063",
        "to": "0x1a44076050125825900e736c501f859c50fe728c",
        "gas": "0x1a490",
        "value": "0x0",
        "input": "0x6dbd9f9000000000000000000000000006e01cb086fea9c644a2c105a9f20cfc21a526e8000000000000000000000000bb2ea70c9e858123480642cf96acbcce1372dce1000000000000000000000000000000000000000000000000000000000000006000000000000000000000000000000000000000000000000000000000000000020000000000000000000000000000000000000000000000000000000000000040000000000000000000000000000000000000000000000000000000000000010000000000000000000000000000000000000000000000000000000000000076750000000000000000000000000000000000000000000000000000000000000001000000000000000000000000000000000000000000000000000000000000006000000000000000000000000000000000000000000000000000000000000000400000000000000000000000000000000000000000000000000000000000000000000000000000000000000000173272739bd7aa6e4e214714048a9fe69945305900000000000000000000000000000000000000000000000000000000000076750000000000000000000000000000000000000000000000000000000000000002000000000000000000000000000000000000000000000000000000000000006000000000000000000000000000000000000000000000000000000000000001800000000000000000000000000000000000000000000000000000000000000020000000000000000000000000000000000000000000000000000000000000000000000000000000000000000000000000000000000000000000000000000000030000000000000000000000000000000000000000000000000000000000000000000000000000000000000000000000000000000000000000000000000000000000000000000000000000000000000000000000000000000000000000000000c00000000000000000000000000000000000000000000000000000000000000140000000000000000000000000000000000000000000000000000000000000000300000000000000000000000006559ee34d85a88317bf0bfe307444116c631b67000000000000000000000000380275805876ff19055ea900cdb2b46a94ecf20d000000000000000000000000589dedbd617e0cbcb916a9223f4d1300c294236b0000000000000000000000000000000000000000000000000000000000000000",
        "nonce": "0x79",
        "chainId": "0x1"
      },
      "additionalContracts": [],
      "isFixedGasLimit": false
    },
    {
      "hash": "0x2f43e5f92536287c6985c777052ba88876387d76a8f4fc56553733a59f23c119",
      "transactionType": "CALL",
      "contractName": null,
      "contractAddress": "0x1a44076050125825900e736c501f859c50fe728c",
      "function": "setConfig(address,address,(uint32,uint32,bytes)[])",
      "arguments": [
        "0x06E01cB086fea9C644a2C105A9F20cfC21A526e8",
        "0xc02Ab410f0734EFa3F14628780e6e695156024C2",
        "[(30325, 2, 0x0000000000000000000000000000000000000000000000000000000000000020000000000000000000000000000000000000000000000000000000000000000000000000000000000000000000000000000000000000000000000000000000030000000000000000000000000000000000000000000000000000000000000000000000000000000000000000000000000000000000000000000000000000000000000000000000000000000000000000000000000000000000000000000000c00000000000000000000000000000000000000000000000000000000000000140000000000000000000000000000000000000000000000000000000000000000300000000000000000000000006559ee34d85a88317bf0bfe307444116c631b67000000000000000000000000380275805876ff19055ea900cdb2b46a94ecf20d000000000000000000000000589dedbd617e0cbcb916a9223f4d1300c294236b0000000000000000000000000000000000000000000000000000000000000000)]"
      ],
      "transaction": {
        "from": "0xb2105464215716e1445367bea5668f581ef7d063",
        "to": "0x1a44076050125825900e736c501f859c50fe728c",
        "gas": "0x176d3",
        "value": "0x0",
        "input": "0x6dbd9f9000000000000000000000000006e01cb086fea9c644a2c105a9f20cfc21a526e8000000000000000000000000c02ab410f0734efa3f14628780e6e695156024c200000000000000000000000000000000000000000000000000000000000000600000000000000000000000000000000000000000000000000000000000000001000000000000000000000000000000000000000000000000000000000000002000000000000000000000000000000000000000000000000000000000000076750000000000000000000000000000000000000000000000000000000000000002000000000000000000000000000000000000000000000000000000000000006000000000000000000000000000000000000000000000000000000000000001800000000000000000000000000000000000000000000000000000000000000020000000000000000000000000000000000000000000000000000000000000000000000000000000000000000000000000000000000000000000000000000000030000000000000000000000000000000000000000000000000000000000000000000000000000000000000000000000000000000000000000000000000000000000000000000000000000000000000000000000000000000000000000000000c00000000000000000000000000000000000000000000000000000000000000140000000000000000000000000000000000000000000000000000000000000000300000000000000000000000006559ee34d85a88317bf0bfe307444116c631b67000000000000000000000000380275805876ff19055ea900cdb2b46a94ecf20d000000000000000000000000589dedbd617e0cbcb916a9223f4d1300c294236b0000000000000000000000000000000000000000000000000000000000000000",
        "nonce": "0x7a",
        "chainId": "0x1"
      },
      "additionalContracts": [],
      "isFixedGasLimit": false
    },
    {
      "hash": "0x3b5a32350cf55e820ca35270cb17dacf83931420ab82145126dfcb9ca4d01361",
      "transactionType": "CALL",
      "contractName": null,
      "contractAddress": "0x1a44076050125825900e736c501f859c50fe728c",
      "function": "setConfig(address,address,(uint32,uint32,bytes)[])",
      "arguments": [
        "0xa55688C280E725704CFe8Ea30eD33fE5B91cE6a4",
        "0xbB2Ea70C9E858123480642Cf96acbcCE1372dCe1",
        "[(30325, 1, 0x0000000000000000000000000000000000000000000000000000000000000000000000000000000000000000173272739bd7aa6e4e214714048a9fe699453059), (30325, 2, 0x0000000000000000000000000000000000000000000000000000000000000020000000000000000000000000000000000000000000000000000000000000000000000000000000000000000000000000000000000000000000000000000000030000000000000000000000000000000000000000000000000000000000000000000000000000000000000000000000000000000000000000000000000000000000000000000000000000000000000000000000000000000000000000000000c00000000000000000000000000000000000000000000000000000000000000140000000000000000000000000000000000000000000000000000000000000000300000000000000000000000006559ee34d85a88317bf0bfe307444116c631b67000000000000000000000000380275805876ff19055ea900cdb2b46a94ecf20d000000000000000000000000589dedbd617e0cbcb916a9223f4d1300c294236b0000000000000000000000000000000000000000000000000000000000000000)]"
      ],
      "transaction": {
        "from": "0xb2105464215716e1445367bea5668f581ef7d063",
        "to": "0x1a44076050125825900e736c501f859c50fe728c",
        "gas": "0x1a490",
        "value": "0x0",
        "input": "0x6dbd9f90000000000000000000000000a55688c280e725704cfe8ea30ed33fe5b91ce6a4000000000000000000000000bb2ea70c9e858123480642cf96acbcce1372dce1000000000000000000000000000000000000000000000000000000000000006000000000000000000000000000000000000000000000000000000000000000020000000000000000000000000000000000000000000000000000000000000040000000000000000000000000000000000000000000000000000000000000010000000000000000000000000000000000000000000000000000000000000076750000000000000000000000000000000000000000000000000000000000000001000000000000000000000000000000000000000000000000000000000000006000000000000000000000000000000000000000000000000000000000000000400000000000000000000000000000000000000000000000000000000000000000000000000000000000000000173272739bd7aa6e4e214714048a9fe69945305900000000000000000000000000000000000000000000000000000000000076750000000000000000000000000000000000000000000000000000000000000002000000000000000000000000000000000000000000000000000000000000006000000000000000000000000000000000000000000000000000000000000001800000000000000000000000000000000000000000000000000000000000000020000000000000000000000000000000000000000000000000000000000000000000000000000000000000000000000000000000000000000000000000000000030000000000000000000000000000000000000000000000000000000000000000000000000000000000000000000000000000000000000000000000000000000000000000000000000000000000000000000000000000000000000000000000c00000000000000000000000000000000000000000000000000000000000000140000000000000000000000000000000000000000000000000000000000000000300000000000000000000000006559ee34d85a88317bf0bfe307444116c631b67000000000000000000000000380275805876ff19055ea900cdb2b46a94ecf20d000000000000000000000000589dedbd617e0cbcb916a9223f4d1300c294236b0000000000000000000000000000000000000000000000000000000000000000",
        "nonce": "0x7b",
        "chainId": "0x1"
      },
      "additionalContracts": [],
      "isFixedGasLimit": false
    },
    {
      "hash": "0x7b8c81914feb831fdee02635cdb21fa28dea54a848b31d8d3b091abc059e308c",
      "transactionType": "CALL",
      "contractName": null,
      "contractAddress": "0x1a44076050125825900e736c501f859c50fe728c",
      "function": "setConfig(address,address,(uint32,uint32,bytes)[])",
      "arguments": [
        "0xa55688C280E725704CFe8Ea30eD33fE5B91cE6a4",
        "0xc02Ab410f0734EFa3F14628780e6e695156024C2",
        "[(30325, 2, 0x0000000000000000000000000000000000000000000000000000000000000020000000000000000000000000000000000000000000000000000000000000000000000000000000000000000000000000000000000000000000000000000000030000000000000000000000000000000000000000000000000000000000000000000000000000000000000000000000000000000000000000000000000000000000000000000000000000000000000000000000000000000000000000000000c00000000000000000000000000000000000000000000000000000000000000140000000000000000000000000000000000000000000000000000000000000000300000000000000000000000006559ee34d85a88317bf0bfe307444116c631b67000000000000000000000000380275805876ff19055ea900cdb2b46a94ecf20d000000000000000000000000589dedbd617e0cbcb916a9223f4d1300c294236b0000000000000000000000000000000000000000000000000000000000000000)]"
      ],
      "transaction": {
        "from": "0xb2105464215716e1445367bea5668f581ef7d063",
        "to": "0x1a44076050125825900e736c501f859c50fe728c",
        "gas": "0x176d3",
        "value": "0x0",
        "input": "0x6dbd9f90000000000000000000000000a55688c280e725704cfe8ea30ed33fe5b91ce6a4000000000000000000000000c02ab410f0734efa3f14628780e6e695156024c200000000000000000000000000000000000000000000000000000000000000600000000000000000000000000000000000000000000000000000000000000001000000000000000000000000000000000000000000000000000000000000002000000000000000000000000000000000000000000000000000000000000076750000000000000000000000000000000000000000000000000000000000000002000000000000000000000000000000000000000000000000000000000000006000000000000000000000000000000000000000000000000000000000000001800000000000000000000000000000000000000000000000000000000000000020000000000000000000000000000000000000000000000000000000000000000000000000000000000000000000000000000000000000000000000000000000030000000000000000000000000000000000000000000000000000000000000000000000000000000000000000000000000000000000000000000000000000000000000000000000000000000000000000000000000000000000000000000000c00000000000000000000000000000000000000000000000000000000000000140000000000000000000000000000000000000000000000000000000000000000300000000000000000000000006559ee34d85a88317bf0bfe307444116c631b67000000000000000000000000380275805876ff19055ea900cdb2b46a94ecf20d000000000000000000000000589dedbd617e0cbcb916a9223f4d1300c294236b0000000000000000000000000000000000000000000000000000000000000000",
        "nonce": "0x7c",
        "chainId": "0x1"
      },
      "additionalContracts": [],
      "isFixedGasLimit": false
    }
  ],
  "receipts": [
    {
      "status": "0x1",
      "cumulativeGasUsed": "0x16920de",
      "logs": [
        {
          "address": "0xbb2ea70c9e858123480642cf96acbcce1372dce1",
          "topics": [
            "0x779cb2dd9d2bb1be1737d05435d744facbfb84a2a4912e21379d39beddcdc805"
          ],
          "data": "0x000000000000000000000000f1df43a3053cd18e477233b59a25fc483c2cbe0f00000000000000000000000000000000000000000000000000000000000076750000000000000000000000000000000000000000000000000000000000000000000000000000000000000000173272739bd7aa6e4e214714048a9fe699453059",
          "blockHash": "0xe80fb9a278d27df7a0ef5ef834c419bbffb924e40399c981a6043d6f75c6a7a6",
          "blockNumber": "0x14fd904",
          "transactionHash": "0x76166c92883ef87043374be0c2243a806279d70a411b272b80946ab5ea27760c",
          "transactionIndex": "0x147",
          "logIndex": "0x248",
          "removed": false
        },
        {
          "address": "0xbb2ea70c9e858123480642cf96acbcce1372dce1",
          "topics": [
            "0x82118522aa536ac0e96cc5c689407ae42b89d592aa133890a01f1509842f5081"
          ],
          "data": "0x000000000000000000000000f1df43a3053cd18e477233b59a25fc483c2cbe0f00000000000000000000000000000000000000000000000000000000000076750000000000000000000000000000000000000000000000000000000000000060000000000000000000000000000000000000000000000000000000000000000000000000000000000000000000000000000000000000000000000000000000030000000000000000000000000000000000000000000000000000000000000000000000000000000000000000000000000000000000000000000000000000000000000000000000000000000000000000000000000000000000000000000000c00000000000000000000000000000000000000000000000000000000000000140000000000000000000000000000000000000000000000000000000000000000300000000000000000000000006559ee34d85a88317bf0bfe307444116c631b67000000000000000000000000380275805876ff19055ea900cdb2b46a94ecf20d000000000000000000000000589dedbd617e0cbcb916a9223f4d1300c294236b0000000000000000000000000000000000000000000000000000000000000000",
          "blockHash": "0xe80fb9a278d27df7a0ef5ef834c419bbffb924e40399c981a6043d6f75c6a7a6",
          "blockNumber": "0x14fd904",
          "transactionHash": "0x76166c92883ef87043374be0c2243a806279d70a411b272b80946ab5ea27760c",
          "transactionIndex": "0x147",
          "logIndex": "0x249",
          "removed": false
        }
      ],
      "logsBloom": "0x00000000000000000000000000000000000000000000000000000000000000000400000000000000000000000000000000000000000000000000000000000000000000000000000000000040000000000000200000000000002000000000000000000000000000000000000000000000000000000000000000000000000000000000000000000000001000000000000000000000000000000000000000000000000000000000000000000002000000000000000000000000000000000000000200000000000000000000000000000000000000000000000000000000000000000008000000000000000000000000000000000000000000000000000000000010",
      "type": "0x2",
      "transactionHash": "0x76166c92883ef87043374be0c2243a806279d70a411b272b80946ab5ea27760c",
      "transactionIndex": "0x147",
      "blockHash": "0xe80fb9a278d27df7a0ef5ef834c419bbffb924e40399c981a6043d6f75c6a7a6",
      "blockNumber": "0x14fd904",
      "gasUsed": "0x114a1",
      "effectiveGasPrice": "0x29d36012",
      "from": "0xb2105464215716e1445367bea5668f581ef7d063",
      "to": "0x1a44076050125825900e736c501f859c50fe728c",
      "contractAddress": null
    },
    {
      "status": "0x1",
      "cumulativeGasUsed": "0x16a1639",
      "logs": [
        {
          "address": "0xc02ab410f0734efa3f14628780e6e695156024c2",
          "topics": [
            "0x82118522aa536ac0e96cc5c689407ae42b89d592aa133890a01f1509842f5081"
          ],
          "data": "0x000000000000000000000000f1df43a3053cd18e477233b59a25fc483c2cbe0f00000000000000000000000000000000000000000000000000000000000076750000000000000000000000000000000000000000000000000000000000000060000000000000000000000000000000000000000000000000000000000000000000000000000000000000000000000000000000000000000000000000000000030000000000000000000000000000000000000000000000000000000000000000000000000000000000000000000000000000000000000000000000000000000000000000000000000000000000000000000000000000000000000000000000c00000000000000000000000000000000000000000000000000000000000000140000000000000000000000000000000000000000000000000000000000000000300000000000000000000000006559ee34d85a88317bf0bfe307444116c631b67000000000000000000000000380275805876ff19055ea900cdb2b46a94ecf20d000000000000000000000000589dedbd617e0cbcb916a9223f4d1300c294236b0000000000000000000000000000000000000000000000000000000000000000",
          "blockHash": "0xe80fb9a278d27df7a0ef5ef834c419bbffb924e40399c981a6043d6f75c6a7a6",
          "blockNumber": "0x14fd904",
          "transactionHash": "0xb1518e33e652a66adc58aac9d0c261ba882f7edbc3581c11979b07fcbe9e81ee",
          "transactionIndex": "0x148",
          "logIndex": "0x24a",
          "removed": false
        }
      ],
      "logsBloom": "0x00000000000000000000000000000000000000000000000000000000000000000000000000000004000000000000000000000000000000000000000000000000000000000000000000000000000000000000000000000000002000000000000000000000000000000000000000000000000000000000000000000000000000000000000100000000000010000000000000000000000000000000000000000000000000000000000000000002000000000000000000000000000000000000000000000000000000000000000000000000000000000000000000000000000000000000000000000000000000000000000000000000000000000000000000000010",
      "type": "0x2",
      "transactionHash": "0xb1518e33e652a66adc58aac9d0c261ba882f7edbc3581c11979b07fcbe9e81ee",
      "transactionIndex": "0x148",
      "blockHash": "0xe80fb9a278d27df7a0ef5ef834c419bbffb924e40399c981a6043d6f75c6a7a6",
      "blockNumber": "0x14fd904",
      "gasUsed": "0xf55b",
      "effectiveGasPrice": "0x29d36012",
      "from": "0xb2105464215716e1445367bea5668f581ef7d063",
      "to": "0x1a44076050125825900e736c501f859c50fe728c",
      "contractAddress": null
    },
    {
      "status": "0x1",
      "cumulativeGasUsed": "0x16b35ca",
      "logs": [
        {
          "address": "0xbb2ea70c9e858123480642cf96acbcce1372dce1",
          "topics": [
            "0x779cb2dd9d2bb1be1737d05435d744facbfb84a2a4912e21379d39beddcdc805"
          ],
          "data": "0x000000000000000000000000c209a627a7b0a19f16a963d9f7281667a2d9eff200000000000000000000000000000000000000000000000000000000000076750000000000000000000000000000000000000000000000000000000000000000000000000000000000000000173272739bd7aa6e4e214714048a9fe699453059",
          "blockHash": "0xe80fb9a278d27df7a0ef5ef834c419bbffb924e40399c981a6043d6f75c6a7a6",
          "blockNumber": "0x14fd904",
          "transactionHash": "0x3f4fd7c3772909548d1fabdeaf9f7e5e2ec0bee3fc98fee14f6b0fe92b863730",
          "transactionIndex": "0x149",
          "logIndex": "0x24b",
          "removed": false
        },
        {
          "address": "0xbb2ea70c9e858123480642cf96acbcce1372dce1",
          "topics": [
            "0x82118522aa536ac0e96cc5c689407ae42b89d592aa133890a01f1509842f5081"
          ],
          "data": "0x000000000000000000000000c209a627a7b0a19f16a963d9f7281667a2d9eff200000000000000000000000000000000000000000000000000000000000076750000000000000000000000000000000000000000000000000000000000000060000000000000000000000000000000000000000000000000000000000000000000000000000000000000000000000000000000000000000000000000000000030000000000000000000000000000000000000000000000000000000000000000000000000000000000000000000000000000000000000000000000000000000000000000000000000000000000000000000000000000000000000000000000c00000000000000000000000000000000000000000000000000000000000000140000000000000000000000000000000000000000000000000000000000000000300000000000000000000000006559ee34d85a88317bf0bfe307444116c631b67000000000000000000000000380275805876ff19055ea900cdb2b46a94ecf20d000000000000000000000000589dedbd617e0cbcb916a9223f4d1300c294236b0000000000000000000000000000000000000000000000000000000000000000",
          "blockHash": "0xe80fb9a278d27df7a0ef5ef834c419bbffb924e40399c981a6043d6f75c6a7a6",
          "blockNumber": "0x14fd904",
          "transactionHash": "0x3f4fd7c3772909548d1fabdeaf9f7e5e2ec0bee3fc98fee14f6b0fe92b863730",
          "transactionIndex": "0x149",
          "logIndex": "0x24c",
          "removed": false
        }
      ],
      "logsBloom": "0x00000000000000000000000000000000000000000000000000000000000000000400000000000000000000000000000000000000000000000000000000000000000000000000000000000040000000000000200000000000002000000000000000000000000000000000000000000000000000000000000000000000000000000000000000000000001000000000000000000000000000000000000000000000000000000000000000000002000000000000000000000000000000000000000200000000000000000000000000000000000000000000000000000000000000000008000000000000000000000000000000000000000000000000000000000010",
      "type": "0x2",
      "transactionHash": "0x3f4fd7c3772909548d1fabdeaf9f7e5e2ec0bee3fc98fee14f6b0fe92b863730",
      "transactionIndex": "0x149",
      "blockHash": "0xe80fb9a278d27df7a0ef5ef834c419bbffb924e40399c981a6043d6f75c6a7a6",
      "blockNumber": "0x14fd904",
      "gasUsed": "0x11f91",
      "effectiveGasPrice": "0x29d36012",
      "from": "0xb2105464215716e1445367bea5668f581ef7d063",
      "to": "0x1a44076050125825900e736c501f859c50fe728c",
      "contractAddress": null
    },
    {
      "status": "0x1",
      "cumulativeGasUsed": "0x16c3615",
      "logs": [
        {
          "address": "0xc02ab410f0734efa3f14628780e6e695156024c2",
          "topics": [
            "0x82118522aa536ac0e96cc5c689407ae42b89d592aa133890a01f1509842f5081"
          ],
          "data": "0x000000000000000000000000c209a627a7b0a19f16a963d9f7281667a2d9eff200000000000000000000000000000000000000000000000000000000000076750000000000000000000000000000000000000000000000000000000000000060000000000000000000000000000000000000000000000000000000000000000000000000000000000000000000000000000000000000000000000000000000030000000000000000000000000000000000000000000000000000000000000000000000000000000000000000000000000000000000000000000000000000000000000000000000000000000000000000000000000000000000000000000000c00000000000000000000000000000000000000000000000000000000000000140000000000000000000000000000000000000000000000000000000000000000300000000000000000000000006559ee34d85a88317bf0bfe307444116c631b67000000000000000000000000380275805876ff19055ea900cdb2b46a94ecf20d000000000000000000000000589dedbd617e0cbcb916a9223f4d1300c294236b0000000000000000000000000000000000000000000000000000000000000000",
          "blockHash": "0xe80fb9a278d27df7a0ef5ef834c419bbffb924e40399c981a6043d6f75c6a7a6",
          "blockNumber": "0x14fd904",
          "transactionHash": "0xb5ffe71152552a3bab8f986c638df88be508f76044c0117d51076d0794a61885",
          "transactionIndex": "0x14a",
          "logIndex": "0x24d",
          "removed": false
        }
      ],
      "logsBloom": "0x00000000000000000000000000000000000000000000000000000000000000000000000000000004000000000000000000000000000000000000000000000000000000000000000000000000000000000000000000000000002000000000000000000000000000000000000000000000000000000000000000000000000000000000000100000000000010000000000000000000000000000000000000000000000000000000000000000002000000000000000000000000000000000000000000000000000000000000000000000000000000000000000000000000000000000000000000000000000000000000000000000000000000000000000000000010",
      "type": "0x2",
      "transactionHash": "0xb5ffe71152552a3bab8f986c638df88be508f76044c0117d51076d0794a61885",
      "transactionIndex": "0x14a",
      "blockHash": "0xe80fb9a278d27df7a0ef5ef834c419bbffb924e40399c981a6043d6f75c6a7a6",
      "blockNumber": "0x14fd904",
      "gasUsed": "0x1004b",
      "effectiveGasPrice": "0x29d36012",
      "from": "0xb2105464215716e1445367bea5668f581ef7d063",
      "to": "0x1a44076050125825900e736c501f859c50fe728c",
      "contractAddress": null
    },
    {
      "status": "0x1",
      "cumulativeGasUsed": "0x16d55a6",
      "logs": [
        {
          "address": "0xbb2ea70c9e858123480642cf96acbcce1372dce1",
          "topics": [
            "0x779cb2dd9d2bb1be1737d05435d744facbfb84a2a4912e21379d39beddcdc805"
          ],
          "data": "0x0000000000000000000000005e87d7e75b272fb7150b4d1a05afb6bd7147495000000000000000000000000000000000000000000000000000000000000076750000000000000000000000000000000000000000000000000000000000000000000000000000000000000000173272739bd7aa6e4e214714048a9fe699453059",
          "blockHash": "0xe80fb9a278d27df7a0ef5ef834c419bbffb924e40399c981a6043d6f75c6a7a6",
          "blockNumber": "0x14fd904",
          "transactionHash": "0xf4ca5383e4e2434b4b0fff090fe0fcd22e3b86321605292bd868e6cf4161e56c",
          "transactionIndex": "0x14b",
          "logIndex": "0x24e",
          "removed": false
        },
        {
          "address": "0xbb2ea70c9e858123480642cf96acbcce1372dce1",
          "topics": [
            "0x82118522aa536ac0e96cc5c689407ae42b89d592aa133890a01f1509842f5081"
          ],
          "data": "0x0000000000000000000000005e87d7e75b272fb7150b4d1a05afb6bd7147495000000000000000000000000000000000000000000000000000000000000076750000000000000000000000000000000000000000000000000000000000000060000000000000000000000000000000000000000000000000000000000000000000000000000000000000000000000000000000000000000000000000000000030000000000000000000000000000000000000000000000000000000000000000000000000000000000000000000000000000000000000000000000000000000000000000000000000000000000000000000000000000000000000000000000c00000000000000000000000000000000000000000000000000000000000000140000000000000000000000000000000000000000000000000000000000000000300000000000000000000000006559ee34d85a88317bf0bfe307444116c631b67000000000000000000000000380275805876ff19055ea900cdb2b46a94ecf20d000000000000000000000000589dedbd617e0cbcb916a9223f4d1300c294236b0000000000000000000000000000000000000000000000000000000000000000",
          "blockHash": "0xe80fb9a278d27df7a0ef5ef834c419bbffb924e40399c981a6043d6f75c6a7a6",
          "blockNumber": "0x14fd904",
          "transactionHash": "0xf4ca5383e4e2434b4b0fff090fe0fcd22e3b86321605292bd868e6cf4161e56c",
          "transactionIndex": "0x14b",
          "logIndex": "0x24f",
          "removed": false
        }
      ],
      "logsBloom": "0x00000000000000000000000000000000000000000000000000000000000000000400000000000000000000000000000000000000000000000000000000000000000000000000000000000040000000000000200000000000002000000000000000000000000000000000000000000000000000000000000000000000000000000000000000000000001000000000000000000000000000000000000000000000000000000000000000000002000000000000000000000000000000000000000200000000000000000000000000000000000000000000000000000000000000000008000000000000000000000000000000000000000000000000000000000010",
      "type": "0x2",
      "transactionHash": "0xf4ca5383e4e2434b4b0fff090fe0fcd22e3b86321605292bd868e6cf4161e56c",
      "transactionIndex": "0x14b",
      "blockHash": "0xe80fb9a278d27df7a0ef5ef834c419bbffb924e40399c981a6043d6f75c6a7a6",
      "blockNumber": "0x14fd904",
      "gasUsed": "0x11f91",
      "effectiveGasPrice": "0x29d36012",
      "from": "0xb2105464215716e1445367bea5668f581ef7d063",
      "to": "0x1a44076050125825900e736c501f859c50fe728c",
      "contractAddress": null
    },
    {
      "status": "0x1",
      "cumulativeGasUsed": "0x16e55f1",
      "logs": [
        {
          "address": "0xc02ab410f0734efa3f14628780e6e695156024c2",
          "topics": [
            "0x82118522aa536ac0e96cc5c689407ae42b89d592aa133890a01f1509842f5081"
          ],
          "data": "0x0000000000000000000000005e87d7e75b272fb7150b4d1a05afb6bd7147495000000000000000000000000000000000000000000000000000000000000076750000000000000000000000000000000000000000000000000000000000000060000000000000000000000000000000000000000000000000000000000000000000000000000000000000000000000000000000000000000000000000000000030000000000000000000000000000000000000000000000000000000000000000000000000000000000000000000000000000000000000000000000000000000000000000000000000000000000000000000000000000000000000000000000c00000000000000000000000000000000000000000000000000000000000000140000000000000000000000000000000000000000000000000000000000000000300000000000000000000000006559ee34d85a88317bf0bfe307444116c631b67000000000000000000000000380275805876ff19055ea900cdb2b46a94ecf20d000000000000000000000000589dedbd617e0cbcb916a9223f4d1300c294236b0000000000000000000000000000000000000000000000000000000000000000",
          "blockHash": "0xe80fb9a278d27df7a0ef5ef834c419bbffb924e40399c981a6043d6f75c6a7a6",
          "blockNumber": "0x14fd904",
          "transactionHash": "0x50d21901f5e555551505fca65d8a36b8ed6516b339e598e5bb435761e77b1e23",
          "transactionIndex": "0x14c",
          "logIndex": "0x250",
          "removed": false
        }
      ],
      "logsBloom": "0x00000000000000000000000000000000000000000000000000000000000000000000000000000004000000000000000000000000000000000000000000000000000000000000000000000000000000000000000000000000002000000000000000000000000000000000000000000000000000000000000000000000000000000000000100000000000010000000000000000000000000000000000000000000000000000000000000000002000000000000000000000000000000000000000000000000000000000000000000000000000000000000000000000000000000000000000000000000000000000000000000000000000000000000000000000010",
      "type": "0x2",
      "transactionHash": "0x50d21901f5e555551505fca65d8a36b8ed6516b339e598e5bb435761e77b1e23",
      "transactionIndex": "0x14c",
      "blockHash": "0xe80fb9a278d27df7a0ef5ef834c419bbffb924e40399c981a6043d6f75c6a7a6",
      "blockNumber": "0x14fd904",
      "gasUsed": "0x1004b",
      "effectiveGasPrice": "0x29d36012",
      "from": "0xb2105464215716e1445367bea5668f581ef7d063",
      "to": "0x1a44076050125825900e736c501f859c50fe728c",
      "contractAddress": null
    },
    {
      "status": "0x1",
      "cumulativeGasUsed": "0x16f7582",
      "logs": [
        {
          "address": "0xbb2ea70c9e858123480642cf96acbcce1372dce1",
          "topics": [
            "0x779cb2dd9d2bb1be1737d05435d744facbfb84a2a4912e21379d39beddcdc805"
          ],
          "data": "0x00000000000000000000000006e01cb086fea9c644a2c105a9f20cfc21a526e800000000000000000000000000000000000000000000000000000000000076750000000000000000000000000000000000000000000000000000000000000000000000000000000000000000173272739bd7aa6e4e214714048a9fe699453059",
          "blockHash": "0xe80fb9a278d27df7a0ef5ef834c419bbffb924e40399c981a6043d6f75c6a7a6",
          "blockNumber": "0x14fd904",
          "transactionHash": "0x963f84aceee2b8037dd7ad9e29c82ec662960530254dd70910cfc11f82451155",
          "transactionIndex": "0x14d",
          "logIndex": "0x251",
          "removed": false
        },
        {
          "address": "0xbb2ea70c9e858123480642cf96acbcce1372dce1",
          "topics": [
            "0x82118522aa536ac0e96cc5c689407ae42b89d592aa133890a01f1509842f5081"
          ],
          "data": "0x00000000000000000000000006e01cb086fea9c644a2c105a9f20cfc21a526e800000000000000000000000000000000000000000000000000000000000076750000000000000000000000000000000000000000000000000000000000000060000000000000000000000000000000000000000000000000000000000000000000000000000000000000000000000000000000000000000000000000000000030000000000000000000000000000000000000000000000000000000000000000000000000000000000000000000000000000000000000000000000000000000000000000000000000000000000000000000000000000000000000000000000c00000000000000000000000000000000000000000000000000000000000000140000000000000000000000000000000000000000000000000000000000000000300000000000000000000000006559ee34d85a88317bf0bfe307444116c631b67000000000000000000000000380275805876ff19055ea900cdb2b46a94ecf20d000000000000000000000000589dedbd617e0cbcb916a9223f4d1300c294236b0000000000000000000000000000000000000000000000000000000000000000",
          "blockHash": "0xe80fb9a278d27df7a0ef5ef834c419bbffb924e40399c981a6043d6f75c6a7a6",
          "blockNumber": "0x14fd904",
          "transactionHash": "0x963f84aceee2b8037dd7ad9e29c82ec662960530254dd70910cfc11f82451155",
          "transactionIndex": "0x14d",
          "logIndex": "0x252",
          "removed": false
        }
      ],
      "logsBloom": "0x00000000000000000000000000000000000000000000000000000000000000000400000000000000000000000000000000000000000000000000000000000000000000000000000000000040000000000000200000000000002000000000000000000000000000000000000000000000000000000000000000000000000000000000000000000000001000000000000000000000000000000000000000000000000000000000000000000002000000000000000000000000000000000000000200000000000000000000000000000000000000000000000000000000000000000008000000000000000000000000000000000000000000000000000000000010",
      "type": "0x2",
      "transactionHash": "0x963f84aceee2b8037dd7ad9e29c82ec662960530254dd70910cfc11f82451155",
      "transactionIndex": "0x14d",
      "blockHash": "0xe80fb9a278d27df7a0ef5ef834c419bbffb924e40399c981a6043d6f75c6a7a6",
      "blockNumber": "0x14fd904",
      "gasUsed": "0x11f91",
      "effectiveGasPrice": "0x29d36012",
      "from": "0xb2105464215716e1445367bea5668f581ef7d063",
      "to": "0x1a44076050125825900e736c501f859c50fe728c",
      "contractAddress": null
    },
    {
      "status": "0x1",
      "cumulativeGasUsed": "0x17075cd",
      "logs": [
        {
          "address": "0xc02ab410f0734efa3f14628780e6e695156024c2",
          "topics": [
            "0x82118522aa536ac0e96cc5c689407ae42b89d592aa133890a01f1509842f5081"
          ],
          "data": "0x00000000000000000000000006e01cb086fea9c644a2c105a9f20cfc21a526e800000000000000000000000000000000000000000000000000000000000076750000000000000000000000000000000000000000000000000000000000000060000000000000000000000000000000000000000000000000000000000000000000000000000000000000000000000000000000000000000000000000000000030000000000000000000000000000000000000000000000000000000000000000000000000000000000000000000000000000000000000000000000000000000000000000000000000000000000000000000000000000000000000000000000c00000000000000000000000000000000000000000000000000000000000000140000000000000000000000000000000000000000000000000000000000000000300000000000000000000000006559ee34d85a88317bf0bfe307444116c631b67000000000000000000000000380275805876ff19055ea900cdb2b46a94ecf20d000000000000000000000000589dedbd617e0cbcb916a9223f4d1300c294236b0000000000000000000000000000000000000000000000000000000000000000",
          "blockHash": "0xe80fb9a278d27df7a0ef5ef834c419bbffb924e40399c981a6043d6f75c6a7a6",
          "blockNumber": "0x14fd904",
          "transactionHash": "0x2f43e5f92536287c6985c777052ba88876387d76a8f4fc56553733a59f23c119",
          "transactionIndex": "0x14e",
          "logIndex": "0x253",
          "removed": false
        }
      ],
      "logsBloom": "0x00000000000000000000000000000000000000000000000000000000000000000000000000000004000000000000000000000000000000000000000000000000000000000000000000000000000000000000000000000000002000000000000000000000000000000000000000000000000000000000000000000000000000000000000100000000000010000000000000000000000000000000000000000000000000000000000000000002000000000000000000000000000000000000000000000000000000000000000000000000000000000000000000000000000000000000000000000000000000000000000000000000000000000000000000000010",
      "type": "0x2",
      "transactionHash": "0x2f43e5f92536287c6985c777052ba88876387d76a8f4fc56553733a59f23c119",
      "transactionIndex": "0x14e",
      "blockHash": "0xe80fb9a278d27df7a0ef5ef834c419bbffb924e40399c981a6043d6f75c6a7a6",
      "blockNumber": "0x14fd904",
      "gasUsed": "0x1004b",
      "effectiveGasPrice": "0x29d36012",
      "from": "0xb2105464215716e1445367bea5668f581ef7d063",
      "to": "0x1a44076050125825900e736c501f859c50fe728c",
      "contractAddress": null
    },
    {
      "status": "0x1",
      "cumulativeGasUsed": "0x171955e",
      "logs": [
        {
          "address": "0xbb2ea70c9e858123480642cf96acbcce1372dce1",
          "topics": [
            "0x779cb2dd9d2bb1be1737d05435d744facbfb84a2a4912e21379d39beddcdc805"
          ],
          "data": "0x000000000000000000000000a55688c280e725704cfe8ea30ed33fe5b91ce6a400000000000000000000000000000000000000000000000000000000000076750000000000000000000000000000000000000000000000000000000000000000000000000000000000000000173272739bd7aa6e4e214714048a9fe699453059",
          "blockHash": "0xe80fb9a278d27df7a0ef5ef834c419bbffb924e40399c981a6043d6f75c6a7a6",
          "blockNumber": "0x14fd904",
          "transactionHash": "0x3b5a32350cf55e820ca35270cb17dacf83931420ab82145126dfcb9ca4d01361",
          "transactionIndex": "0x14f",
          "logIndex": "0x254",
          "removed": false
        },
        {
          "address": "0xbb2ea70c9e858123480642cf96acbcce1372dce1",
          "topics": [
            "0x82118522aa536ac0e96cc5c689407ae42b89d592aa133890a01f1509842f5081"
          ],
          "data": "0x000000000000000000000000a55688c280e725704cfe8ea30ed33fe5b91ce6a400000000000000000000000000000000000000000000000000000000000076750000000000000000000000000000000000000000000000000000000000000060000000000000000000000000000000000000000000000000000000000000000000000000000000000000000000000000000000000000000000000000000000030000000000000000000000000000000000000000000000000000000000000000000000000000000000000000000000000000000000000000000000000000000000000000000000000000000000000000000000000000000000000000000000c00000000000000000000000000000000000000000000000000000000000000140000000000000000000000000000000000000000000000000000000000000000300000000000000000000000006559ee34d85a88317bf0bfe307444116c631b67000000000000000000000000380275805876ff19055ea900cdb2b46a94ecf20d000000000000000000000000589dedbd617e0cbcb916a9223f4d1300c294236b0000000000000000000000000000000000000000000000000000000000000000",
          "blockHash": "0xe80fb9a278d27df7a0ef5ef834c419bbffb924e40399c981a6043d6f75c6a7a6",
          "blockNumber": "0x14fd904",
          "transactionHash": "0x3b5a32350cf55e820ca35270cb17dacf83931420ab82145126dfcb9ca4d01361",
          "transactionIndex": "0x14f",
          "logIndex": "0x255",
          "removed": false
        }
      ],
      "logsBloom": "0x00000000000000000000000000000000000000000000000000000000000000000400000000000000000000000000000000000000000000000000000000000000000000000000000000000040000000000000200000000000002000000000000000000000000000000000000000000000000000000000000000000000000000000000000000000000001000000000000000000000000000000000000000000000000000000000000000000002000000000000000000000000000000000000000200000000000000000000000000000000000000000000000000000000000000000008000000000000000000000000000000000000000000000000000000000010",
      "type": "0x2",
      "transactionHash": "0x3b5a32350cf55e820ca35270cb17dacf83931420ab82145126dfcb9ca4d01361",
      "transactionIndex": "0x14f",
      "blockHash": "0xe80fb9a278d27df7a0ef5ef834c419bbffb924e40399c981a6043d6f75c6a7a6",
      "blockNumber": "0x14fd904",
      "gasUsed": "0x11f91",
      "effectiveGasPrice": "0x29d36012",
      "from": "0xb2105464215716e1445367bea5668f581ef7d063",
      "to": "0x1a44076050125825900e736c501f859c50fe728c",
      "contractAddress": null
    },
    {
      "status": "0x1",
      "cumulativeGasUsed": "0x17295a9",
      "logs": [
        {
          "address": "0xc02ab410f0734efa3f14628780e6e695156024c2",
          "topics": [
            "0x82118522aa536ac0e96cc5c689407ae42b89d592aa133890a01f1509842f5081"
          ],
          "data": "0x000000000000000000000000a55688c280e725704cfe8ea30ed33fe5b91ce6a400000000000000000000000000000000000000000000000000000000000076750000000000000000000000000000000000000000000000000000000000000060000000000000000000000000000000000000000000000000000000000000000000000000000000000000000000000000000000000000000000000000000000030000000000000000000000000000000000000000000000000000000000000000000000000000000000000000000000000000000000000000000000000000000000000000000000000000000000000000000000000000000000000000000000c00000000000000000000000000000000000000000000000000000000000000140000000000000000000000000000000000000000000000000000000000000000300000000000000000000000006559ee34d85a88317bf0bfe307444116c631b67000000000000000000000000380275805876ff19055ea900cdb2b46a94ecf20d000000000000000000000000589dedbd617e0cbcb916a9223f4d1300c294236b0000000000000000000000000000000000000000000000000000000000000000",
          "blockHash": "0xe80fb9a278d27df7a0ef5ef834c419bbffb924e40399c981a6043d6f75c6a7a6",
          "blockNumber": "0x14fd904",
          "transactionHash": "0x7b8c81914feb831fdee02635cdb21fa28dea54a848b31d8d3b091abc059e308c",
          "transactionIndex": "0x150",
          "logIndex": "0x256",
          "removed": false
        }
      ],
      "logsBloom": "0x00000000000000000000000000000000000000000000000000000000000000000000000000000004000000000000000000000000000000000000000000000000000000000000000000000000000000000000000000000000002000000000000000000000000000000000000000000000000000000000000000000000000000000000000100000000000010000000000000000000000000000000000000000000000000000000000000000002000000000000000000000000000000000000000000000000000000000000000000000000000000000000000000000000000000000000000000000000000000000000000000000000000000000000000000000010",
      "type": "0x2",
      "transactionHash": "0x7b8c81914feb831fdee02635cdb21fa28dea54a848b31d8d3b091abc059e308c",
      "transactionIndex": "0x150",
      "blockHash": "0xe80fb9a278d27df7a0ef5ef834c419bbffb924e40399c981a6043d6f75c6a7a6",
      "blockNumber": "0x14fd904",
      "gasUsed": "0x1004b",
      "effectiveGasPrice": "0x29d36012",
      "from": "0xb2105464215716e1445367bea5668f581ef7d063",
      "to": "0x1a44076050125825900e736c501f859c50fe728c",
      "contractAddress": null
    }
  ],
  "libraries": [],
  "pending": [],
  "returns": {},
  "timestamp": 1741533042,
  "chain": 1,
  "commit": "32717383"
}
