{
  "transactions": [
    {
      "hash": "0x71983ffa40280deb6e2ae568a52da71abf4ed94ce2e21fe48f619b7db0be7f88",
      "transactionType": "CALL",
      "contractName": null,
      "contractAddress": "0x1a44076050125825900e736c501f859c50fe728c",
      "function": "setConfig(address,address,(uint32,uint32,bytes)[])",
      "arguments": [
        "0xf1dF43A3053cd18E477233B59a25fC483C2cBe0f",
        "0xbB2Ea70C9E858123480642Cf96acbcCE1372dCe1",
        "[(30325, 1, 0x0000000000000000000000000000000000000000000000000000000000000000000000000000000000000000173272739bd7aa6e4e214714048a9fe699453059), (30325, 2, 0x0000000000000000000000000000000000000000000000000000000000000020000000000000000000000000000000000000000000000000000000000000000500000000000000000000000000000000000000000000000000000000000000030000000000000000000000000000000000000000000000000000000000000000000000000000000000000000000000000000000000000000000000000000000000000000000000000000000000000000000000000000000000000000000000c00000000000000000000000000000000000000000000000000000000000000140000000000000000000000000000000000000000000000000000000000000000300000000000000000000000006559ee34d85a88317bf0bfe307444116c631b67000000000000000000000000380275805876ff19055ea900cdb2b46a94ecf20d000000000000000000000000589dedbd617e0cbcb916a9223f4d1300c294236b0000000000000000000000000000000000000000000000000000000000000000)]"
      ],
      "transaction": {
        "from": "0xb2105464215716e1445367bea5668f581ef7d063",
        "to": "0x1a44076050125825900e736c501f859c50fe728c",
        "gas": "0x43e49",
        "value": "0x0",
        "input": "0x6dbd9f90000000000000000000000000f1df43a3053cd18e477233b59a25fc483c2cbe0f000000000000000000000000bb2ea70c9e858123480642cf96acbcce1372dce1000000000000000000000000000000000000000000000000000000000000006000000000000000000000000000000000000000000000000000000000000000020000000000000000000000000000000000000000000000000000000000000040000000000000000000000000000000000000000000000000000000000000010000000000000000000000000000000000000000000000000000000000000076750000000000000000000000000000000000000000000000000000000000000001000000000000000000000000000000000000000000000000000000000000006000000000000000000000000000000000000000000000000000000000000000400000000000000000000000000000000000000000000000000000000000000000000000000000000000000000173272739bd7aa6e4e214714048a9fe69945305900000000000000000000000000000000000000000000000000000000000076750000000000000000000000000000000000000000000000000000000000000002000000000000000000000000000000000000000000000000000000000000006000000000000000000000000000000000000000000000000000000000000001800000000000000000000000000000000000000000000000000000000000000020000000000000000000000000000000000000000000000000000000000000000500000000000000000000000000000000000000000000000000000000000000030000000000000000000000000000000000000000000000000000000000000000000000000000000000000000000000000000000000000000000000000000000000000000000000000000000000000000000000000000000000000000000000c00000000000000000000000000000000000000000000000000000000000000140000000000000000000000000000000000000000000000000000000000000000300000000000000000000000006559ee34d85a88317bf0bfe307444116c631b67000000000000000000000000380275805876ff19055ea900cdb2b46a94ecf20d000000000000000000000000589dedbd617e0cbcb916a9223f4d1300c294236b0000000000000000000000000000000000000000000000000000000000000000",
        "nonce": "0x26",
        "chainId": "0x1"
      },
      "additionalContracts": [],
      "isFixedGasLimit": false
    },
    {
      "hash": "0xc54cb8d4dce2bdb2c0d9ec540da91d298139787c81a4b24743338b1b4c4405f4",
      "transactionType": "CALL",
      "contractName": null,
      "contractAddress": "0x1a44076050125825900e736c501f859c50fe728c",
      "function": "setSendLibrary(address,uint32,address)",
      "arguments": [
        "0xf1dF43A3053cd18E477233B59a25fC483C2cBe0f",
        "30325",
        "0xbB2Ea70C9E858123480642Cf96acbcCE1372dCe1"
      ],
      "transaction": {
        "from": "0xb2105464215716e1445367bea5668f581ef7d063",
        "to": "0x1a44076050125825900e736c501f859c50fe728c",
        "gas": "0x1378b",
        "value": "0x0",
        "input": "0x9535ff30000000000000000000000000f1df43a3053cd18e477233b59a25fc483c2cbe0f0000000000000000000000000000000000000000000000000000000000007675000000000000000000000000bb2ea70c9e858123480642cf96acbcce1372dce1",
        "nonce": "0x27",
        "chainId": "0x1"
      },
      "additionalContracts": [],
      "isFixedGasLimit": false
    },
    {
      "hash": "0x501dfc158eb704189daf86a7d9653ed609d88091f8f710b575018cc56cc06b4f",
      "transactionType": "CALL",
      "contractName": null,
      "contractAddress": "0x1a44076050125825900e736c501f859c50fe728c",
      "function": "setReceiveLibrary(address,uint32,address,uint256)",
      "arguments": [
        "0xf1dF43A3053cd18E477233B59a25fC483C2cBe0f",
        "30325",
        "0xc02Ab410f0734EFa3F14628780e6e695156024C2",
        "0"
      ],
      "transaction": {
        "from": "0xb2105464215716e1445367bea5668f581ef7d063",
        "to": "0x1a44076050125825900e736c501f859c50fe728c",
        "gas": "0x17001",
        "value": "0x0",
        "input": "0x6a14d715000000000000000000000000f1df43a3053cd18e477233b59a25fc483c2cbe0f0000000000000000000000000000000000000000000000000000000000007675000000000000000000000000c02ab410f0734efa3f14628780e6e695156024c20000000000000000000000000000000000000000000000000000000000000000",
        "nonce": "0x28",
        "chainId": "0x1"
      },
      "additionalContracts": [],
      "isFixedGasLimit": false
    }
  ],
  "receipts": [
    {
      "status": "0x1",
      "cumulativeGasUsed": "0xbe99dd",
      "logs": [
        {
          "address": "0xbb2ea70c9e858123480642cf96acbcce1372dce1",
          "topics": [
            "0x779cb2dd9d2bb1be1737d05435d744facbfb84a2a4912e21379d39beddcdc805"
          ],
          "data": "0x000000000000000000000000f1df43a3053cd18e477233b59a25fc483c2cbe0f00000000000000000000000000000000000000000000000000000000000076750000000000000000000000000000000000000000000000000000000000000000000000000000000000000000173272739bd7aa6e4e214714048a9fe699453059",
          "blockHash": "0xcbddcf24832965686dcbff82eac35150989a985676a7cce3afbcb42313bd46ef",
          "blockNumber": "0x14f5284",
          "transactionHash": "0x71983ffa40280deb6e2ae568a52da71abf4ed94ce2e21fe48f619b7db0be7f88",
          "transactionIndex": "0xa1",
          "logIndex": "0x130",
          "removed": false
        },
        {
          "address": "0xbb2ea70c9e858123480642cf96acbcce1372dce1",
          "topics": [
            "0x82118522aa536ac0e96cc5c689407ae42b89d592aa133890a01f1509842f5081"
          ],
          "data": "0x000000000000000000000000f1df43a3053cd18e477233b59a25fc483c2cbe0f00000000000000000000000000000000000000000000000000000000000076750000000000000000000000000000000000000000000000000000000000000060000000000000000000000000000000000000000000000000000000000000000500000000000000000000000000000000000000000000000000000000000000030000000000000000000000000000000000000000000000000000000000000000000000000000000000000000000000000000000000000000000000000000000000000000000000000000000000000000000000000000000000000000000000c00000000000000000000000000000000000000000000000000000000000000140000000000000000000000000000000000000000000000000000000000000000300000000000000000000000006559ee34d85a88317bf0bfe307444116c631b67000000000000000000000000380275805876ff19055ea900cdb2b46a94ecf20d000000000000000000000000589dedbd617e0cbcb916a9223f4d1300c294236b0000000000000000000000000000000000000000000000000000000000000000",
          "blockHash": "0xcbddcf24832965686dcbff82eac35150989a985676a7cce3afbcb42313bd46ef",
          "blockNumber": "0x14f5284",
          "transactionHash": "0x71983ffa40280deb6e2ae568a52da71abf4ed94ce2e21fe48f619b7db0be7f88",
          "transactionIndex": "0xa1",
          "logIndex": "0x131",
          "removed": false
        }
      ],
      "logsBloom": "0x00000000000000000000000000000000000000000000000000000000000000000400000000000000000000000000000000000000000000000000000000000000000000000000000000000040000000000000200000000000002000000000000000000000000000000000000000000000000000000000000000000000000000000000000000000000001000000000000000000000000000000000000000000000000000000000000000000002000000000000000000000000000000000000000200000000000000000000000000000000000000000000000000000000000000000008000000000000000000000000000000000000000000000000000000000010",
      "type": "0x2",
      "transactionHash": "0x71983ffa40280deb6e2ae568a52da71abf4ed94ce2e21fe48f619b7db0be7f88",
      "transactionIndex": "0xa1",
      "blockHash": "0xcbddcf24832965686dcbff82eac35150989a985676a7cce3afbcb42313bd46ef",
      "blockNumber": "0x14f5284",
      "gasUsed": "0x2e6c3",
      "effectiveGasPrice": "0x72b51404",
      "from": "0xb2105464215716e1445367bea5668f581ef7d063",
      "to": "0x1a44076050125825900e736c501f859c50fe728c",
      "contractAddress": null
    },
    {
      "status": "0x1",
      "cumulativeGasUsed": "0xbf7b6b",
      "logs": [
        {
          "address": "0x1a44076050125825900e736c501f859c50fe728c",
          "topics": [
            "0x4cff966ebee29a156dcb34cf72c1d06231fb1777f6bdf6e8089819232f002b1c"
          ],
          "data": "0x000000000000000000000000f1df43a3053cd18e477233b59a25fc483c2cbe0f0000000000000000000000000000000000000000000000000000000000007675000000000000000000000000bb2ea70c9e858123480642cf96acbcce1372dce1",
          "blockHash": "0xcbddcf24832965686dcbff82eac35150989a985676a7cce3afbcb42313bd46ef",
          "blockNumber": "0x14f5284",
          "transactionHash": "0xc54cb8d4dce2bdb2c0d9ec540da91d298139787c81a4b24743338b1b4c4405f4",
          "transactionIndex": "0xa2",
          "logIndex": "0x132",
          "removed": false
        }
      ],
      "logsBloom": "0x00000000000000000000000000000000000200000000000000000000001000000000000000000000000000000000000000000000000000000000000001000000000000000000000000000000000000000000000000000000000000000000000000000000000000000000000000000000000000000010000000000000000000000000000000000000000000000000000000000000000000000000000000000000000000000000000000000000000000000000000000000000000000000000000000000000000000000000000000000000000000000000000000000000000000000040000000000000000000000000000000000000010000000000000000000000",
      "type": "0x2",
      "transactionHash": "0xc54cb8d4dce2bdb2c0d9ec540da91d298139787c81a4b24743338b1b4c4405f4",
      "transactionIndex": "0xa2",
      "blockHash": "0xcbddcf24832965686dcbff82eac35150989a985676a7cce3afbcb42313bd46ef",
      "blockNumber": "0x14f5284",
      "gasUsed": "0xe18e",
      "effectiveGasPrice": "0x72b51404",
      "from": "0xb2105464215716e1445367bea5668f581ef7d063",
      "to": "0x1a44076050125825900e736c501f859c50fe728c",
      "contractAddress": null
    },
    {
      "status": "0x1",
      "cumulativeGasUsed": "0xc0770c",
      "logs": [
        {
          "address": "0x1a44076050125825900e736c501f859c50fe728c",
          "topics": [
            "0xcd6f92f5ac6185a5acfa02c92090746cec64d777269cbcd0ed031e396657a1c2"
          ],
          "data": "0x000000000000000000000000f1df43a3053cd18e477233b59a25fc483c2cbe0f0000000000000000000000000000000000000000000000000000000000007675000000000000000000000000c02ab410f0734efa3f14628780e6e695156024c2",
          "blockHash": "0xcbddcf24832965686dcbff82eac35150989a985676a7cce3afbcb42313bd46ef",
          "blockNumber": "0x14f5284",
          "transactionHash": "0x501dfc158eb704189daf86a7d9653ed609d88091f8f710b575018cc56cc06b4f",
          "transactionIndex": "0xa3",
          "logIndex": "0x133",
          "removed": false
        },
        {
          "address": "0x1a44076050125825900e736c501f859c50fe728c",
          "topics": [
            "0x4e0a5bbfa0c11a64effb1ada324b5437a17272e1aed9320398715ef71bb20928"
          ],
          "data": "0x000000000000000000000000f1df43a3053cd18e477233b59a25fc483c2cbe0f000000000000000000000000000000000000000000000000000000000000767500000000000000000000000000000000000000000000000000000000000000000000000000000000000000000000000000000000000000000000000000000000",
          "blockHash": "0xcbddcf24832965686dcbff82eac35150989a985676a7cce3afbcb42313bd46ef",
          "blockNumber": "0x14f5284",
          "transactionHash": "0x501dfc158eb704189daf86a7d9653ed609d88091f8f710b575018cc56cc06b4f",
          "transactionIndex": "0xa3",
          "logIndex": "0x134",
          "removed": false
        }
      ],
      "logsBloom": "0x00000000000000000000020800000000000000000000000000000000001000020400000000000000000000000000000000000000000000000000000000000000000000000000000000000000000000000000000000800000000000000000000000000000000000000000000000000000000000000010000000000000000000100000000000000000000000000000000000000000000000000000000000000000000000000000000000000000000000000000000000000000000000000000000000000000000000000000000000000000000000000000000000000000000000000000000000000000000000000000000000000000010000000000000000000000",
      "type": "0x2",
      "transactionHash": "0x501dfc158eb704189daf86a7d9653ed609d88091f8f710b575018cc56cc06b4f",
      "transactionIndex": "0xa3",
      "blockHash": "0xcbddcf24832965686dcbff82eac35150989a985676a7cce3afbcb42313bd46ef",
      "blockNumber": "0x14f5284",
      "gasUsed": "0xfba1",
      "effectiveGasPrice": "0x72b51404",
      "from": "0xb2105464215716e1445367bea5668f581ef7d063",
      "to": "0x1a44076050125825900e736c501f859c50fe728c",
      "contractAddress": null
    }
  ],
  "libraries": [],
  "pending": [],
  "returns": {},
  "timestamp": 1741117310,
  "chain": 1,
  "commit": "b772d4e4"
}
