{
  "transactions": [
    {
      "hash": "0x03ca2b6ca60cc5e8154844c7df8b65408e56d5f447bc2a6e10a31b387ea7f3dc",
      "transactionType": "CALL",
      "contractName": null,
      "contractAddress": "0x5e87d7e75b272fb7150b4d1a05afb6bd71474950",
      "function": "setPeer(uint32,bytes32)",
      "arguments": [
        "30325",
        "0x079f3ba28add0f0c113c0799d6e92e8538c02f1ce2d9ad4ca45929907b77bdc9"
      ],
      "transaction": {
        "from": "0xb2105464215716e1445367bea5668f581ef7d063",
        "to": "0x5e87d7e75b272fb7150b4d1a05afb6bd71474950",
        "gas": "0xa31e",
        "value": "0x0",
        "input": "0x3400288b0000000000000000000000000000000000000000000000000000000000007675079f3ba28add0f0c113c0799d6e92e8538c02f1ce2d9ad4ca45929907b77bdc9",
        "nonce": "0x35",
        "chainId": "0x1"
      },
      "additionalContracts": [],
      "isFixedGasLimit": false
    },
    {
      "hash": "0x8e875ef79bc572143532112087ee3aabed0bbb77bddfaffa9b8c0b8c4dd1723d",
      "transactionType": "CALL",
      "contractName": null,
      "contractAddress": "0x06e01cb086fea9c644a2c105a9f20cfc21a526e8",
      "function": "setPeer(uint32,bytes32)",
      "arguments": [
        "30325",
        "0xead494f359ae1e57cf850bae3afb1460b1352e7396dfedd2ec494295d33cc99a"
      ],
      "transaction": {
        "from": "0xb2105464215716e1445367bea5668f581ef7d063",
        "to": "0x06e01cb086fea9c644a2c105a9f20cfc21a526e8",
        "gas": "0xa31e",
        "value": "0x0",
        "input": "0x3400288b0000000000000000000000000000000000000000000000000000000000007675ead494f359ae1e57cf850bae3afb1460b1352e7396dfedd2ec494295d33cc99a",
        "nonce": "0x36",
        "chainId": "0x1"
      },
      "additionalContracts": [],
      "isFixedGasLimit": false
    },
    {
      "hash": "0x788cc0f7f1592b752edbb8f3f5840c09fdb2a9f2a84cb66467fab290d6f7e373",
      "transactionType": "CALL",
      "contractName": null,
      "contractAddress": "0xa55688c280e725704cfe8ea30ed33fe5b91ce6a4",
      "function": "setPeer(uint32,bytes32)",
      "arguments": [
        "30325",
        "0xb42d482d7a80d56c03493f8bd652504f1f7f67e2f66183b1854f3b162ef798bb"
      ],
      "transaction": {
        "from": "0xb2105464215716e1445367bea5668f581ef7d063",
        "to": "0xa55688c280e725704cfe8ea30ed33fe5b91ce6a4",
        "gas": "0xa31e",
        "value": "0x0",
        "input": "0x3400288b0000000000000000000000000000000000000000000000000000000000007675b42d482d7a80d56c03493f8bd652504f1f7f67e2f66183b1854f3b162ef798bb",
        "nonce": "0x37",
        "chainId": "0x1"
      },
      "additionalContracts": [],
      "isFixedGasLimit": false
    },
    {
      "hash": "0xbe7b383abb063a0bd1474d352faee86e085d64f31f33ebdb67669c954ccf6f2f",
      "transactionType": "CALL",
      "contractName": null,
      "contractAddress": "0xc209a627a7b0a19f16a963d9f7281667a2d9eff2",
      "function": "setEnforcedOptions((uint32,uint16,bytes)[])",
      "arguments": [
        "[(30325, 1, 0x00030100110100000000000000000000000000030d40), (30325, 2, 0x00030100110100000000000000000000000000030d40)]"
      ],
      "transaction": {
        "from": "0xb2105464215716e1445367bea5668f581ef7d063",
        "to": "0xc209a627a7b0a19f16a963d9f7281667a2d9eff2",
        "gas": "0xe6a4",
        "value": "0x0",
        "input": "0xb98bd07000000000000000000000000000000000000000000000000000000000000000200000000000000000000000000000000000000000000000000000000000000002000000000000000000000000000000000000000000000000000000000000004000000000000000000000000000000000000000000000000000000000000000e0000000000000000000000000000000000000000000000000000000000000767500000000000000000000000000000000000000000000000000000000000000010000000000000000000000000000000000000000000000000000000000000060000000000000000000000000000000000000000000000000000000000000001600030100110100000000000000000000000000030d4000000000000000000000000000000000000000000000000000000000000000000000000000000000767500000000000000000000000000000000000000000000000000000000000000020000000000000000000000000000000000000000000000000000000000000060000000000000000000000000000000000000000000000000000000000000001600030100110100000000000000000000000000030d4000000000000000000000",
        "nonce": "0x38",
        "chainId": "0x1"
      },
      "additionalContracts": [],
      "isFixedGasLimit": false
    },
    {
      "hash": "0xd2103bde2d014b52d15296a9ec209477b3863c58cdbc28908ca18e88d81413df",
      "transactionType": "CALL",
      "contractName": null,
      "contractAddress": "0x5e87d7e75b272fb7150b4d1a05afb6bd71474950",
      "function": "setEnforcedOptions((uint32,uint16,bytes)[])",
      "arguments": [
        "[(30325, 1, 0x00030100110100000000000000000000000000030d40), (30325, 2, 0x00030100110100000000000000000000000000030d40)]"
      ],
      "transaction": {
        "from": "0xb2105464215716e1445367bea5668f581ef7d063",
        "to": "0x5e87d7e75b272fb7150b4d1a05afb6bd71474950",
        "gas": "0xe6a4",
        "value": "0x0",
        "input": "0xb98bd07000000000000000000000000000000000000000000000000000000000000000200000000000000000000000000000000000000000000000000000000000000002000000000000000000000000000000000000000000000000000000000000004000000000000000000000000000000000000000000000000000000000000000e0000000000000000000000000000000000000000000000000000000000000767500000000000000000000000000000000000000000000000000000000000000010000000000000000000000000000000000000000000000000000000000000060000000000000000000000000000000000000000000000000000000000000001600030100110100000000000000000000000000030d4000000000000000000000000000000000000000000000000000000000000000000000000000000000767500000000000000000000000000000000000000000000000000000000000000020000000000000000000000000000000000000000000000000000000000000060000000000000000000000000000000000000000000000000000000000000001600030100110100000000000000000000000000030d4000000000000000000000",
        "nonce": "0x39",
        "chainId": "0x1"
      },
      "additionalContracts": [],
      "isFixedGasLimit": false
    },
    {
      "hash": "0x95884ccfeb1b203a520d7784dfa389bb3091a5b7e8230d493b295d7d4c2aa677",
      "transactionType": "CALL",
      "contractName": null,
      "contractAddress": "0x06e01cb086fea9c644a2c105a9f20cfc21a526e8",
      "function": "setEnforcedOptions((uint32,uint16,bytes)[])",
      "arguments": [
        "[(30325, 1, 0x00030100110100000000000000000000000000030d40), (30325, 2, 0x00030100110100000000000000000000000000030d40)]"
      ],
      "transaction": {
        "from": "0xb2105464215716e1445367bea5668f581ef7d063",
        "to": "0x06e01cb086fea9c644a2c105a9f20cfc21a526e8",
        "gas": "0xe6a4",
        "value": "0x0",
        "input": "0xb98bd07000000000000000000000000000000000000000000000000000000000000000200000000000000000000000000000000000000000000000000000000000000002000000000000000000000000000000000000000000000000000000000000004000000000000000000000000000000000000000000000000000000000000000e0000000000000000000000000000000000000000000000000000000000000767500000000000000000000000000000000000000000000000000000000000000010000000000000000000000000000000000000000000000000000000000000060000000000000000000000000000000000000000000000000000000000000001600030100110100000000000000000000000000030d4000000000000000000000000000000000000000000000000000000000000000000000000000000000767500000000000000000000000000000000000000000000000000000000000000020000000000000000000000000000000000000000000000000000000000000060000000000000000000000000000000000000000000000000000000000000001600030100110100000000000000000000000000030d4000000000000000000000",
        "nonce": "0x3a",
        "chainId": "0x1"
      },
      "additionalContracts": [],
      "isFixedGasLimit": false
    },
    {
      "hash": "0x7087e45ee53027413d860a6b465110bfaacf7d193bb3c532b5ccf246f3cb7310",
      "transactionType": "CALL",
      "contractName": null,
      "contractAddress": "0xa55688c280e725704cfe8ea30ed33fe5b91ce6a4",
      "function": "setEnforcedOptions((uint32,uint16,bytes)[])",
      "arguments": [
        "[(30325, 1, 0x00030100110100000000000000000000000000030d40), (30325, 2, 0x00030100110100000000000000000000000000030d40)]"
      ],
      "transaction": {
        "from": "0xb2105464215716e1445367bea5668f581ef7d063",
        "to": "0xa55688c280e725704cfe8ea30ed33fe5b91ce6a4",
        "gas": "0xe6a4",
        "value": "0x0",
        "input": "0xb98bd07000000000000000000000000000000000000000000000000000000000000000200000000000000000000000000000000000000000000000000000000000000002000000000000000000000000000000000000000000000000000000000000004000000000000000000000000000000000000000000000000000000000000000e0000000000000000000000000000000000000000000000000000000000000767500000000000000000000000000000000000000000000000000000000000000010000000000000000000000000000000000000000000000000000000000000060000000000000000000000000000000000000000000000000000000000000001600030100110100000000000000000000000000030d4000000000000000000000000000000000000000000000000000000000000000000000000000000000767500000000000000000000000000000000000000000000000000000000000000020000000000000000000000000000000000000000000000000000000000000060000000000000000000000000000000000000000000000000000000000000001600030100110100000000000000000000000000030d4000000000000000000000",
        "nonce": "0x3b",
        "chainId": "0x1"
      },
      "additionalContracts": [],
      "isFixedGasLimit": false
    }
  ],
  "receipts": [
    {
      "status": "0x1",
      "cumulativeGasUsed": "0x16d4a96",
      "logs": [
        {
          "address": "0x5e87d7e75b272fb7150b4d1a05afb6bd71474950",
          "topics": [
            "0x238399d427b947898edb290f5ff0f9109849b1c3ba196a42e35f00c50a54b98b"
          ],
          "data": "0x0000000000000000000000000000000000000000000000000000000000007675079f3ba28add0f0c113c0799d6e92e8538c02f1ce2d9ad4ca45929907b77bdc9",
          "blockHash": "0xc79e49d41bda64d6c34325008daa8b701cb386a670168b20eb94796ba6115bdb",
          "blockNumber": "0x14f530a",
          "transactionHash": "0x03ca2b6ca60cc5e8154844c7df8b65408e56d5f447bc2a6e10a31b387ea7f3dc",
          "transactionIndex": "0xc3",
          "logIndex": "0x275",
          "removed": false
        }
      ],
      "logsBloom": "0x00000000000000000000000000000000000000000000000000000000000000000000000000000000000000000000000000000000000000000800000000000000000000000000000000000000000000000000000000000000000000000020000000000000000000000000000000000000000000000000000000000000000000000000100000000000000000000000000000000000000000000000000000000000000000000000000000000000000000000000000000000000000002000000000000000000000000000000000000000000000000000000000000040000000000000000000000000000000000000000000000000800000000000000000000000000",
      "type": "0x2",
      "transactionHash": "0x03ca2b6ca60cc5e8154844c7df8b65408e56d5f447bc2a6e10a31b387ea7f3dc",
      "transactionIndex": "0xc3",
      "blockHash": "0xc79e49d41bda64d6c34325008daa8b701cb386a670168b20eb94796ba6115bdb",
      "blockNumber": "0x14f530a",
      "gasUsed": "0x6f89",
      "effectiveGasPrice": "0x35e7923e",
      "from": "0xb2105464215716e1445367bea5668f581ef7d063",
      "to": "0x5e87d7e75b272fb7150b4d1a05afb6bd71474950",
      "contractAddress": null
    },
    {
      "status": "0x1",
      "cumulativeGasUsed": "0x173edb6",
      "logs": [
        {
          "address": "0x06e01cb086fea9c644a2c105a9f20cfc21a526e8",
          "topics": [
            "0x238399d427b947898edb290f5ff0f9109849b1c3ba196a42e35f00c50a54b98b"
          ],
          "data": "0x0000000000000000000000000000000000000000000000000000000000007675ead494f359ae1e57cf850bae3afb1460b1352e7396dfedd2ec494295d33cc99a",
          "blockHash": "0xc79e49d41bda64d6c34325008daa8b701cb386a670168b20eb94796ba6115bdb",
          "blockNumber": "0x14f530a",
          "transactionHash": "0x8e875ef79bc572143532112087ee3aabed0bbb77bddfaffa9b8c0b8c4dd1723d",
          "transactionIndex": "0xc8",
          "logIndex": "0x27c",
          "removed": false
        }
      ],
      "logsBloom": "0x00000000000000000000000000000000000000000004000000000000000000000000000000000000000000000000000000000000000000000800000000000000000000000000000000000000000000000000000000000000000000000000000000000000000000000000000000000000000000000000000000000000000000000000000000800000000000000800000000000000000000000000000000000000000000000000000000000000000000000000000000000000000002000000000000000000000000000000000000000000000000000000000000040000000000000000000000000000000000000000000000000000000000000000000000000000",
      "type": "0x2",
      "transactionHash": "0x8e875ef79bc572143532112087ee3aabed0bbb77bddfaffa9b8c0b8c4dd1723d",
      "transactionIndex": "0xc8",
      "blockHash": "0xc79e49d41bda64d6c34325008daa8b701cb386a670168b20eb94796ba6115bdb",
      "blockNumber": "0x14f530a",
      "gasUsed": "0x6f89",
      "effectiveGasPrice": "0x35e7923e",
      "from": "0xb2105464215716e1445367bea5668f581ef7d063",
      "to": "0x06e01cb086fea9c644a2c105a9f20cfc21a526e8",
      "contractAddress": null
    },
    {
      "status": "0x1",
      "cumulativeGasUsed": "0x1745d3f",
      "logs": [
        {
          "address": "0xa55688c280e725704cfe8ea30ed33fe5b91ce6a4",
          "topics": [
            "0x238399d427b947898edb290f5ff0f9109849b1c3ba196a42e35f00c50a54b98b"
          ],
          "data": "0x0000000000000000000000000000000000000000000000000000000000007675b42d482d7a80d56c03493f8bd652504f1f7f67e2f66183b1854f3b162ef798bb",
          "blockHash": "0xc79e49d41bda64d6c34325008daa8b701cb386a670168b20eb94796ba6115bdb",
          "blockNumber": "0x14f530a",
          "transactionHash": "0x788cc0f7f1592b752edbb8f3f5840c09fdb2a9f2a84cb66467fab290d6f7e373",
          "transactionIndex": "0xc9",
          "logIndex": "0x27d",
          "removed": false
        }
      ],
      "logsBloom": "0x00000000000000000000000000000000000000000000000000000000000000000000000000000000000000000000000000000000000000000800000000000000000000000000000000000000000000000000000000000000000000000000000000000000000000000000000000000000000000000000000000000000000000000000000000000000000000000000000000000000000000000000000000000000000000000000000000000000000000000000000000000000000006000000000000000000000000000000000000000000000000000000000000040000004000004000000000000000000000000000000000000000000000000000000000000000",
      "type": "0x2",
      "transactionHash": "0x788cc0f7f1592b752edbb8f3f5840c09fdb2a9f2a84cb66467fab290d6f7e373",
      "transactionIndex": "0xc9",
      "blockHash": "0xc79e49d41bda64d6c34325008daa8b701cb386a670168b20eb94796ba6115bdb",
      "blockNumber": "0x14f530a",
      "gasUsed": "0x6f89",
      "effectiveGasPrice": "0x35e7923e",
      "from": "0xb2105464215716e1445367bea5668f581ef7d063",
      "to": "0xa55688c280e725704cfe8ea30ed33fe5b91ce6a4",
      "contractAddress": null
    },
    {
      "status": "0x1",
      "cumulativeGasUsed": "0x175043b",
      "logs": [
        {
          "address": "0xc209a627a7b0a19f16a963d9f7281667a2d9eff2",
          "topics": [
            "0xbe4864a8e820971c0247f5992e2da559595f7bf076a21cb5928d443d2a13b674"
          ],
          "data": "0x00000000000000000000000000000000000000000000000000000000000000200000000000000000000000000000000000000000000000000000000000000002000000000000000000000000000000000000000000000000000000000000004000000000000000000000000000000000000000000000000000000000000000e0000000000000000000000000000000000000000000000000000000000000767500000000000000000000000000000000000000000000000000000000000000010000000000000000000000000000000000000000000000000000000000000060000000000000000000000000000000000000000000000000000000000000001600030100110100000000000000000000000000030d4000000000000000000000000000000000000000000000000000000000000000000000000000000000767500000000000000000000000000000000000000000000000000000000000000020000000000000000000000000000000000000000000000000000000000000060000000000000000000000000000000000000000000000000000000000000001600030100110100000000000000000000000000030d4000000000000000000000",
          "blockHash": "0xc79e49d41bda64d6c34325008daa8b701cb386a670168b20eb94796ba6115bdb",
          "blockNumber": "0x14f530a",
          "transactionHash": "0xbe7b383abb063a0bd1474d352faee86e085d64f31f33ebdb67669c954ccf6f2f",
          "transactionIndex": "0xca",
          "logIndex": "0x27e",
          "removed": false
        }
      ],
      "logsBloom": "0x00000000000000000004000000000000000000000000000000000000000000000000000000000000000000000000000000000000000000000000400000000000000000000000000000000000000000000000000000000000000000000000000000000000000000000000000000000000000000000000000000000000000000000000000000000000000000000000000000000000000000000000000000080000000000000000000000000000000000000000000000000000000000000010000000000000000000000000000002000000000000000000000000400000000000000000000000000000000000000000000000000000000000000000000000000000",
      "type": "0x2",
      "transactionHash": "0xbe7b383abb063a0bd1474d352faee86e085d64f31f33ebdb67669c954ccf6f2f",
      "transactionIndex": "0xca",
      "blockHash": "0xc79e49d41bda64d6c34325008daa8b701cb386a670168b20eb94796ba6115bdb",
      "blockNumber": "0x14f530a",
      "gasUsed": "0xa6fc",
      "effectiveGasPrice": "0x35e7923e",
      "from": "0xb2105464215716e1445367bea5668f581ef7d063",
      "to": "0xc209a627a7b0a19f16a963d9f7281667a2d9eff2",
      "contractAddress": null
    },
    {
      "status": "0x1",
      "cumulativeGasUsed": "0x175ab37",
      "logs": [
        {
          "address": "0x5e87d7e75b272fb7150b4d1a05afb6bd71474950",
          "topics": [
            "0xbe4864a8e820971c0247f5992e2da559595f7bf076a21cb5928d443d2a13b674"
          ],
          "data": "0x00000000000000000000000000000000000000000000000000000000000000200000000000000000000000000000000000000000000000000000000000000002000000000000000000000000000000000000000000000000000000000000004000000000000000000000000000000000000000000000000000000000000000e0000000000000000000000000000000000000000000000000000000000000767500000000000000000000000000000000000000000000000000000000000000010000000000000000000000000000000000000000000000000000000000000060000000000000000000000000000000000000000000000000000000000000001600030100110100000000000000000000000000030d4000000000000000000000000000000000000000000000000000000000000000000000000000000000767500000000000000000000000000000000000000000000000000000000000000020000000000000000000000000000000000000000000000000000000000000060000000000000000000000000000000000000000000000000000000000000001600030100110100000000000000000000000000030d4000000000000000000000",
          "blockHash": "0xc79e49d41bda64d6c34325008daa8b701cb386a670168b20eb94796ba6115bdb",
          "blockNumber": "0x14f530a",
          "transactionHash": "0xd2103bde2d014b52d15296a9ec209477b3863c58cdbc28908ca18e88d81413df",
          "transactionIndex": "0xcb",
          "logIndex": "0x27f",
          "removed": false
        }
      ],
      "logsBloom": "0x00000000000000000000000000000000000000000000000000000000000000000000000000000000000000000000000000000000000000000000400000000000000000000000000000000000000000000000000000000000000000000020000000000000000000000000000000000000000000000000000000000000000000000000100000000000000000000000000000000000000000000000000000080000000000000000000000000000000000000000000000000000000000000000000000000000000000000000000002000000000000000000000000000000000000000000000000000000000000000000000000000800000000000000000000000000",
      "type": "0x2",
      "transactionHash": "0xd2103bde2d014b52d15296a9ec209477b3863c58cdbc28908ca18e88d81413df",
      "transactionIndex": "0xcb",
      "blockHash": "0xc79e49d41bda64d6c34325008daa8b701cb386a670168b20eb94796ba6115bdb",
      "blockNumber": "0x14f530a",
      "gasUsed": "0xa6fc",
      "effectiveGasPrice": "0x35e7923e",
      "from": "0xb2105464215716e1445367bea5668f581ef7d063",
      "to": "0x5e87d7e75b272fb7150b4d1a05afb6bd71474950",
      "contractAddress": null
    },
    {
      "status": "0x1",
      "cumulativeGasUsed": "0x1765233",
      "logs": [
        {
          "address": "0x06e01cb086fea9c644a2c105a9f20cfc21a526e8",
          "topics": [
            "0xbe4864a8e820971c0247f5992e2da559595f7bf076a21cb5928d443d2a13b674"
          ],
          "data": "0x00000000000000000000000000000000000000000000000000000000000000200000000000000000000000000000000000000000000000000000000000000002000000000000000000000000000000000000000000000000000000000000004000000000000000000000000000000000000000000000000000000000000000e0000000000000000000000000000000000000000000000000000000000000767500000000000000000000000000000000000000000000000000000000000000010000000000000000000000000000000000000000000000000000000000000060000000000000000000000000000000000000000000000000000000000000001600030100110100000000000000000000000000030d4000000000000000000000000000000000000000000000000000000000000000000000000000000000767500000000000000000000000000000000000000000000000000000000000000020000000000000000000000000000000000000000000000000000000000000060000000000000000000000000000000000000000000000000000000000000001600030100110100000000000000000000000000030d4000000000000000000000",
          "blockHash": "0xc79e49d41bda64d6c34325008daa8b701cb386a670168b20eb94796ba6115bdb",
          "blockNumber": "0x14f530a",
          "transactionHash": "0x95884ccfeb1b203a520d7784dfa389bb3091a5b7e8230d493b295d7d4c2aa677",
          "transactionIndex": "0xcc",
          "logIndex": "0x280",
          "removed": false
        }
      ],
      "logsBloom": "0x00000000000000000000000000000000000000000004000000000000000000000000000000000000000000000000000000000000000000000000400000000000000000000000000000000000000000000000000000000000000000000000000000000000000000000000000000000000000000000000000000000000000000000000000000800000000000000800000000000000000000000000000000080000000000000000000000000000000000000000000000000000000000000000000000000000000000000000000002000000000000000000000000000000000000000000000000000000000000000000000000000000000000000000000000000000",
      "type": "0x2",
      "transactionHash": "0x95884ccfeb1b203a520d7784dfa389bb3091a5b7e8230d493b295d7d4c2aa677",
      "transactionIndex": "0xcc",
      "blockHash": "0xc79e49d41bda64d6c34325008daa8b701cb386a670168b20eb94796ba6115bdb",
      "blockNumber": "0x14f530a",
      "gasUsed": "0xa6fc",
      "effectiveGasPrice": "0x35e7923e",
      "from": "0xb2105464215716e1445367bea5668f581ef7d063",
      "to": "0x06e01cb086fea9c644a2c105a9f20cfc21a526e8",
      "contractAddress": null
    },
    {
      "status": "0x1",
      "cumulativeGasUsed": "0x176f92f",
      "logs": [
        {
          "address": "0xa55688c280e725704cfe8ea30ed33fe5b91ce6a4",
          "topics": [
            "0xbe4864a8e820971c0247f5992e2da559595f7bf076a21cb5928d443d2a13b674"
          ],
          "data": "0x00000000000000000000000000000000000000000000000000000000000000200000000000000000000000000000000000000000000000000000000000000002000000000000000000000000000000000000000000000000000000000000004000000000000000000000000000000000000000000000000000000000000000e0000000000000000000000000000000000000000000000000000000000000767500000000000000000000000000000000000000000000000000000000000000010000000000000000000000000000000000000000000000000000000000000060000000000000000000000000000000000000000000000000000000000000001600030100110100000000000000000000000000030d4000000000000000000000000000000000000000000000000000000000000000000000000000000000767500000000000000000000000000000000000000000000000000000000000000020000000000000000000000000000000000000000000000000000000000000060000000000000000000000000000000000000000000000000000000000000001600030100110100000000000000000000000000030d4000000000000000000000",
          "blockHash": "0xc79e49d41bda64d6c34325008daa8b701cb386a670168b20eb94796ba6115bdb",
          "blockNumber": "0x14f530a",
          "transactionHash": "0x7087e45ee53027413d860a6b465110bfaacf7d193bb3c532b5ccf246f3cb7310",
          "transactionIndex": "0xcd",
          "logIndex": "0x281",
          "removed": false
        }
      ],
      "logsBloom": "0x00000000000000000000000000000000000000000000000000000000000000000000000000000000000000000000000000000000000000000000400000000000000000000000000000000000000000000000000000000000000000000000000000000000000000000000000000000000000000000000000000000000000000000000000000000000000000000000000000000000000000000000000000080000000000000000000000000000000000000000000000000000000004000000000000000000000000000000000002000000000000000000000000000000004000004000000000000000000000000000000000000000000000000000000000000000",
      "type": "0x2",
      "transactionHash": "0x7087e45ee53027413d860a6b465110bfaacf7d193bb3c532b5ccf246f3cb7310",
      "transactionIndex": "0xcd",
      "blockHash": "0xc79e49d41bda64d6c34325008daa8b701cb386a670168b20eb94796ba6115bdb",
      "blockNumber": "0x14f530a",
      "gasUsed": "0xa6fc",
      "effectiveGasPrice": "0x35e7923e",
      "from": "0xb2105464215716e1445367bea5668f581ef7d063",
      "to": "0xa55688c280e725704cfe8ea30ed33fe5b91ce6a4",
      "contractAddress": null
    }
  ],
  "libraries": [],
  "pending": [],
  "returns": {},
  "timestamp": 1741118919,
  "chain": 1,
  "commit": "b772d4e4"
}
