{
  "transactions": [
    {
      "hash": "0xfada445ac8c9e854d4510fe5c1c9a6aa84979fffdb59bd88cea009602dc69327",
      "transactionType": "CALL",
      "contractName": null,
      "contractAddress": "0x5e87d7e75b272fb7150b4d1a05afb6bd71474950",
      "function": "setPeer(uint32,bytes32)",
      "arguments": [
        "30325",
        "0x079f3ba28add0f0c113c0799d6e92e8538c02f1ce2d9ad4ca45929907b77bdc9"
      ],
      "transaction": {
        "from": "0xb2105464215716e1445367bea5668f581ef7d063",
        "to": "0x5e87d7e75b272fb7150b4d1a05afb6bd71474950",
        "gas": "0x1056d",
        "value": "0x0",
        "input": "0x3400288b0000000000000000000000000000000000000000000000000000000000007675079f3ba28add0f0c113c0799d6e92e8538c02f1ce2d9ad4ca45929907b77bdc9",
        "nonce": "0x2e",
        "chainId": "0x1"
      },
      "additionalContracts": [],
      "isFixedGasLimit": false
    },
    {
      "hash": "0x12fd4e27463793fc9f5815bc26306c2685cbc8fbccc33c2e06689a28018f747e",
      "transactionType": "CALL",
      "contractName": null,
      "contractAddress": "0x06e01cb086fea9c644a2c105a9f20cfc21a526e8",
      "function": "setPeer(uint32,bytes32)",
      "arguments": [
        "30325",
        "0xead494f359ae1e57cf850bae3afb1460b1352e7396dfedd2ec494295d33cc99a"
      ],
      "transaction": {
        "from": "0xb2105464215716e1445367bea5668f581ef7d063",
        "to": "0x06e01cb086fea9c644a2c105a9f20cfc21a526e8",
        "gas": "0x1056d",
        "value": "0x0",
        "input": "0x3400288b0000000000000000000000000000000000000000000000000000000000007675ead494f359ae1e57cf850bae3afb1460b1352e7396dfedd2ec494295d33cc99a",
        "nonce": "0x2f",
        "chainId": "0x1"
      },
      "additionalContracts": [],
      "isFixedGasLimit": false
    },
    {
      "hash": "0xae5a6aabd03ed8c0bd64569f910fb1f02bd798286b8dbc0f6ceb6cd4fd8464af",
      "transactionType": "CALL",
      "contractName": null,
      "contractAddress": "0xa55688c280e725704cfe8ea30ed33fe5b91ce6a4",
      "function": "setPeer(uint32,bytes32)",
      "arguments": [
        "30325",
        "0xb42d482d7a80d56c03493f8bd652504f1f7f67e2f66183b1854f3b162ef798bb"
      ],
      "transaction": {
        "from": "0xb2105464215716e1445367bea5668f581ef7d063",
        "to": "0xa55688c280e725704cfe8ea30ed33fe5b91ce6a4",
        "gas": "0x1056d",
        "value": "0x0",
        "input": "0x3400288b0000000000000000000000000000000000000000000000000000000000007675b42d482d7a80d56c03493f8bd652504f1f7f67e2f66183b1854f3b162ef798bb",
        "nonce": "0x30",
        "chainId": "0x1"
      },
      "additionalContracts": [],
      "isFixedGasLimit": false
    },
    {
      "hash": "0x73b4b6ca0f7668b3ab427a95625df8f86de373377fe61aadb6fefc08d1fcb2e4",
      "transactionType": "CALL",
      "contractName": null,
      "contractAddress": "0xc209a627a7b0a19f16a963d9f7281667a2d9eff2",
      "function": "setEnforcedOptions((uint32,uint16,bytes)[])",
      "arguments": [
        "[(30325, 1, 0x00030100110100000000000000000000000000030d40), (30325, 2, 0x00030100110100000000000000000000000000030d40)]"
      ],
      "transaction": {
        "from": "0xb2105464215716e1445367bea5668f581ef7d063",
        "to": "0xc209a627a7b0a19f16a963d9f7281667a2d9eff2",
        "gas": "0x1bd63",
        "value": "0x0",
        "input": "0xb98bd07000000000000000000000000000000000000000000000000000000000000000200000000000000000000000000000000000000000000000000000000000000002000000000000000000000000000000000000000000000000000000000000004000000000000000000000000000000000000000000000000000000000000000e0000000000000000000000000000000000000000000000000000000000000767500000000000000000000000000000000000000000000000000000000000000010000000000000000000000000000000000000000000000000000000000000060000000000000000000000000000000000000000000000000000000000000001600030100110100000000000000000000000000030d4000000000000000000000000000000000000000000000000000000000000000000000000000000000767500000000000000000000000000000000000000000000000000000000000000020000000000000000000000000000000000000000000000000000000000000060000000000000000000000000000000000000000000000000000000000000001600030100110100000000000000000000000000030d4000000000000000000000",
        "nonce": "0x31",
        "chainId": "0x1"
      },
      "additionalContracts": [],
      "isFixedGasLimit": false
    },
    {
      "hash": "0x7f17546340989de8ce9577cf46aae2e6895380d4d8740c452625cfa6227f77eb",
      "transactionType": "CALL",
      "contractName": null,
      "contractAddress": "0x5e87d7e75b272fb7150b4d1a05afb6bd71474950",
      "function": "setEnforcedOptions((uint32,uint16,bytes)[])",
      "arguments": [
        "[(30325, 1, 0x00030100110100000000000000000000000000030d40), (30325, 2, 0x00030100110100000000000000000000000000030d40)]"
      ],
      "transaction": {
        "from": "0xb2105464215716e1445367bea5668f581ef7d063",
        "to": "0x5e87d7e75b272fb7150b4d1a05afb6bd71474950",
        "gas": "0x1bd63",
        "value": "0x0",
        "input": "0xb98bd07000000000000000000000000000000000000000000000000000000000000000200000000000000000000000000000000000000000000000000000000000000002000000000000000000000000000000000000000000000000000000000000004000000000000000000000000000000000000000000000000000000000000000e0000000000000000000000000000000000000000000000000000000000000767500000000000000000000000000000000000000000000000000000000000000010000000000000000000000000000000000000000000000000000000000000060000000000000000000000000000000000000000000000000000000000000001600030100110100000000000000000000000000030d4000000000000000000000000000000000000000000000000000000000000000000000000000000000767500000000000000000000000000000000000000000000000000000000000000020000000000000000000000000000000000000000000000000000000000000060000000000000000000000000000000000000000000000000000000000000001600030100110100000000000000000000000000030d4000000000000000000000",
        "nonce": "0x32",
        "chainId": "0x1"
      },
      "additionalContracts": [],
      "isFixedGasLimit": false
    },
    {
      "hash": "0x0339ec1ce2a7f5ce0062cd0f67f458a101d67b3de78283bf807678a5072f759b",
      "transactionType": "CALL",
      "contractName": null,
      "contractAddress": "0x06e01cb086fea9c644a2c105a9f20cfc21a526e8",
      "function": "setEnforcedOptions((uint32,uint16,bytes)[])",
      "arguments": [
        "[(30325, 1, 0x00030100110100000000000000000000000000030d40), (30325, 2, 0x00030100110100000000000000000000000000030d40)]"
      ],
      "transaction": {
        "from": "0xb2105464215716e1445367bea5668f581ef7d063",
        "to": "0x06e01cb086fea9c644a2c105a9f20cfc21a526e8",
        "gas": "0x1bd63",
        "value": "0x0",
        "input": "0xb98bd07000000000000000000000000000000000000000000000000000000000000000200000000000000000000000000000000000000000000000000000000000000002000000000000000000000000000000000000000000000000000000000000004000000000000000000000000000000000000000000000000000000000000000e0000000000000000000000000000000000000000000000000000000000000767500000000000000000000000000000000000000000000000000000000000000010000000000000000000000000000000000000000000000000000000000000060000000000000000000000000000000000000000000000000000000000000001600030100110100000000000000000000000000030d4000000000000000000000000000000000000000000000000000000000000000000000000000000000767500000000000000000000000000000000000000000000000000000000000000020000000000000000000000000000000000000000000000000000000000000060000000000000000000000000000000000000000000000000000000000000001600030100110100000000000000000000000000030d4000000000000000000000",
        "nonce": "0x33",
        "chainId": "0x1"
      },
      "additionalContracts": [],
      "isFixedGasLimit": false
    },
    {
      "hash": "0xddc8c537b8ee9f770bbfdf42397a49042c96f03a91052fb917337ad2fcd93f80",
      "transactionType": "CALL",
      "contractName": null,
      "contractAddress": "0xa55688c280e725704cfe8ea30ed33fe5b91ce6a4",
      "function": "setEnforcedOptions((uint32,uint16,bytes)[])",
      "arguments": [
        "[(30325, 1, 0x00030100110100000000000000000000000000030d40), (30325, 2, 0x00030100110100000000000000000000000000030d40)]"
      ],
      "transaction": {
        "from": "0xb2105464215716e1445367bea5668f581ef7d063",
        "to": "0xa55688c280e725704cfe8ea30ed33fe5b91ce6a4",
        "gas": "0x1bd63",
        "value": "0x0",
        "input": "0xb98bd07000000000000000000000000000000000000000000000000000000000000000200000000000000000000000000000000000000000000000000000000000000002000000000000000000000000000000000000000000000000000000000000004000000000000000000000000000000000000000000000000000000000000000e0000000000000000000000000000000000000000000000000000000000000767500000000000000000000000000000000000000000000000000000000000000010000000000000000000000000000000000000000000000000000000000000060000000000000000000000000000000000000000000000000000000000000001600030100110100000000000000000000000000030d4000000000000000000000000000000000000000000000000000000000000000000000000000000000767500000000000000000000000000000000000000000000000000000000000000020000000000000000000000000000000000000000000000000000000000000060000000000000000000000000000000000000000000000000000000000000001600030100110100000000000000000000000000030d4000000000000000000000",
        "nonce": "0x34",
        "chainId": "0x1"
      },
      "additionalContracts": [],
      "isFixedGasLimit": false
    }
  ],
  "receipts": [],
  "libraries": [],
  "pending": [],
  "returns": {},
  "timestamp": 1741118834,
  "chain": 1,
  "commit": "b772d4e4"
}
